{
  "abi": [
    {
      "inputs": [],
      "stateMutability": "nonpayable",
      "type": "constructor"
    },
    {
      "anonymous": false,
      "inputs": [
        {
          "indexed": false,
          "internalType": "address",
          "name": "previousAdmin",
          "type": "address"
        },
        {
          "indexed": false,
          "internalType": "address",
          "name": "newAdmin",
          "type": "address"
        }
      ],
      "name": "AdminChanged",
      "type": "event"
    },
    {
      "anonymous": false,
      "inputs": [
        {
          "indexed": true,
          "internalType": "address",
          "name": "beacon",
          "type": "address"
        }
      ],
      "name": "BeaconUpgraded",
      "type": "event"
    },
    {
      "anonymous": false,
      "inputs": [
        {
          "indexed": false,
          "internalType": "uint8",
          "name": "version",
          "type": "uint8"
        }
      ],
      "name": "Initialized",
      "type": "event"
    },
    {
      "anonymous": false,
      "inputs": [
        {
          "indexed": true,
          "internalType": "address",
          "name": "previousOwner",
          "type": "address"
        },
        {
          "indexed": true,
          "internalType": "address",
          "name": "newOwner",
          "type": "address"
        }
      ],
      "name": "OwnershipTransferred",
      "type": "event"
    },
    {
      "anonymous": false,
      "inputs": [
        {
          "indexed": true,
          "internalType": "address",
          "name": "implementation",
          "type": "address"
        }
      ],
      "name": "Upgraded",
      "type": "event"
    },
    {
      "inputs": [],
      "name": "getNumber",
      "outputs": [
        {
          "internalType": "uint256",
          "name": "",
          "type": "uint256"
        }
      ],
      "stateMutability": "view",
      "type": "function"
    },
    {
      "inputs": [],
      "name": "initialize",
      "outputs": [],
      "stateMutability": "nonpayable",
      "type": "function"
    },
    {
      "inputs": [],
      "name": "owner",
      "outputs": [
        {
          "internalType": "address",
          "name": "",
          "type": "address"
        }
      ],
      "stateMutability": "view",
      "type": "function"
    },
    {
      "inputs": [],
      "name": "proxiableUUID",
      "outputs": [
        {
          "internalType": "bytes32",
          "name": "",
          "type": "bytes32"
        }
      ],
      "stateMutability": "view",
      "type": "function"
    },
    {
      "inputs": [],
      "name": "renounceOwnership",
      "outputs": [],
      "stateMutability": "nonpayable",
      "type": "function"
    },
    {
      "inputs": [
        {
          "internalType": "address",
          "name": "newOwner",
          "type": "address"
        }
      ],
      "name": "transferOwnership",
      "outputs": [],
      "stateMutability": "nonpayable",
      "type": "function"
    },
    {
      "inputs": [
        {
          "internalType": "address",
          "name": "newImplementation",
          "type": "address"
        }
      ],
      "name": "upgradeTo",
      "outputs": [],
      "stateMutability": "nonpayable",
      "type": "function"
    },
    {
      "inputs": [
        {
          "internalType": "address",
          "name": "newImplementation",
          "type": "address"
        },
        {
          "internalType": "bytes",
          "name": "data",
          "type": "bytes"
        }
      ],
      "name": "upgradeToAndCall",
      "outputs": [],
      "stateMutability": "payable",
      "type": "function"
    },
    {
      "inputs": [],
      "name": "version",
      "outputs": [
        {
          "internalType": "uint256",
          "name": "",
          "type": "uint256"
        }
      ],
      "stateMutability": "pure",
      "type": "function"
    }
  ],
  "bytecode": {
    "object": "0x60a06040523060805234801561001457600080fd5b5061001d610022565b6100e1565b600054610100900460ff161561008e5760405162461bcd60e51b815260206004820152602760248201527f496e697469616c697a61626c653a20636f6e747261637420697320696e697469604482015266616c697a696e6760c81b606482015260840160405180910390fd5b60005460ff908116146100df576000805460ff191660ff9081179091556040519081527f7f26b83ff96e1f2b6a682f133852f6798a09c465da95921460cefb38474024989060200160405180910390a15b565b608051610d716101186000396000818161018d015281816101d60152818161026c015281816102ac01526103360152610d716000f3fe6080604052600436106100865760003560e01c8063715018a611610059578063715018a6146100fc5780638129fc1c146101115780638da5cb5b14610126578063f2c9ecd81461014e578063f2fde38b1461016357600080fd5b80633659cfe61461008b5780634f1ef286146100ad57806352d1902d146100c057806354fd4d50146100e8575b600080fd5b34801561009757600080fd5b506100ab6100a6366004610a92565b610183565b005b6100ab6100bb366004610ac3565b610262565b3480156100cc57600080fd5b506100d5610329565b6040519081526020015b60405180910390f35b3480156100f457600080fd5b5060016100d5565b34801561010857600080fd5b506100ab6103dc565b34801561011d57600080fd5b506100ab6103f0565b34801561013257600080fd5b506097546040516001600160a01b0390911681526020016100df565b34801561015a57600080fd5b5060c9546100d5565b34801561016f57600080fd5b506100ab61017e366004610a92565b610508565b6001600160a01b037f00000000000000000000000000000000000000000000000000000000000000001630036101d45760405162461bcd60e51b81526004016101cb90610b85565b60405180910390fd5b7f00000000000000000000000000000000000000000000000000000000000000006001600160a01b031661021d600080516020610cf5833981519152546001600160a01b031690565b6001600160a01b0316146102435760405162461bcd60e51b81526004016101cb90610bd1565b6040805160008082526020820190925261025f9183919061057e565b50565b6001600160a01b037f00000000000000000000000000000000000000000000000000000000000000001630036102aa5760405162461bcd60e51b81526004016101cb90610b85565b7f00000000000000000000000000000000000000000000000000000000000000006001600160a01b03166102f3600080516020610cf5833981519152546001600160a01b031690565b6001600160a01b0316146103195760405162461bcd60e51b81526004016101cb90610bd1565b6103258282600161057e565b5050565b6000306001600160a01b037f000000000000000000000000000000000000000000000000000000000000000016146103c95760405162461bcd60e51b815260206004820152603860248201527f555550535570677261646561626c653a206d757374206e6f742062652063616c60448201527f6c6564207468726f7567682064656c656761746563616c6c000000000000000060648201526084016101cb565b50600080516020610cf583398151915290565b6103e46106ee565b6103ee6000610748565b565b600054610100900460ff16158080156104105750600054600160ff909116105b8061042a5750303b15801561042a575060005460ff166001145b61048d5760405162461bcd60e51b815260206004820152602e60248201527f496e697469616c697a61626c653a20636f6e747261637420697320616c72656160448201526d191e481a5b9a5d1a585b1a5e995960921b60648201526084016101cb565b6000805460ff1916600117905580156104b0576000805461ff0019166101001790555b6104b861079a565b6104c06107c9565b801561025f576000805461ff0019169055604051600181527f7f26b83ff96e1f2b6a682f133852f6798a09c465da95921460cefb38474024989060200160405180910390a150565b6105106106ee565b6001600160a01b0381166105755760405162461bcd60e51b815260206004820152602660248201527f4f776e61626c653a206e6577206f776e657220697320746865207a65726f206160448201526564647265737360d01b60648201526084016101cb565b61025f81610748565b7f4910fdfa16fed3260ed0e7147f7cc6da11a60208b5b9406d12a635614ffd91435460ff16156105b6576105b1836107f0565b505050565b826001600160a01b03166352d1902d6040518163ffffffff1660e01b8152600401602060405180830381865afa925050508015610610575060408051601f3d908101601f1916820190925261060d91810190610c1d565b60015b6106735760405162461bcd60e51b815260206004820152602e60248201527f45524331393637557067726164653a206e657720696d706c656d656e7461746960448201526d6f6e206973206e6f74205555505360901b60648201526084016101cb565b600080516020610cf583398151915281146106e25760405162461bcd60e51b815260206004820152602960248201527f45524331393637557067726164653a20756e737570706f727465642070726f786044820152681a58589b195555525160ba1b60648201526084016101cb565b506105b183838361088c565b6097546001600160a01b031633146103ee5760405162461bcd60e51b815260206004820181905260248201527f4f776e61626c653a2063616c6c6572206973206e6f7420746865206f776e657260448201526064016101cb565b609780546001600160a01b038381166001600160a01b0319831681179093556040519116919082907f8be0079c531659141344cd1fd0a4f28419497f9722a3daafe3b4186f6b6457e090600090a35050565b600054610100900460ff166107c15760405162461bcd60e51b81526004016101cb90610c36565b6103ee6108b7565b600054610100900460ff166103ee5760405162461bcd60e51b81526004016101cb90610c36565b6001600160a01b0381163b61085d5760405162461bcd60e51b815260206004820152602d60248201527f455243313936373a206e657720696d706c656d656e746174696f6e206973206e60448201526c1bdd08184818dbdb9d1c9858dd609a1b60648201526084016101cb565b600080516020610cf583398151915280546001600160a01b0319166001600160a01b0392909216919091179055565b610895836108e7565b6000825111806108a25750805b156105b1576108b18383610927565b50505050565b600054610100900460ff166108de5760405162461bcd60e51b81526004016101cb90610c36565b6103ee33610748565b6108f0816107f0565b6040516001600160a01b038216907fbc7cd75a20ee27fd9adebab32041f755214dbc6bffa90cc0225b39da2e5c2d3b90600090a250565b606061094c8383604051806060016040528060278152602001610d1560279139610953565b9392505050565b6060600080856001600160a01b0316856040516109709190610ca5565b600060405180830381855af49150503d80600081146109ab576040519150601f19603f3d011682016040523d82523d6000602084013e6109b0565b606091505b50915091506109c1868383876109cb565b9695505050505050565b60608315610a3a578251600003610a33576001600160a01b0385163b610a335760405162461bcd60e51b815260206004820152601d60248201527f416464726573733a2063616c6c20746f206e6f6e2d636f6e747261637400000060448201526064016101cb565b5081610a44565b610a448383610a4c565b949350505050565b815115610a5c5781518083602001fd5b8060405162461bcd60e51b81526004016101cb9190610cc1565b80356001600160a01b0381168114610a8d57600080fd5b919050565b600060208284031215610aa457600080fd5b61094c82610a76565b634e487b7160e01b600052604160045260246000fd5b60008060408385031215610ad657600080fd5b610adf83610a76565b9150602083013567ffffffffffffffff80821115610afc57600080fd5b818501915085601f830112610b1057600080fd5b813581811115610b2257610b22610aad565b604051601f8201601f19908116603f01168101908382118183101715610b4a57610b4a610aad565b81604052828152886020848701011115610b6357600080fd5b8260208601602083013760006020848301015280955050505050509250929050565b6020808252602c908201527f46756e6374696f6e206d7573742062652063616c6c6564207468726f7567682060408201526b19195b1959d85d1958d85b1b60a21b606082015260800190565b6020808252602c908201527f46756e6374696f6e206d7573742062652063616c6c6564207468726f7567682060408201526b6163746976652070726f787960a01b606082015260800190565b600060208284031215610c2f57600080fd5b5051919050565b6020808252602b908201527f496e697469616c697a61626c653a20636f6e7472616374206973206e6f74206960408201526a6e697469616c697a696e6760a81b606082015260800190565b60005b83811015610c9c578181015183820152602001610c84565b50506000910152565b60008251610cb7818460208701610c81565b9190910192915050565b6020815260008251806020840152610ce0816040850160208701610c81565b601f01601f1916919091016040019291505056fe360894a13ba1a3210667c828492db98dca3e2076cc3735a920a3ca505d382bbc416464726573733a206c6f772d6c6576656c2064656c65676174652063616c6c206661696c6564a2646970667358221220f63f17ca04f53307089688d5856fcc88b13b12d791a4e2938e9d4a0a976c990b64736f6c63430008130033",
    "linkReferences": {}
  },
  "methodIdentifiers": {
    "getNumber()": "f2c9ecd8",
    "initialize()": "8129fc1c",
    "owner()": "8da5cb5b",
    "proxiableUUID()": "52d1902d",
    "renounceOwnership()": "715018a6",
    "transferOwnership(address)": "f2fde38b",
    "upgradeTo(address)": "3659cfe6",
    "upgradeToAndCall(address,bytes)": "4f1ef286",
    "version()": "54fd4d50"
  },
  "id": 40
}