{
  "abi": [
    {
      "inputs": [],
      "stateMutability": "nonpayable",
      "type": "constructor"
    },
    {
      "anonymous": false,
      "inputs": [
        {
          "indexed": false,
          "internalType": "address",
          "name": "previousAdmin",
          "type": "address"
        },
        {
          "indexed": false,
          "internalType": "address",
          "name": "newAdmin",
          "type": "address"
        }
      ],
      "name": "AdminChanged",
      "type": "event"
    },
    {
      "anonymous": false,
      "inputs": [
        {
          "indexed": true,
          "internalType": "address",
          "name": "beacon",
          "type": "address"
        }
      ],
      "name": "BeaconUpgraded",
      "type": "event"
    },
    {
      "anonymous": false,
      "inputs": [
        {
          "indexed": false,
          "internalType": "uint8",
          "name": "version",
          "type": "uint8"
        }
      ],
      "name": "Initialized",
      "type": "event"
    },
    {
      "anonymous": false,
      "inputs": [
        {
          "indexed": true,
          "internalType": "address",
          "name": "previousOwner",
          "type": "address"
        },
        {
          "indexed": true,
          "internalType": "address",
          "name": "newOwner",
          "type": "address"
        }
      ],
      "name": "OwnershipTransferred",
      "type": "event"
    },
    {
      "anonymous": false,
      "inputs": [
        {
          "indexed": true,
          "internalType": "address",
          "name": "implementation",
          "type": "address"
        }
      ],
      "name": "Upgraded",
      "type": "event"
    },
    {
      "inputs": [],
      "name": "getNumber",
      "outputs": [
        {
          "internalType": "uint256",
          "name": "",
          "type": "uint256"
        }
      ],
      "stateMutability": "view",
      "type": "function"
    },
    {
      "inputs": [],
      "name": "initialize",
      "outputs": [],
      "stateMutability": "nonpayable",
      "type": "function"
    },
    {
      "inputs": [],
      "name": "owner",
      "outputs": [
        {
          "internalType": "address",
          "name": "",
          "type": "address"
        }
      ],
      "stateMutability": "view",
      "type": "function"
    },
    {
      "inputs": [],
      "name": "proxiableUUID",
      "outputs": [
        {
          "internalType": "bytes32",
          "name": "",
          "type": "bytes32"
        }
      ],
      "stateMutability": "view",
      "type": "function"
    },
    {
      "inputs": [],
      "name": "renounceOwnership",
      "outputs": [],
      "stateMutability": "nonpayable",
      "type": "function"
    },
    {
      "inputs": [
        {
          "internalType": "uint256",
          "name": "_number",
          "type": "uint256"
        }
      ],
      "name": "setNumber",
      "outputs": [],
      "stateMutability": "nonpayable",
      "type": "function"
    },
    {
      "inputs": [
        {
          "internalType": "address",
          "name": "newOwner",
          "type": "address"
        }
      ],
      "name": "transferOwnership",
      "outputs": [],
      "stateMutability": "nonpayable",
      "type": "function"
    },
    {
      "inputs": [
        {
          "internalType": "address",
          "name": "newImplementation",
          "type": "address"
        }
      ],
      "name": "upgradeTo",
      "outputs": [],
      "stateMutability": "nonpayable",
      "type": "function"
    },
    {
      "inputs": [
        {
          "internalType": "address",
          "name": "newImplementation",
          "type": "address"
        },
        {
          "internalType": "bytes",
          "name": "data",
          "type": "bytes"
        }
      ],
      "name": "upgradeToAndCall",
      "outputs": [],
      "stateMutability": "payable",
      "type": "function"
    },
    {
      "inputs": [],
      "name": "version",
      "outputs": [
        {
          "internalType": "uint256",
          "name": "",
          "type": "uint256"
        }
      ],
      "stateMutability": "pure",
      "type": "function"
    }
  ],
  "bytecode": {
    "object": "0x60a06040523060805234801561001457600080fd5b5061001d610022565b6100e1565b600054610100900460ff161561008e5760405162461bcd60e51b815260206004820152602760248201527f496e697469616c697a61626c653a20636f6e747261637420697320696e697469604482015266616c697a696e6760c81b606482015260840160405180910390fd5b60005460ff908116146100df576000805460ff191660ff9081179091556040519081527f7f26b83ff96e1f2b6a682f133852f6798a09c465da95921460cefb38474024989060200160405180910390a15b565b608051610db5610118600039600081816101b80152818161020101528181610297015281816102d701526103610152610db56000f3fe6080604052600436106100915760003560e01c8063715018a611610059578063715018a6146101275780638129fc1c1461013c5780638da5cb5b14610151578063f2c9ecd814610179578063f2fde38b1461018e57600080fd5b80633659cfe6146100965780633fb5c1cb146100b85780634f1ef286146100d857806352d1902d146100eb57806354fd4d5014610113575b600080fd5b3480156100a257600080fd5b506100b66100b1366004610abd565b6101ae565b005b3480156100c457600080fd5b506100b66100d3366004610ad8565b60c955565b6100b66100e6366004610b07565b61028d565b3480156100f757600080fd5b50610100610354565b6040519081526020015b60405180910390f35b34801561011f57600080fd5b506002610100565b34801561013357600080fd5b506100b6610407565b34801561014857600080fd5b506100b661041b565b34801561015d57600080fd5b506097546040516001600160a01b03909116815260200161010a565b34801561018557600080fd5b5060c954610100565b34801561019a57600080fd5b506100b66101a9366004610abd565b610533565b6001600160a01b037f00000000000000000000000000000000000000000000000000000000000000001630036101ff5760405162461bcd60e51b81526004016101f690610bc9565b60405180910390fd5b7f00000000000000000000000000000000000000000000000000000000000000006001600160a01b0316610248600080516020610d39833981519152546001600160a01b031690565b6001600160a01b03161461026e5760405162461bcd60e51b81526004016101f690610c15565b6040805160008082526020820190925261028a918391906105a9565b50565b6001600160a01b037f00000000000000000000000000000000000000000000000000000000000000001630036102d55760405162461bcd60e51b81526004016101f690610bc9565b7f00000000000000000000000000000000000000000000000000000000000000006001600160a01b031661031e600080516020610d39833981519152546001600160a01b031690565b6001600160a01b0316146103445760405162461bcd60e51b81526004016101f690610c15565b610350828260016105a9565b5050565b6000306001600160a01b037f000000000000000000000000000000000000000000000000000000000000000016146103f45760405162461bcd60e51b815260206004820152603860248201527f555550535570677261646561626c653a206d757374206e6f742062652063616c60448201527f6c6564207468726f7567682064656c656761746563616c6c000000000000000060648201526084016101f6565b50600080516020610d3983398151915290565b61040f610719565b6104196000610773565b565b600054610100900460ff161580801561043b5750600054600160ff909116105b806104555750303b158015610455575060005460ff166001145b6104b85760405162461bcd60e51b815260206004820152602e60248201527f496e697469616c697a61626c653a20636f6e747261637420697320616c72656160448201526d191e481a5b9a5d1a585b1a5e995960921b60648201526084016101f6565b6000805460ff1916600117905580156104db576000805461ff0019166101001790555b6104e36107c5565b6104eb6107f4565b801561028a576000805461ff0019169055604051600181527f7f26b83ff96e1f2b6a682f133852f6798a09c465da95921460cefb38474024989060200160405180910390a150565b61053b610719565b6001600160a01b0381166105a05760405162461bcd60e51b815260206004820152602660248201527f4f776e61626c653a206e6577206f776e657220697320746865207a65726f206160448201526564647265737360d01b60648201526084016101f6565b61028a81610773565b7f4910fdfa16fed3260ed0e7147f7cc6da11a60208b5b9406d12a635614ffd91435460ff16156105e1576105dc8361081b565b505050565b826001600160a01b03166352d1902d6040518163ffffffff1660e01b8152600401602060405180830381865afa92505050801561063b575060408051601f3d908101601f1916820190925261063891810190610c61565b60015b61069e5760405162461bcd60e51b815260206004820152602e60248201527f45524331393637557067726164653a206e657720696d706c656d656e7461746960448201526d6f6e206973206e6f74205555505360901b60648201526084016101f6565b600080516020610d39833981519152811461070d5760405162461bcd60e51b815260206004820152602960248201527f45524331393637557067726164653a20756e737570706f727465642070726f786044820152681a58589b195555525160ba1b60648201526084016101f6565b506105dc8383836108b7565b6097546001600160a01b031633146104195760405162461bcd60e51b815260206004820181905260248201527f4f776e61626c653a2063616c6c6572206973206e6f7420746865206f776e657260448201526064016101f6565b609780546001600160a01b038381166001600160a01b0319831681179093556040519116919082907f8be0079c531659141344cd1fd0a4f28419497f9722a3daafe3b4186f6b6457e090600090a35050565b600054610100900460ff166107ec5760405162461bcd60e51b81526004016101f690610c7a565b6104196108e2565b600054610100900460ff166104195760405162461bcd60e51b81526004016101f690610c7a565b6001600160a01b0381163b6108885760405162461bcd60e51b815260206004820152602d60248201527f455243313936373a206e657720696d706c656d656e746174696f6e206973206e60448201526c1bdd08184818dbdb9d1c9858dd609a1b60648201526084016101f6565b600080516020610d3983398151915280546001600160a01b0319166001600160a01b0392909216919091179055565b6108c083610912565b6000825111806108cd5750805b156105dc576108dc8383610952565b50505050565b600054610100900460ff166109095760405162461bcd60e51b81526004016101f690610c7a565b61041933610773565b61091b8161081b565b6040516001600160a01b038216907fbc7cd75a20ee27fd9adebab32041f755214dbc6bffa90cc0225b39da2e5c2d3b90600090a250565b60606109778383604051806060016040528060278152602001610d596027913961097e565b9392505050565b6060600080856001600160a01b03168560405161099b9190610ce9565b600060405180830381855af49150503d80600081146109d6576040519150601f19603f3d011682016040523d82523d6000602084013e6109db565b606091505b50915091506109ec868383876109f6565b9695505050505050565b60608315610a65578251600003610a5e576001600160a01b0385163b610a5e5760405162461bcd60e51b815260206004820152601d60248201527f416464726573733a2063616c6c20746f206e6f6e2d636f6e747261637400000060448201526064016101f6565b5081610a6f565b610a6f8383610a77565b949350505050565b815115610a875781518083602001fd5b8060405162461bcd60e51b81526004016101f69190610d05565b80356001600160a01b0381168114610ab857600080fd5b919050565b600060208284031215610acf57600080fd5b61097782610aa1565b600060208284031215610aea57600080fd5b5035919050565b634e487b7160e01b600052604160045260246000fd5b60008060408385031215610b1a57600080fd5b610b2383610aa1565b9150602083013567ffffffffffffffff80821115610b4057600080fd5b818501915085601f830112610b5457600080fd5b813581811115610b6657610b66610af1565b604051601f8201601f19908116603f01168101908382118183101715610b8e57610b8e610af1565b81604052828152886020848701011115610ba757600080fd5b8260208601602083013760006020848301015280955050505050509250929050565b6020808252602c908201527f46756e6374696f6e206d7573742062652063616c6c6564207468726f7567682060408201526b19195b1959d85d1958d85b1b60a21b606082015260800190565b6020808252602c908201527f46756e6374696f6e206d7573742062652063616c6c6564207468726f7567682060408201526b6163746976652070726f787960a01b606082015260800190565b600060208284031215610c7357600080fd5b5051919050565b6020808252602b908201527f496e697469616c697a61626c653a20636f6e7472616374206973206e6f74206960408201526a6e697469616c697a696e6760a81b606082015260800190565b60005b83811015610ce0578181015183820152602001610cc8565b50506000910152565b60008251610cfb818460208701610cc5565b9190910192915050565b6020815260008251806020840152610d24816040850160208701610cc5565b601f01601f1916919091016040019291505056fe360894a13ba1a3210667c828492db98dca3e2076cc3735a920a3ca505d382bbc416464726573733a206c6f772d6c6576656c2064656c65676174652063616c6c206661696c6564a264697066735822122052a097f0406432dbec2e29264417a227f7c4e27f3a46cacc95a9c8502dad3aec64736f6c63430008130033",
    "linkReferences": {}
  },
  "methodIdentifiers": {
    "getNumber()": "f2c9ecd8",
    "initialize()": "8129fc1c",
    "owner()": "8da5cb5b",
    "proxiableUUID()": "52d1902d",
    "renounceOwnership()": "715018a6",
    "setNumber(uint256)": "3fb5c1cb",
    "transferOwnership(address)": "f2fde38b",
    "upgradeTo(address)": "3659cfe6",
    "upgradeToAndCall(address,bytes)": "4f1ef286",
    "version()": "54fd4d50"
  },
  "id": 41
}