{
  "abi": [
    {
      "inputs": [
        {
          "internalType": "address",
          "name": "_owner",
          "type": "address"
        }
      ],
      "name": "balanceOf",
      "outputs": [
        {
          "internalType": "uint256",
          "name": "balance",
          "type": "uint256"
        }
      ],
      "stateMutability": "view",
      "type": "function"
    },
    {
      "inputs": [],
      "name": "decimals",
      "outputs": [
        {
          "internalType": "uint8",
          "name": "",
          "type": "uint8"
        }
      ],
      "stateMutability": "pure",
      "type": "function"
    },
    {
      "inputs": [],
      "name": "name",
      "outputs": [
        {
          "internalType": "string",
          "name": "",
          "type": "string"
        }
      ],
      "stateMutability": "view",
      "type": "function"
    },
    {
      "inputs": [],
      "name": "totalSupply",
      "outputs": [
        {
          "internalType": "uint256",
          "name": "",
          "type": "uint256"
        }
      ],
      "stateMutability": "pure",
      "type": "function"
    },
    {
      "inputs": [
        {
          "internalType": "address",
          "name": "_to",
          "type": "address"
        },
        {
          "internalType": "uint256",
          "name": "_amount",
          "type": "uint256"
        }
      ],
      "name": "transfer",
      "outputs": [],
      "stateMutability": "nonpayable",
      "type": "function"
    }
  ],
  "bytecode": {
    "object": "0x60c0604052600c60809081526b26b0b73ab0b6102a37b5b2b760a11b60a05260019061002b90826100dd565b5034801561003857600080fd5b5061019c565b634e487b7160e01b600052604160045260246000fd5b600181811c9082168061006857607f821691505b60208210810361008857634e487b7160e01b600052602260045260246000fd5b50919050565b601f8211156100d857600081815260208120601f850160051c810160208610156100b55750805b601f850160051c820191505b818110156100d4578281556001016100c1565b5050505b505050565b81516001600160401b038111156100f6576100f661003e565b61010a816101048454610054565b8461008e565b602080601f83116001811461013f57600084156101275750858301515b600019600386901b1c1916600185901b1785556100d4565b600085815260208120601f198616915b8281101561016e5788860151825594840194600190910190840161014f565b508582101561018c5787850151600019600388901b60f8161c191681555b5050505050600190811b01905550565b610391806101ab6000396000f3fe608060405234801561001057600080fd5b50600436106100575760003560e01c806306fdde031461005c57806318160ddd1461007a578063313ce5671461009357806370a08231146100a2578063a9059cbb146100cb575b600080fd5b6100646100e0565b6040516100719190610229565b60405180910390f35b68056bc75e2d631000005b604051908152602001610071565b60405160128152602001610071565b6100856100b0366004610293565b6001600160a01b031660009081526020819052604090205490565b6100de6100d93660046102b5565b61016e565b005b600180546100ed906102df565b80601f0160208091040260200160405190810160405280929190818152602001828054610119906102df565b80156101665780601f1061013b57610100808354040283529160200191610166565b820191906000526020600020905b81548152906001019060200180831161014957829003601f168201915b505050505081565b6001600160a01b0382166000908152602081905260408082205433835290822054610199919061032f565b336000908152602081905260408120805492935084929091906101bd908490610348565b90915550506001600160a01b038316600090815260208190526040812080548492906101ea90849061032f565b90915550506001600160a01b03831660009081526020819052604080822054338352912054829161021a9161032f565b1461022457600080fd5b505050565b600060208083528351808285015260005b818110156102565785810183015185820160400152820161023a565b506000604082860101526040601f19601f8301168501019250505092915050565b80356001600160a01b038116811461028e57600080fd5b919050565b6000602082840312156102a557600080fd5b6102ae82610277565b9392505050565b600080604083850312156102c857600080fd5b6102d183610277565b946020939093013593505050565b600181811c908216806102f357607f821691505b60208210810361031357634e487b7160e01b600052602260045260246000fd5b50919050565b634e487b7160e01b600052601160045260246000fd5b8082018082111561034257610342610319565b92915050565b818103818111156103425761034261031956fea264697066735822122032fee050c408dd6b847d4fdd554b9ea32b8c65493fff3264f494328f43315be164736f6c63430008130033",
    "linkReferences": {}
  },
  "methodIdentifiers": {
    "balanceOf(address)": "70a08231",
    "decimals()": "313ce567",
    "name()": "06fdde03",
    "totalSupply()": "18160ddd",
    "transfer(address,uint256)": "a9059cbb"
  },
  "id": 5
}