{"contracts/Raffle.sol":{"Raffle":{"abi":[{"inputs":[{"internalType":"address","name":"vrfCoordinatorV2","type":"address"},{"internalType":"uint256","name":"entranceFee","type":"uint256"},{"internalType":"bytes32","name":"gasLane","type":"bytes32"},{"internalType":"uint64","name":"subscriptionId","type":"uint64"},{"internalType":"uint32","name":"callbackGasLimit","type":"uint32"},{"internalType":"uint256","name":"interval","type":"uint256"}],"stateMutability":"nonpayable","type":"constructor"},{"inputs":[{"internalType":"address","name":"have","type":"address"},{"internalType":"address","name":"want","type":"address"}],"name":"OnlyCoordinatorCanFulfill","type":"error"},{"inputs":[],"name":"Raffle__NotEnoughETHEntered","type":"error"},{"inputs":[],"name":"Raffle__NotOpen","type":"error"},{"inputs":[],"name":"Raffle__TransferFailed","type":"error"},{"inputs":[{"internalType":"uint256","name":"currentBalance","type":"uint256"},{"internalType":"uint256","name":"numPlayers","type":"uint256"},{"internalType":"uint256","name":"raffleState","type":"uint256"}],"name":"Raffle__UpKeepNotNeeded","type":"error"},{"anonymous":false,"inputs":[{"indexed":true,"internalType":"address","name":"player","type":"address"}],"name":"RaffleEnter","type":"event"},{"anonymous":false,"inputs":[{"indexed":true,"internalType":"uint256","name":"requestId","type":"uint256"}],"name":"RequestedRaffleWinner","type":"event"},{"anonymous":false,"inputs":[{"indexed":true,"internalType":"address","name":"winner","type":"address"}],"name":"WinnerPicked","type":"event"},{"inputs":[{"internalType":"bytes","name":"","type":"bytes"}],"name":"checkUpkeep","outputs":[{"internalType":"bool","name":"upkeepNeeded","type":"bool"},{"internalType":"bytes","name":"","type":"bytes"}],"stateMutability":"nonpayable","type":"function"},{"inputs":[],"name":"enterRaffle","outputs":[],"stateMutability":"payable","type":"function"},{"inputs":[],"name":"getEntranceFee","outputs":[{"internalType":"uint256","name":"","type":"uint256"}],"stateMutability":"view","type":"function"},{"inputs":[],"name":"getNumWords","outputs":[{"internalType":"uint256","name":"","type":"uint256"}],"stateMutability":"view","type":"function"},{"inputs":[{"internalType":"uint256","name":"index","type":"uint256"}],"name":"getPlayer","outputs":[{"internalType":"address","name":"","type":"address"}],"stateMutability":"view","type":"function"},{"inputs":[],"name":"getRaffleState","outputs":[{"internalType":"enum Raffle.RaffleState","name":"","type":"uint8"}],"stateMutability":"view","type":"function"},{"inputs":[],"name":"getRecentWinner","outputs":[{"internalType":"address","name":"","type":"address"}],"stateMutability":"view","type":"function"},{"inputs":[{"internalType":"bytes","name":"","type":"bytes"}],"name":"performUpkeep","outputs":[],"stateMutability":"nonpayable","type":"function"},{"inputs":[{"internalType":"uint256","name":"requestId","type":"uint256"},{"internalType":"uint256[]","name":"randomWords","type":"uint256[]"}],"name":"rawFulfillRandomWords","outputs":[],"stateMutability":"nonpayable","type":"function"}],"devdoc":{"kind":"dev","methods":{"checkUpkeep(bytes)":{"details":"This is the function that the Chainlink Keeper nodes call They look for the`upkeepNeeded` to return true. The following should be true in order to return true. 1. Our time internal should have passed 2. The lottery should have at least 1 player, and have some ETH 3. Our subscription is funded with LINK 4. Lottery should be in an *open* state, and when it is requesting for a random number, it should be a *closed/calculating* state, to prevent people from joining during that time."}},"version":1},"evm":{"bytecode":{"linkReferences":{},"object":"610180604052600163ffffffff166101409063ffffffff168152503480156200002757600080fd5b506040516200172d3803806200172d83398181016040528101906200004d9190620002a9565b858073ffffffffffffffffffffffffffffffffffffffff1660808173ffffffffffffffffffffffffffffffffffffffff1681525050508460a081815250508573ffffffffffffffffffffffffffffffffffffffff1660c08173ffffffffffffffffffffffffffffffffffffffff16815250508360e081815250508267ffffffffffffffff166101008167ffffffffffffffff16815250508163ffffffff166101208163ffffffff16815250506000600160146101000a81548160ff0219169083600181111562000122576200012162000345565b5b02179055504260028190555080610160818152505050505050505062000374565b600080fd5b600073ffffffffffffffffffffffffffffffffffffffff82169050919050565b6000620001758262000148565b9050919050565b620001878162000168565b81146200019357600080fd5b50565b600081519050620001a7816200017c565b92915050565b6000819050919050565b620001c281620001ad565b8114620001ce57600080fd5b50565b600081519050620001e281620001b7565b92915050565b6000819050919050565b620001fd81620001e8565b81146200020957600080fd5b50565b6000815190506200021d81620001f2565b92915050565b600067ffffffffffffffff82169050919050565b620002428162000223565b81146200024e57600080fd5b50565b600081519050620002628162000237565b92915050565b600063ffffffff82169050919050565b620002838162000268565b81146200028f57600080fd5b50565b600081519050620002a38162000278565b92915050565b60008060008060008060c08789031215620002c957620002c862000143565b5b6000620002d989828a0162000196565b9650506020620002ec89828a01620001d1565b9550506040620002ff89828a016200020c565b94505060606200031289828a0162000251565b93505060806200032589828a0162000292565b92505060a06200033889828a01620001d1565b9150509295509295509295565b7f4e487b7100000000000000000000000000000000000000000000000000000000600052602160045260246000fd5b60805160a05160c05160e0516101005161012051610140516101605161133e620003ef60003960006107260152600081816105d401526106b9015260006105b3015260006105900152600061056f01526000610533015260008181610212015261030f01526000818161024f01526102a3015261133e6000f3fe6080604052600436106100865760003560e01c80634585e33b116100595780634585e33b14610114578063473f1ddc1461013d57806353a2c19a146101685780636e04ff0d14610193578063e55ae4e8146101d157610086565b806309bc33a71461008b578063115cbaf5146100b65780631fe543e3146100e15780632cfcc5391461010a575b600080fd5b34801561009757600080fd5b506100a061020e565b6040516100ad9190610ac8565b60405180910390f35b3480156100c257600080fd5b506100cb610236565b6040516100d89190610b5a565b60405180910390f35b3480156100ed57600080fd5b5061010860048036038101906101039190610d0e565b61024d565b005b61011261030d565b005b34801561012057600080fd5b5061013b60048036038101906101369190610dc5565b61047c565b005b34801561014957600080fd5b5061015261068b565b60405161015f9190610e53565b60405180910390f35b34801561017457600080fd5b5061017d6106b5565b60405161018a9190610ac8565b60405180910390f35b34801561019f57600080fd5b506101ba60048036038101906101b59190610f23565b6106e3565b6040516101c8929190611006565b60405180910390f35b3480156101dd57600080fd5b506101f860048036038101906101f39190611036565b610790565b6040516102059190610e53565b60405180910390f35b60007f0000000000000000000000000000000000000000000000000000000000000000905090565b6000600160149054906101000a900460ff16905090565b7f000000000000000000000000000000000000000000000000000000000000000073ffffffffffffffffffffffffffffffffffffffff163373ffffffffffffffffffffffffffffffffffffffff16146102ff57337f00000000000000000000000000000000000000000000000000000000000000006040517f1cf993f40000000000000000000000000000000000000000000000000000000081526004016102f6929190611063565b60405180910390fd5b61030982826107d7565b5050565b7f0000000000000000000000000000000000000000000000000000000000000000341015610367576040517fbd4e069500000000000000000000000000000000000000000000000000000000815260040160405180910390fd5b6000600181111561037b5761037a610ae3565b5b600160149054906101000a900460ff16600181111561039d5761039c610ae3565b5b146103d4576040517f1425571c00000000000000000000000000000000000000000000000000000000815260040160405180910390fd5b6000339080600181540180825580915050600190039060005260206000200160009091909190916101000a81548173ffffffffffffffffffffffffffffffffffffffff021916908373ffffffffffffffffffffffffffffffffffffffff1602179055503373ffffffffffffffffffffffffffffffffffffffff167f0805e1d667bddb8a95f0f09880cf94f403fb596ce79928d9f29b74203ba284d460405160405180910390a2565b6000610496604051806020016040528060008152506106e3565b509050806105055747600080549050600160149054906101000a900460ff1660018111156104c7576104c6610ae3565b5b6040517f3a8d60860000000000000000000000000000000000000000000000000000000081526004016104fc9392919061108c565b60405180910390fd5b60018060146101000a81548160ff0219169083600181111561052a57610529610ae3565b5b021790555060007f000000000000000000000000000000000000000000000000000000000000000073ffffffffffffffffffffffffffffffffffffffff16635d3b1d307f00000000000000000000000000000000000000000000000000000000000000007f000000000000000000000000000000000000000000000000000000000000000060037f00000000000000000000000000000000000000000000000000000000000000007f00000000000000000000000000000000000000000000000000000000000000006040518663ffffffff1660e01b815260040161061395949392919061113b565b6020604051808303816000875af1158015610632573d6000803e3d6000fd5b505050506040513d601f19601f8201168201806040525081019061065691906111a3565b9050807fcd6e45c8998311cab7e9d4385596cac867e20a0587194b954fa3a731c93ce78b60405160405180910390a250505050565b6000600160009054906101000a900473ffffffffffffffffffffffffffffffffffffffff16905090565b60007f000000000000000000000000000000000000000000000000000000000000000063ffffffff16905090565b600060606000600160149054906101000a900460ff16600181111561070b5761070a610ae3565b5b6000600181111561071f5761071e610ae3565b5b14905060007f00000000000000000000000000000000000000000000000000000000000000006002544261075391906111ff565b119050600080600080549050119050600080471190508380156107735750825b801561077c5750815b80156107855750805b955050505050915091565b60008082815481106107a5576107a4611233565b5b9060005260206000200160009054906101000a900473ffffffffffffffffffffffffffffffffffffffff169050919050565b60008080549050826000815181106107f2576107f1611233565b5b60200260200101516108049190611291565b9050600080828154811061081b5761081a611233565b5b9060005260206000200160009054906101000a900473ffffffffffffffffffffffffffffffffffffffff16905080600160006101000a81548173ffffffffffffffffffffffffffffffffffffffff021916908373ffffffffffffffffffffffffffffffffffffffff1602179055506000600160146101000a81548160ff021916908360018111156108af576108ae610ae3565b5b0217905550600067ffffffffffffffff8111156108cf576108ce610bcb565b5b6040519080825280602002602001820160405280156108fd5781602001602082028036833780820191505090505b5060009080519060200190610913929190610a08565b504260028190555060008173ffffffffffffffffffffffffffffffffffffffff1647604051610941906112f3565b60006040518083038185875af1925050503d806000811461097e576040519150601f19603f3d011682016040523d82523d6000602084013e610983565b606091505b50509050806109be576040517fa1d04b3900000000000000000000000000000000000000000000000000000000815260040160405180910390fd5b8173ffffffffffffffffffffffffffffffffffffffff167f5b690ec4a06fe979403046eaeea5b3ce38524683c3001f662c8b5a829632f7df60405160405180910390a25050505050565b828054828255906000526020600020908101928215610a81579160200282015b82811115610a805782518260006101000a81548173ffffffffffffffffffffffffffffffffffffffff021916908373ffffffffffffffffffffffffffffffffffffffff16021790555091602001919060010190610a28565b5b509050610a8e9190610a92565b5090565b5b80821115610aab576000816000905550600101610a93565b5090565b6000819050919050565b610ac281610aaf565b82525050565b6000602082019050610add6000830184610ab9565b92915050565b7f4e487b7100000000000000000000000000000000000000000000000000000000600052602160045260246000fd5b60028110610b2357610b22610ae3565b5b50565b6000819050610b3482610b12565b919050565b6000610b4482610b26565b9050919050565b610b5481610b39565b82525050565b6000602082019050610b6f6000830184610b4b565b92915050565b6000604051905090565b600080fd5b600080fd5b610b9281610aaf565b8114610b9d57600080fd5b50565b600081359050610baf81610b89565b92915050565b600080fd5b6000601f19601f8301169050919050565b7f4e487b7100000000000000000000000000000000000000000000000000000000600052604160045260246000fd5b610c0382610bba565b810181811067ffffffffffffffff82111715610c2257610c21610bcb565b5b80604052505050565b6000610c35610b75565b9050610c418282610bfa565b919050565b600067ffffffffffffffff821115610c6157610c60610bcb565b5b602082029050602081019050919050565b600080fd5b6000610c8a610c8584610c46565b610c2b565b90508083825260208201905060208402830185811115610cad57610cac610c72565b5b835b81811015610cd65780610cc28882610ba0565b845260208401935050602081019050610caf565b5050509392505050565b600082601f830112610cf557610cf4610bb5565b5b8135610d05848260208601610c77565b91505092915050565b60008060408385031215610d2557610d24610b7f565b5b6000610d3385828601610ba0565b925050602083013567ffffffffffffffff811115610d5457610d53610b84565b5b610d6085828601610ce0565b9150509250929050565b600080fd5b60008083601f840112610d8557610d84610bb5565b5b8235905067ffffffffffffffff811115610da257610da1610d6a565b5b602083019150836001820283011115610dbe57610dbd610c72565b5b9250929050565b60008060208385031215610ddc57610ddb610b7f565b5b600083013567ffffffffffffffff811115610dfa57610df9610b84565b5b610e0685828601610d6f565b92509250509250929050565b600073ffffffffffffffffffffffffffffffffffffffff82169050919050565b6000610e3d82610e12565b9050919050565b610e4d81610e32565b82525050565b6000602082019050610e686000830184610e44565b92915050565b600080fd5b600067ffffffffffffffff821115610e8e57610e8d610bcb565b5b610e9782610bba565b9050602081019050919050565b82818337600083830152505050565b6000610ec6610ec184610e73565b610c2b565b905082815260208101848484011115610ee257610ee1610e6e565b5b610eed848285610ea4565b509392505050565b600082601f830112610f0a57610f09610bb5565b5b8135610f1a848260208601610eb3565b91505092915050565b600060208284031215610f3957610f38610b7f565b5b600082013567ffffffffffffffff811115610f5757610f56610b84565b5b610f6384828501610ef5565b91505092915050565b60008115159050919050565b610f8181610f6c565b82525050565b600081519050919050565b600082825260208201905092915050565b60005b83811015610fc1578082015181840152602081019050610fa6565b60008484015250505050565b6000610fd882610f87565b610fe28185610f92565b9350610ff2818560208601610fa3565b610ffb81610bba565b840191505092915050565b600060408201905061101b6000830185610f78565b818103602083015261102d8184610fcd565b90509392505050565b60006020828403121561104c5761104b610b7f565b5b600061105a84828501610ba0565b91505092915050565b60006040820190506110786000830185610e44565b6110856020830184610e44565b9392505050565b60006060820190506110a16000830186610ab9565b6110ae6020830185610ab9565b6110bb6040830184610ab9565b949350505050565b6000819050919050565b6110d6816110c3565b82525050565b600067ffffffffffffffff82169050919050565b6110f9816110dc565b82525050565b600061ffff82169050919050565b611116816110ff565b82525050565b600063ffffffff82169050919050565b6111358161111c565b82525050565b600060a08201905061115060008301886110cd565b61115d60208301876110f0565b61116a604083018661110d565b611177606083018561112c565b611184608083018461112c565b9695505050505050565b60008151905061119d81610b89565b92915050565b6000602082840312156111b9576111b8610b7f565b5b60006111c78482850161118e565b91505092915050565b7f4e487b7100000000000000000000000000000000000000000000000000000000600052601160045260246000fd5b600061120a82610aaf565b915061121583610aaf565b925082820390508181111561122d5761122c6111d0565b5b92915050565b7f4e487b7100000000000000000000000000000000000000000000000000000000600052603260045260246000fd5b7f4e487b7100000000000000000000000000000000000000000000000000000000600052601260045260246000fd5b600061129c82610aaf565b91506112a783610aaf565b9250826112b7576112b6611262565b5b828206905092915050565b600081905092915050565b50565b60006112dd6000836112c2565b91506112e8826112cd565b600082019050919050565b60006112fe826112d0565b915081905091905056fea26469706673582212201becdc1801efee8aead59afd8f8d3dcb968a307960b49f480d377f7cff39621664736f6c63430008120033","opcodes":"PUSH2 0x180 PUSH1 0x40 MSTORE PUSH1 0x1 PUSH4 0xFFFFFFFF AND PUSH2 0x140 SWAP1 PUSH4 0xFFFFFFFF AND DUP2 MSTORE POP CALLVALUE DUP1 ISZERO PUSH3 0x27 JUMPI PUSH1 0x0 DUP1 REVERT JUMPDEST POP PUSH1 0x40 MLOAD PUSH3 0x172D CODESIZE SUB DUP1 PUSH3 0x172D DUP4 CODECOPY DUP2 DUP2 ADD PUSH1 0x40 MSTORE DUP2 ADD SWAP1 PUSH3 0x4D SWAP2 SWAP1 PUSH3 0x2A9 JUMP JUMPDEST DUP6 DUP1 PUSH20 0xFFFFFFFFFFFFFFFFFFFFFFFFFFFFFFFFFFFFFFFF AND PUSH1 0x80 DUP2 PUSH20 0xFFFFFFFFFFFFFFFFFFFFFFFFFFFFFFFFFFFFFFFF AND DUP2 MSTORE POP POP POP DUP5 PUSH1 0xA0 DUP2 DUP2 MSTORE POP POP DUP6 PUSH20 0xFFFFFFFFFFFFFFFFFFFFFFFFFFFFFFFFFFFFFFFF AND PUSH1 0xC0 DUP2 PUSH20 0xFFFFFFFFFFFFFFFFFFFFFFFFFFFFFFFFFFFFFFFF AND DUP2 MSTORE POP POP DUP4 PUSH1 0xE0 DUP2 DUP2 MSTORE POP POP DUP3 PUSH8 0xFFFFFFFFFFFFFFFF AND PUSH2 0x100 DUP2 PUSH8 0xFFFFFFFFFFFFFFFF AND DUP2 MSTORE POP POP DUP2 PUSH4 0xFFFFFFFF AND PUSH2 0x120 DUP2 PUSH4 0xFFFFFFFF AND DUP2 MSTORE POP POP PUSH1 0x0 PUSH1 0x1 PUSH1 0x14 PUSH2 0x100 EXP DUP2 SLOAD DUP2 PUSH1 0xFF MUL NOT AND SWAP1 DUP4 PUSH1 0x1 DUP2 GT ISZERO PUSH3 0x122 JUMPI PUSH3 0x121 PUSH3 0x345 JUMP JUMPDEST JUMPDEST MUL OR SWAP1 SSTORE POP TIMESTAMP PUSH1 0x2 DUP2 SWAP1 SSTORE POP DUP1 PUSH2 0x160 DUP2 DUP2 MSTORE POP POP POP POP POP POP POP POP PUSH3 0x374 JUMP JUMPDEST PUSH1 0x0 DUP1 REVERT JUMPDEST PUSH1 0x0 PUSH20 0xFFFFFFFFFFFFFFFFFFFFFFFFFFFFFFFFFFFFFFFF DUP3 AND SWAP1 POP SWAP2 SWAP1 POP JUMP JUMPDEST PUSH1 0x0 PUSH3 0x175 DUP3 PUSH3 0x148 JUMP JUMPDEST SWAP1 POP SWAP2 SWAP1 POP JUMP JUMPDEST PUSH3 0x187 DUP2 PUSH3 0x168 JUMP JUMPDEST DUP2 EQ PUSH3 0x193 JUMPI PUSH1 0x0 DUP1 REVERT JUMPDEST POP JUMP JUMPDEST PUSH1 0x0 DUP2 MLOAD SWAP1 POP PUSH3 0x1A7 DUP2 PUSH3 0x17C JUMP JUMPDEST SWAP3 SWAP2 POP POP JUMP JUMPDEST PUSH1 0x0 DUP2 SWAP1 POP SWAP2 SWAP1 POP JUMP JUMPDEST PUSH3 0x1C2 DUP2 PUSH3 0x1AD JUMP JUMPDEST DUP2 EQ PUSH3 0x1CE JUMPI PUSH1 0x0 DUP1 REVERT JUMPDEST POP JUMP JUMPDEST PUSH1 0x0 DUP2 MLOAD SWAP1 POP PUSH3 0x1E2 DUP2 PUSH3 0x1B7 JUMP JUMPDEST SWAP3 SWAP2 POP POP JUMP JUMPDEST PUSH1 0x0 DUP2 SWAP1 POP SWAP2 SWAP1 POP JUMP JUMPDEST PUSH3 0x1FD DUP2 PUSH3 0x1E8 JUMP JUMPDEST DUP2 EQ PUSH3 0x209 JUMPI PUSH1 0x0 DUP1 REVERT JUMPDEST POP JUMP JUMPDEST PUSH1 0x0 DUP2 MLOAD SWAP1 POP PUSH3 0x21D DUP2 PUSH3 0x1F2 JUMP JUMPDEST SWAP3 SWAP2 POP POP JUMP JUMPDEST PUSH1 0x0 PUSH8 0xFFFFFFFFFFFFFFFF DUP3 AND SWAP1 POP SWAP2 SWAP1 POP JUMP JUMPDEST PUSH3 0x242 DUP2 PUSH3 0x223 JUMP JUMPDEST DUP2 EQ PUSH3 0x24E JUMPI PUSH1 0x0 DUP1 REVERT JUMPDEST POP JUMP JUMPDEST PUSH1 0x0 DUP2 MLOAD SWAP1 POP PUSH3 0x262 DUP2 PUSH3 0x237 JUMP JUMPDEST SWAP3 SWAP2 POP POP JUMP JUMPDEST PUSH1 0x0 PUSH4 0xFFFFFFFF DUP3 AND SWAP1 POP SWAP2 SWAP1 POP JUMP JUMPDEST PUSH3 0x283 DUP2 PUSH3 0x268 JUMP JUMPDEST DUP2 EQ PUSH3 0x28F JUMPI PUSH1 0x0 DUP1 REVERT JUMPDEST POP JUMP JUMPDEST PUSH1 0x0 DUP2 MLOAD SWAP1 POP PUSH3 0x2A3 DUP2 PUSH3 0x278 JUMP JUMPDEST SWAP3 SWAP2 POP POP JUMP JUMPDEST PUSH1 0x0 DUP1 PUSH1 0x0 DUP1 PUSH1 0x0 DUP1 PUSH1 0xC0 DUP8 DUP10 SUB SLT ISZERO PUSH3 0x2C9 JUMPI PUSH3 0x2C8 PUSH3 0x143 JUMP JUMPDEST JUMPDEST PUSH1 0x0 PUSH3 0x2D9 DUP10 DUP3 DUP11 ADD PUSH3 0x196 JUMP JUMPDEST SWAP7 POP POP PUSH1 0x20 PUSH3 0x2EC DUP10 DUP3 DUP11 ADD PUSH3 0x1D1 JUMP JUMPDEST SWAP6 POP POP PUSH1 0x40 PUSH3 0x2FF DUP10 DUP3 DUP11 ADD PUSH3 0x20C JUMP JUMPDEST SWAP5 POP POP PUSH1 0x60 PUSH3 0x312 DUP10 DUP3 DUP11 ADD PUSH3 0x251 JUMP JUMPDEST SWAP4 POP POP PUSH1 0x80 PUSH3 0x325 DUP10 DUP3 DUP11 ADD PUSH3 0x292 JUMP JUMPDEST SWAP3 POP POP PUSH1 0xA0 PUSH3 0x338 DUP10 DUP3 DUP11 ADD PUSH3 0x1D1 JUMP JUMPDEST SWAP2 POP POP SWAP3 SWAP6 POP SWAP3 SWAP6 POP SWAP3 SWAP6 JUMP JUMPDEST PUSH32 0x4E487B7100000000000000000000000000000000000000000000000000000000 PUSH1 0x0 MSTORE PUSH1 0x21 PUSH1 0x4 MSTORE PUSH1 0x24 PUSH1 0x0 REVERT JUMPDEST PUSH1 0x80 MLOAD PUSH1 0xA0 MLOAD PUSH1 0xC0 MLOAD PUSH1 0xE0 MLOAD PUSH2 0x100 MLOAD PUSH2 0x120 MLOAD PUSH2 0x140 MLOAD PUSH2 0x160 MLOAD PUSH2 0x133E PUSH3 0x3EF PUSH1 0x0 CODECOPY PUSH1 0x0 PUSH2 0x726 ADD MSTORE PUSH1 0x0 DUP2 DUP2 PUSH2 0x5D4 ADD MSTORE PUSH2 0x6B9 ADD MSTORE PUSH1 0x0 PUSH2 0x5B3 ADD MSTORE PUSH1 0x0 PUSH2 0x590 ADD MSTORE PUSH1 0x0 PUSH2 0x56F ADD MSTORE PUSH1 0x0 PUSH2 0x533 ADD MSTORE PUSH1 0x0 DUP2 DUP2 PUSH2 0x212 ADD MSTORE PUSH2 0x30F ADD MSTORE PUSH1 0x0 DUP2 DUP2 PUSH2 0x24F ADD MSTORE PUSH2 0x2A3 ADD MSTORE PUSH2 0x133E PUSH1 0x0 RETURN INVALID PUSH1 0x80 PUSH1 0x40 MSTORE PUSH1 0x4 CALLDATASIZE LT PUSH2 0x86 JUMPI PUSH1 0x0 CALLDATALOAD PUSH1 0xE0 SHR DUP1 PUSH4 0x4585E33B GT PUSH2 0x59 JUMPI DUP1 PUSH4 0x4585E33B EQ PUSH2 0x114 JUMPI DUP1 PUSH4 0x473F1DDC EQ PUSH2 0x13D JUMPI DUP1 PUSH4 0x53A2C19A EQ PUSH2 0x168 JUMPI DUP1 PUSH4 0x6E04FF0D EQ PUSH2 0x193 JUMPI DUP1 PUSH4 0xE55AE4E8 EQ PUSH2 0x1D1 JUMPI PUSH2 0x86 JUMP JUMPDEST DUP1 PUSH4 0x9BC33A7 EQ PUSH2 0x8B JUMPI DUP1 PUSH4 0x115CBAF5 EQ PUSH2 0xB6 JUMPI DUP1 PUSH4 0x1FE543E3 EQ PUSH2 0xE1 JUMPI DUP1 PUSH4 0x2CFCC539 EQ PUSH2 0x10A JUMPI JUMPDEST PUSH1 0x0 DUP1 REVERT JUMPDEST CALLVALUE DUP1 ISZERO PUSH2 0x97 JUMPI PUSH1 0x0 DUP1 REVERT JUMPDEST POP PUSH2 0xA0 PUSH2 0x20E JUMP JUMPDEST PUSH1 0x40 MLOAD PUSH2 0xAD SWAP2 SWAP1 PUSH2 0xAC8 JUMP JUMPDEST PUSH1 0x40 MLOAD DUP1 SWAP2 SUB SWAP1 RETURN JUMPDEST CALLVALUE DUP1 ISZERO PUSH2 0xC2 JUMPI PUSH1 0x0 DUP1 REVERT JUMPDEST POP PUSH2 0xCB PUSH2 0x236 JUMP JUMPDEST PUSH1 0x40 MLOAD PUSH2 0xD8 SWAP2 SWAP1 PUSH2 0xB5A JUMP JUMPDEST PUSH1 0x40 MLOAD DUP1 SWAP2 SUB SWAP1 RETURN JUMPDEST CALLVALUE DUP1 ISZERO PUSH2 0xED JUMPI PUSH1 0x0 DUP1 REVERT JUMPDEST POP PUSH2 0x108 PUSH1 0x4 DUP1 CALLDATASIZE SUB DUP2 ADD SWAP1 PUSH2 0x103 SWAP2 SWAP1 PUSH2 0xD0E JUMP JUMPDEST PUSH2 0x24D JUMP JUMPDEST STOP JUMPDEST PUSH2 0x112 PUSH2 0x30D JUMP JUMPDEST STOP JUMPDEST CALLVALUE DUP1 ISZERO PUSH2 0x120 JUMPI PUSH1 0x0 DUP1 REVERT JUMPDEST POP PUSH2 0x13B PUSH1 0x4 DUP1 CALLDATASIZE SUB DUP2 ADD SWAP1 PUSH2 0x136 SWAP2 SWAP1 PUSH2 0xDC5 JUMP JUMPDEST PUSH2 0x47C JUMP JUMPDEST STOP JUMPDEST CALLVALUE DUP1 ISZERO PUSH2 0x149 JUMPI PUSH1 0x0 DUP1 REVERT JUMPDEST POP PUSH2 0x152 PUSH2 0x68B JUMP JUMPDEST PUSH1 0x40 MLOAD PUSH2 0x15F SWAP2 SWAP1 PUSH2 0xE53 JUMP JUMPDEST PUSH1 0x40 MLOAD DUP1 SWAP2 SUB SWAP1 RETURN JUMPDEST CALLVALUE DUP1 ISZERO PUSH2 0x174 JUMPI PUSH1 0x0 DUP1 REVERT JUMPDEST POP PUSH2 0x17D PUSH2 0x6B5 JUMP JUMPDEST PUSH1 0x40 MLOAD PUSH2 0x18A SWAP2 SWAP1 PUSH2 0xAC8 JUMP JUMPDEST PUSH1 0x40 MLOAD DUP1 SWAP2 SUB SWAP1 RETURN JUMPDEST CALLVALUE DUP1 ISZERO PUSH2 0x19F JUMPI PUSH1 0x0 DUP1 REVERT JUMPDEST POP PUSH2 0x1BA PUSH1 0x4 DUP1 CALLDATASIZE SUB DUP2 ADD SWAP1 PUSH2 0x1B5 SWAP2 SWAP1 PUSH2 0xF23 JUMP JUMPDEST PUSH2 0x6E3 JUMP JUMPDEST PUSH1 0x40 MLOAD PUSH2 0x1C8 SWAP3 SWAP2 SWAP1 PUSH2 0x1006 JUMP JUMPDEST PUSH1 0x40 MLOAD DUP1 SWAP2 SUB SWAP1 RETURN JUMPDEST CALLVALUE DUP1 ISZERO PUSH2 0x1DD JUMPI PUSH1 0x0 DUP1 REVERT JUMPDEST POP PUSH2 0x1F8 PUSH1 0x4 DUP1 CALLDATASIZE SUB DUP2 ADD SWAP1 PUSH2 0x1F3 SWAP2 SWAP1 PUSH2 0x1036 JUMP JUMPDEST PUSH2 0x790 JUMP JUMPDEST PUSH1 0x40 MLOAD PUSH2 0x205 SWAP2 SWAP1 PUSH2 0xE53 JUMP JUMPDEST PUSH1 0x40 MLOAD DUP1 SWAP2 SUB SWAP1 RETURN JUMPDEST PUSH1 0x0 PUSH32 0x0 SWAP1 POP SWAP1 JUMP JUMPDEST PUSH1 0x0 PUSH1 0x1 PUSH1 0x14 SWAP1 SLOAD SWAP1 PUSH2 0x100 EXP SWAP1 DIV PUSH1 0xFF AND SWAP1 POP SWAP1 JUMP JUMPDEST PUSH32 0x0 PUSH20 0xFFFFFFFFFFFFFFFFFFFFFFFFFFFFFFFFFFFFFFFF AND CALLER PUSH20 0xFFFFFFFFFFFFFFFFFFFFFFFFFFFFFFFFFFFFFFFF AND EQ PUSH2 0x2FF JUMPI CALLER PUSH32 0x0 PUSH1 0x40 MLOAD PUSH32 0x1CF993F400000000000000000000000000000000000000000000000000000000 DUP2 MSTORE PUSH1 0x4 ADD PUSH2 0x2F6 SWAP3 SWAP2 SWAP1 PUSH2 0x1063 JUMP JUMPDEST PUSH1 0x40 MLOAD DUP1 SWAP2 SUB SWAP1 REVERT JUMPDEST PUSH2 0x309 DUP3 DUP3 PUSH2 0x7D7 JUMP JUMPDEST POP POP JUMP JUMPDEST PUSH32 0x0 CALLVALUE LT ISZERO PUSH2 0x367 JUMPI PUSH1 0x40 MLOAD PUSH32 0xBD4E069500000000000000000000000000000000000000000000000000000000 DUP2 MSTORE PUSH1 0x4 ADD PUSH1 0x40 MLOAD DUP1 SWAP2 SUB SWAP1 REVERT JUMPDEST PUSH1 0x0 PUSH1 0x1 DUP2 GT ISZERO PUSH2 0x37B JUMPI PUSH2 0x37A PUSH2 0xAE3 JUMP JUMPDEST JUMPDEST PUSH1 0x1 PUSH1 0x14 SWAP1 SLOAD SWAP1 PUSH2 0x100 EXP SWAP1 DIV PUSH1 0xFF AND PUSH1 0x1 DUP2 GT ISZERO PUSH2 0x39D JUMPI PUSH2 0x39C PUSH2 0xAE3 JUMP JUMPDEST JUMPDEST EQ PUSH2 0x3D4 JUMPI PUSH1 0x40 MLOAD PUSH32 0x1425571C00000000000000000000000000000000000000000000000000000000 DUP2 MSTORE PUSH1 0x4 ADD PUSH1 0x40 MLOAD DUP1 SWAP2 SUB SWAP1 REVERT JUMPDEST PUSH1 0x0 CALLER SWAP1 DUP1 PUSH1 0x1 DUP2 SLOAD ADD DUP1 DUP3 SSTORE DUP1 SWAP2 POP POP PUSH1 0x1 SWAP1 SUB SWAP1 PUSH1 0x0 MSTORE PUSH1 0x20 PUSH1 0x0 KECCAK256 ADD PUSH1 0x0 SWAP1 SWAP2 SWAP1 SWAP2 SWAP1 SWAP2 PUSH2 0x100 EXP DUP2 SLOAD DUP2 PUSH20 0xFFFFFFFFFFFFFFFFFFFFFFFFFFFFFFFFFFFFFFFF MUL NOT AND SWAP1 DUP4 PUSH20 0xFFFFFFFFFFFFFFFFFFFFFFFFFFFFFFFFFFFFFFFF AND MUL OR SWAP1 SSTORE POP CALLER PUSH20 0xFFFFFFFFFFFFFFFFFFFFFFFFFFFFFFFFFFFFFFFF AND PUSH32 0x805E1D667BDDB8A95F0F09880CF94F403FB596CE79928D9F29B74203BA284D4 PUSH1 0x40 MLOAD PUSH1 0x40 MLOAD DUP1 SWAP2 SUB SWAP1 LOG2 JUMP JUMPDEST PUSH1 0x0 PUSH2 0x496 PUSH1 0x40 MLOAD DUP1 PUSH1 0x20 ADD PUSH1 0x40 MSTORE DUP1 PUSH1 0x0 DUP2 MSTORE POP PUSH2 0x6E3 JUMP JUMPDEST POP SWAP1 POP DUP1 PUSH2 0x505 JUMPI SELFBALANCE PUSH1 0x0 DUP1 SLOAD SWAP1 POP PUSH1 0x1 PUSH1 0x14 SWAP1 SLOAD SWAP1 PUSH2 0x100 EXP SWAP1 DIV PUSH1 0xFF AND PUSH1 0x1 DUP2 GT ISZERO PUSH2 0x4C7 JUMPI PUSH2 0x4C6 PUSH2 0xAE3 JUMP JUMPDEST JUMPDEST PUSH1 0x40 MLOAD PUSH32 0x3A8D608600000000000000000000000000000000000000000000000000000000 DUP2 MSTORE PUSH1 0x4 ADD PUSH2 0x4FC SWAP4 SWAP3 SWAP2 SWAP1 PUSH2 0x108C JUMP JUMPDEST PUSH1 0x40 MLOAD DUP1 SWAP2 SUB SWAP1 REVERT JUMPDEST PUSH1 0x1 DUP1 PUSH1 0x14 PUSH2 0x100 EXP DUP2 SLOAD DUP2 PUSH1 0xFF MUL NOT AND SWAP1 DUP4 PUSH1 0x1 DUP2 GT ISZERO PUSH2 0x52A JUMPI PUSH2 0x529 PUSH2 0xAE3 JUMP JUMPDEST JUMPDEST MUL OR SWAP1 SSTORE POP PUSH1 0x0 PUSH32 0x0 PUSH20 0xFFFFFFFFFFFFFFFFFFFFFFFFFFFFFFFFFFFFFFFF AND PUSH4 0x5D3B1D30 PUSH32 0x0 PUSH32 0x0 PUSH1 0x3 PUSH32 0x0 PUSH32 0x0 PUSH1 0x40 MLOAD DUP7 PUSH4 0xFFFFFFFF AND PUSH1 0xE0 SHL DUP2 MSTORE PUSH1 0x4 ADD PUSH2 0x613 SWAP6 SWAP5 SWAP4 SWAP3 SWAP2 SWAP1 PUSH2 0x113B JUMP JUMPDEST PUSH1 0x20 PUSH1 0x40 MLOAD DUP1 DUP4 SUB DUP2 PUSH1 0x0 DUP8 GAS CALL ISZERO DUP1 ISZERO PUSH2 0x632 JUMPI RETURNDATASIZE PUSH1 0x0 DUP1 RETURNDATACOPY RETURNDATASIZE PUSH1 0x0 REVERT JUMPDEST POP POP POP POP PUSH1 0x40 MLOAD RETURNDATASIZE PUSH1 0x1F NOT PUSH1 0x1F DUP3 ADD AND DUP3 ADD DUP1 PUSH1 0x40 MSTORE POP DUP2 ADD SWAP1 PUSH2 0x656 SWAP2 SWAP1 PUSH2 0x11A3 JUMP JUMPDEST SWAP1 POP DUP1 PUSH32 0xCD6E45C8998311CAB7E9D4385596CAC867E20A0587194B954FA3A731C93CE78B PUSH1 0x40 MLOAD PUSH1 0x40 MLOAD DUP1 SWAP2 SUB SWAP1 LOG2 POP POP POP POP JUMP JUMPDEST PUSH1 0x0 PUSH1 0x1 PUSH1 0x0 SWAP1 SLOAD SWAP1 PUSH2 0x100 EXP SWAP1 DIV PUSH20 0xFFFFFFFFFFFFFFFFFFFFFFFFFFFFFFFFFFFFFFFF AND SWAP1 POP SWAP1 JUMP JUMPDEST PUSH1 0x0 PUSH32 0x0 PUSH4 0xFFFFFFFF AND SWAP1 POP SWAP1 JUMP JUMPDEST PUSH1 0x0 PUSH1 0x60 PUSH1 0x0 PUSH1 0x1 PUSH1 0x14 SWAP1 SLOAD SWAP1 PUSH2 0x100 EXP SWAP1 DIV PUSH1 0xFF AND PUSH1 0x1 DUP2 GT ISZERO PUSH2 0x70B JUMPI PUSH2 0x70A PUSH2 0xAE3 JUMP JUMPDEST JUMPDEST PUSH1 0x0 PUSH1 0x1 DUP2 GT ISZERO PUSH2 0x71F JUMPI PUSH2 0x71E PUSH2 0xAE3 JUMP JUMPDEST JUMPDEST EQ SWAP1 POP PUSH1 0x0 PUSH32 0x0 PUSH1 0x2 SLOAD TIMESTAMP PUSH2 0x753 SWAP2 SWAP1 PUSH2 0x11FF JUMP JUMPDEST GT SWAP1 POP PUSH1 0x0 DUP1 PUSH1 0x0 DUP1 SLOAD SWAP1 POP GT SWAP1 POP PUSH1 0x0 DUP1 SELFBALANCE GT SWAP1 POP DUP4 DUP1 ISZERO PUSH2 0x773 JUMPI POP DUP3 JUMPDEST DUP1 ISZERO PUSH2 0x77C JUMPI POP DUP2 JUMPDEST DUP1 ISZERO PUSH2 0x785 JUMPI POP DUP1 JUMPDEST SWAP6 POP POP POP POP POP SWAP2 POP SWAP2 JUMP JUMPDEST PUSH1 0x0 DUP1 DUP3 DUP2 SLOAD DUP2 LT PUSH2 0x7A5 JUMPI PUSH2 0x7A4 PUSH2 0x1233 JUMP JUMPDEST JUMPDEST SWAP1 PUSH1 0x0 MSTORE PUSH1 0x20 PUSH1 0x0 KECCAK256 ADD PUSH1 0x0 SWAP1 SLOAD SWAP1 PUSH2 0x100 EXP SWAP1 DIV PUSH20 0xFFFFFFFFFFFFFFFFFFFFFFFFFFFFFFFFFFFFFFFF AND SWAP1 POP SWAP2 SWAP1 POP JUMP JUMPDEST PUSH1 0x0 DUP1 DUP1 SLOAD SWAP1 POP DUP3 PUSH1 0x0 DUP2 MLOAD DUP2 LT PUSH2 0x7F2 JUMPI PUSH2 0x7F1 PUSH2 0x1233 JUMP JUMPDEST JUMPDEST PUSH1 0x20 MUL PUSH1 0x20 ADD ADD MLOAD PUSH2 0x804 SWAP2 SWAP1 PUSH2 0x1291 JUMP JUMPDEST SWAP1 POP PUSH1 0x0 DUP1 DUP3 DUP2 SLOAD DUP2 LT PUSH2 0x81B JUMPI PUSH2 0x81A PUSH2 0x1233 JUMP JUMPDEST JUMPDEST SWAP1 PUSH1 0x0 MSTORE PUSH1 0x20 PUSH1 0x0 KECCAK256 ADD PUSH1 0x0 SWAP1 SLOAD SWAP1 PUSH2 0x100 EXP SWAP1 DIV PUSH20 0xFFFFFFFFFFFFFFFFFFFFFFFFFFFFFFFFFFFFFFFF AND SWAP1 POP DUP1 PUSH1 0x1 PUSH1 0x0 PUSH2 0x100 EXP DUP2 SLOAD DUP2 PUSH20 0xFFFFFFFFFFFFFFFFFFFFFFFFFFFFFFFFFFFFFFFF MUL NOT AND SWAP1 DUP4 PUSH20 0xFFFFFFFFFFFFFFFFFFFFFFFFFFFFFFFFFFFFFFFF AND MUL OR SWAP1 SSTORE POP PUSH1 0x0 PUSH1 0x1 PUSH1 0x14 PUSH2 0x100 EXP DUP2 SLOAD DUP2 PUSH1 0xFF MUL NOT AND SWAP1 DUP4 PUSH1 0x1 DUP2 GT ISZERO PUSH2 0x8AF JUMPI PUSH2 0x8AE PUSH2 0xAE3 JUMP JUMPDEST JUMPDEST MUL OR SWAP1 SSTORE POP PUSH1 0x0 PUSH8 0xFFFFFFFFFFFFFFFF DUP2 GT ISZERO PUSH2 0x8CF JUMPI PUSH2 0x8CE PUSH2 0xBCB JUMP JUMPDEST JUMPDEST PUSH1 0x40 MLOAD SWAP1 DUP1 DUP3 MSTORE DUP1 PUSH1 0x20 MUL PUSH1 0x20 ADD DUP3 ADD PUSH1 0x40 MSTORE DUP1 ISZERO PUSH2 0x8FD JUMPI DUP2 PUSH1 0x20 ADD PUSH1 0x20 DUP3 MUL DUP1 CALLDATASIZE DUP4 CALLDATACOPY DUP1 DUP3 ADD SWAP2 POP POP SWAP1 POP JUMPDEST POP PUSH1 0x0 SWAP1 DUP1 MLOAD SWAP1 PUSH1 0x20 ADD SWAP1 PUSH2 0x913 SWAP3 SWAP2 SWAP1 PUSH2 0xA08 JUMP JUMPDEST POP TIMESTAMP PUSH1 0x2 DUP2 SWAP1 SSTORE POP PUSH1 0x0 DUP2 PUSH20 0xFFFFFFFFFFFFFFFFFFFFFFFFFFFFFFFFFFFFFFFF AND SELFBALANCE PUSH1 0x40 MLOAD PUSH2 0x941 SWAP1 PUSH2 0x12F3 JUMP JUMPDEST PUSH1 0x0 PUSH1 0x40 MLOAD DUP1 DUP4 SUB DUP2 DUP6 DUP8 GAS CALL SWAP3 POP POP POP RETURNDATASIZE DUP1 PUSH1 0x0 DUP2 EQ PUSH2 0x97E JUMPI PUSH1 0x40 MLOAD SWAP2 POP PUSH1 0x1F NOT PUSH1 0x3F RETURNDATASIZE ADD AND DUP3 ADD PUSH1 0x40 MSTORE RETURNDATASIZE DUP3 MSTORE RETURNDATASIZE PUSH1 0x0 PUSH1 0x20 DUP5 ADD RETURNDATACOPY PUSH2 0x983 JUMP JUMPDEST PUSH1 0x60 SWAP2 POP JUMPDEST POP POP SWAP1 POP DUP1 PUSH2 0x9BE JUMPI PUSH1 0x40 MLOAD PUSH32 0xA1D04B3900000000000000000000000000000000000000000000000000000000 DUP2 MSTORE PUSH1 0x4 ADD PUSH1 0x40 MLOAD DUP1 SWAP2 SUB SWAP1 REVERT JUMPDEST DUP2 PUSH20 0xFFFFFFFFFFFFFFFFFFFFFFFFFFFFFFFFFFFFFFFF AND PUSH32 0x5B690EC4A06FE979403046EAEEA5B3CE38524683C3001F662C8B5A829632F7DF PUSH1 0x40 MLOAD PUSH1 0x40 MLOAD DUP1 SWAP2 SUB SWAP1 LOG2 POP POP POP POP POP JUMP JUMPDEST DUP3 DUP1 SLOAD DUP3 DUP3 SSTORE SWAP1 PUSH1 0x0 MSTORE PUSH1 0x20 PUSH1 0x0 KECCAK256 SWAP1 DUP2 ADD SWAP3 DUP3 ISZERO PUSH2 0xA81 JUMPI SWAP2 PUSH1 0x20 MUL DUP3 ADD JUMPDEST DUP3 DUP2 GT ISZERO PUSH2 0xA80 JUMPI DUP3 MLOAD DUP3 PUSH1 0x0 PUSH2 0x100 EXP DUP2 SLOAD DUP2 PUSH20 0xFFFFFFFFFFFFFFFFFFFFFFFFFFFFFFFFFFFFFFFF MUL NOT AND SWAP1 DUP4 PUSH20 0xFFFFFFFFFFFFFFFFFFFFFFFFFFFFFFFFFFFFFFFF AND MUL OR SWAP1 SSTORE POP SWAP2 PUSH1 0x20 ADD SWAP2 SWAP1 PUSH1 0x1 ADD SWAP1 PUSH2 0xA28 JUMP JUMPDEST JUMPDEST POP SWAP1 POP PUSH2 0xA8E SWAP2 SWAP1 PUSH2 0xA92 JUMP JUMPDEST POP SWAP1 JUMP JUMPDEST JUMPDEST DUP1 DUP3 GT ISZERO PUSH2 0xAAB JUMPI PUSH1 0x0 DUP2 PUSH1 0x0 SWAP1 SSTORE POP PUSH1 0x1 ADD PUSH2 0xA93 JUMP JUMPDEST POP SWAP1 JUMP JUMPDEST PUSH1 0x0 DUP2 SWAP1 POP SWAP2 SWAP1 POP JUMP JUMPDEST PUSH2 0xAC2 DUP2 PUSH2 0xAAF JUMP JUMPDEST DUP3 MSTORE POP POP JUMP JUMPDEST PUSH1 0x0 PUSH1 0x20 DUP3 ADD SWAP1 POP PUSH2 0xADD PUSH1 0x0 DUP4 ADD DUP5 PUSH2 0xAB9 JUMP JUMPDEST SWAP3 SWAP2 POP POP JUMP JUMPDEST PUSH32 0x4E487B7100000000000000000000000000000000000000000000000000000000 PUSH1 0x0 MSTORE PUSH1 0x21 PUSH1 0x4 MSTORE PUSH1 0x24 PUSH1 0x0 REVERT JUMPDEST PUSH1 0x2 DUP2 LT PUSH2 0xB23 JUMPI PUSH2 0xB22 PUSH2 0xAE3 JUMP JUMPDEST JUMPDEST POP JUMP JUMPDEST PUSH1 0x0 DUP2 SWAP1 POP PUSH2 0xB34 DUP3 PUSH2 0xB12 JUMP JUMPDEST SWAP2 SWAP1 POP JUMP JUMPDEST PUSH1 0x0 PUSH2 0xB44 DUP3 PUSH2 0xB26 JUMP JUMPDEST SWAP1 POP SWAP2 SWAP1 POP JUMP JUMPDEST PUSH2 0xB54 DUP2 PUSH2 0xB39 JUMP JUMPDEST DUP3 MSTORE POP POP JUMP JUMPDEST PUSH1 0x0 PUSH1 0x20 DUP3 ADD SWAP1 POP PUSH2 0xB6F PUSH1 0x0 DUP4 ADD DUP5 PUSH2 0xB4B JUMP JUMPDEST SWAP3 SWAP2 POP POP JUMP JUMPDEST PUSH1 0x0 PUSH1 0x40 MLOAD SWAP1 POP SWAP1 JUMP JUMPDEST PUSH1 0x0 DUP1 REVERT JUMPDEST PUSH1 0x0 DUP1 REVERT JUMPDEST PUSH2 0xB92 DUP2 PUSH2 0xAAF JUMP JUMPDEST DUP2 EQ PUSH2 0xB9D JUMPI PUSH1 0x0 DUP1 REVERT JUMPDEST POP JUMP JUMPDEST PUSH1 0x0 DUP2 CALLDATALOAD SWAP1 POP PUSH2 0xBAF DUP2 PUSH2 0xB89 JUMP JUMPDEST SWAP3 SWAP2 POP POP JUMP JUMPDEST PUSH1 0x0 DUP1 REVERT JUMPDEST PUSH1 0x0 PUSH1 0x1F NOT PUSH1 0x1F DUP4 ADD AND SWAP1 POP SWAP2 SWAP1 POP JUMP JUMPDEST PUSH32 0x4E487B7100000000000000000000000000000000000000000000000000000000 PUSH1 0x0 MSTORE PUSH1 0x41 PUSH1 0x4 MSTORE PUSH1 0x24 PUSH1 0x0 REVERT JUMPDEST PUSH2 0xC03 DUP3 PUSH2 0xBBA JUMP JUMPDEST DUP2 ADD DUP2 DUP2 LT PUSH8 0xFFFFFFFFFFFFFFFF DUP3 GT OR ISZERO PUSH2 0xC22 JUMPI PUSH2 0xC21 PUSH2 0xBCB JUMP JUMPDEST JUMPDEST DUP1 PUSH1 0x40 MSTORE POP POP POP JUMP JUMPDEST PUSH1 0x0 PUSH2 0xC35 PUSH2 0xB75 JUMP JUMPDEST SWAP1 POP PUSH2 0xC41 DUP3 DUP3 PUSH2 0xBFA JUMP JUMPDEST SWAP2 SWAP1 POP JUMP JUMPDEST PUSH1 0x0 PUSH8 0xFFFFFFFFFFFFFFFF DUP3 GT ISZERO PUSH2 0xC61 JUMPI PUSH2 0xC60 PUSH2 0xBCB JUMP JUMPDEST JUMPDEST PUSH1 0x20 DUP3 MUL SWAP1 POP PUSH1 0x20 DUP2 ADD SWAP1 POP SWAP2 SWAP1 POP JUMP JUMPDEST PUSH1 0x0 DUP1 REVERT JUMPDEST PUSH1 0x0 PUSH2 0xC8A PUSH2 0xC85 DUP5 PUSH2 0xC46 JUMP JUMPDEST PUSH2 0xC2B JUMP JUMPDEST SWAP1 POP DUP1 DUP4 DUP3 MSTORE PUSH1 0x20 DUP3 ADD SWAP1 POP PUSH1 0x20 DUP5 MUL DUP4 ADD DUP6 DUP2 GT ISZERO PUSH2 0xCAD JUMPI PUSH2 0xCAC PUSH2 0xC72 JUMP JUMPDEST JUMPDEST DUP4 JUMPDEST DUP2 DUP2 LT ISZERO PUSH2 0xCD6 JUMPI DUP1 PUSH2 0xCC2 DUP9 DUP3 PUSH2 0xBA0 JUMP JUMPDEST DUP5 MSTORE PUSH1 0x20 DUP5 ADD SWAP4 POP POP PUSH1 0x20 DUP2 ADD SWAP1 POP PUSH2 0xCAF JUMP JUMPDEST POP POP POP SWAP4 SWAP3 POP POP POP JUMP JUMPDEST PUSH1 0x0 DUP3 PUSH1 0x1F DUP4 ADD SLT PUSH2 0xCF5 JUMPI PUSH2 0xCF4 PUSH2 0xBB5 JUMP JUMPDEST JUMPDEST DUP2 CALLDATALOAD PUSH2 0xD05 DUP5 DUP3 PUSH1 0x20 DUP7 ADD PUSH2 0xC77 JUMP JUMPDEST SWAP2 POP POP SWAP3 SWAP2 POP POP JUMP JUMPDEST PUSH1 0x0 DUP1 PUSH1 0x40 DUP4 DUP6 SUB SLT ISZERO PUSH2 0xD25 JUMPI PUSH2 0xD24 PUSH2 0xB7F JUMP JUMPDEST JUMPDEST PUSH1 0x0 PUSH2 0xD33 DUP6 DUP3 DUP7 ADD PUSH2 0xBA0 JUMP JUMPDEST SWAP3 POP POP PUSH1 0x20 DUP4 ADD CALLDATALOAD PUSH8 0xFFFFFFFFFFFFFFFF DUP2 GT ISZERO PUSH2 0xD54 JUMPI PUSH2 0xD53 PUSH2 0xB84 JUMP JUMPDEST JUMPDEST PUSH2 0xD60 DUP6 DUP3 DUP7 ADD PUSH2 0xCE0 JUMP JUMPDEST SWAP2 POP POP SWAP3 POP SWAP3 SWAP1 POP JUMP JUMPDEST PUSH1 0x0 DUP1 REVERT JUMPDEST PUSH1 0x0 DUP1 DUP4 PUSH1 0x1F DUP5 ADD SLT PUSH2 0xD85 JUMPI PUSH2 0xD84 PUSH2 0xBB5 JUMP JUMPDEST JUMPDEST DUP3 CALLDATALOAD SWAP1 POP PUSH8 0xFFFFFFFFFFFFFFFF DUP2 GT ISZERO PUSH2 0xDA2 JUMPI PUSH2 0xDA1 PUSH2 0xD6A JUMP JUMPDEST JUMPDEST PUSH1 0x20 DUP4 ADD SWAP2 POP DUP4 PUSH1 0x1 DUP3 MUL DUP4 ADD GT ISZERO PUSH2 0xDBE JUMPI PUSH2 0xDBD PUSH2 0xC72 JUMP JUMPDEST JUMPDEST SWAP3 POP SWAP3 SWAP1 POP JUMP JUMPDEST PUSH1 0x0 DUP1 PUSH1 0x20 DUP4 DUP6 SUB SLT ISZERO PUSH2 0xDDC JUMPI PUSH2 0xDDB PUSH2 0xB7F JUMP JUMPDEST JUMPDEST PUSH1 0x0 DUP4 ADD CALLDATALOAD PUSH8 0xFFFFFFFFFFFFFFFF DUP2 GT ISZERO PUSH2 0xDFA JUMPI PUSH2 0xDF9 PUSH2 0xB84 JUMP JUMPDEST JUMPDEST PUSH2 0xE06 DUP6 DUP3 DUP7 ADD PUSH2 0xD6F JUMP JUMPDEST SWAP3 POP SWAP3 POP POP SWAP3 POP SWAP3 SWAP1 POP JUMP JUMPDEST PUSH1 0x0 PUSH20 0xFFFFFFFFFFFFFFFFFFFFFFFFFFFFFFFFFFFFFFFF DUP3 AND SWAP1 POP SWAP2 SWAP1 POP JUMP JUMPDEST PUSH1 0x0 PUSH2 0xE3D DUP3 PUSH2 0xE12 JUMP JUMPDEST SWAP1 POP SWAP2 SWAP1 POP JUMP JUMPDEST PUSH2 0xE4D DUP2 PUSH2 0xE32 JUMP JUMPDEST DUP3 MSTORE POP POP JUMP JUMPDEST PUSH1 0x0 PUSH1 0x20 DUP3 ADD SWAP1 POP PUSH2 0xE68 PUSH1 0x0 DUP4 ADD DUP5 PUSH2 0xE44 JUMP JUMPDEST SWAP3 SWAP2 POP POP JUMP JUMPDEST PUSH1 0x0 DUP1 REVERT JUMPDEST PUSH1 0x0 PUSH8 0xFFFFFFFFFFFFFFFF DUP3 GT ISZERO PUSH2 0xE8E JUMPI PUSH2 0xE8D PUSH2 0xBCB JUMP JUMPDEST JUMPDEST PUSH2 0xE97 DUP3 PUSH2 0xBBA JUMP JUMPDEST SWAP1 POP PUSH1 0x20 DUP2 ADD SWAP1 POP SWAP2 SWAP1 POP JUMP JUMPDEST DUP3 DUP2 DUP4 CALLDATACOPY PUSH1 0x0 DUP4 DUP4 ADD MSTORE POP POP POP JUMP JUMPDEST PUSH1 0x0 PUSH2 0xEC6 PUSH2 0xEC1 DUP5 PUSH2 0xE73 JUMP JUMPDEST PUSH2 0xC2B JUMP JUMPDEST SWAP1 POP DUP3 DUP2 MSTORE PUSH1 0x20 DUP2 ADD DUP5 DUP5 DUP5 ADD GT ISZERO PUSH2 0xEE2 JUMPI PUSH2 0xEE1 PUSH2 0xE6E JUMP JUMPDEST JUMPDEST PUSH2 0xEED DUP5 DUP3 DUP6 PUSH2 0xEA4 JUMP JUMPDEST POP SWAP4 SWAP3 POP POP POP JUMP JUMPDEST PUSH1 0x0 DUP3 PUSH1 0x1F DUP4 ADD SLT PUSH2 0xF0A JUMPI PUSH2 0xF09 PUSH2 0xBB5 JUMP JUMPDEST JUMPDEST DUP2 CALLDATALOAD PUSH2 0xF1A DUP5 DUP3 PUSH1 0x20 DUP7 ADD PUSH2 0xEB3 JUMP JUMPDEST SWAP2 POP POP SWAP3 SWAP2 POP POP JUMP JUMPDEST PUSH1 0x0 PUSH1 0x20 DUP3 DUP5 SUB SLT ISZERO PUSH2 0xF39 JUMPI PUSH2 0xF38 PUSH2 0xB7F JUMP JUMPDEST JUMPDEST PUSH1 0x0 DUP3 ADD CALLDATALOAD PUSH8 0xFFFFFFFFFFFFFFFF DUP2 GT ISZERO PUSH2 0xF57 JUMPI PUSH2 0xF56 PUSH2 0xB84 JUMP JUMPDEST JUMPDEST PUSH2 0xF63 DUP5 DUP3 DUP6 ADD PUSH2 0xEF5 JUMP JUMPDEST SWAP2 POP POP SWAP3 SWAP2 POP POP JUMP JUMPDEST PUSH1 0x0 DUP2 ISZERO ISZERO SWAP1 POP SWAP2 SWAP1 POP JUMP JUMPDEST PUSH2 0xF81 DUP2 PUSH2 0xF6C JUMP JUMPDEST DUP3 MSTORE POP POP JUMP JUMPDEST PUSH1 0x0 DUP2 MLOAD SWAP1 POP SWAP2 SWAP1 POP JUMP JUMPDEST PUSH1 0x0 DUP3 DUP3 MSTORE PUSH1 0x20 DUP3 ADD SWAP1 POP SWAP3 SWAP2 POP POP JUMP JUMPDEST PUSH1 0x0 JUMPDEST DUP4 DUP2 LT ISZERO PUSH2 0xFC1 JUMPI DUP1 DUP3 ADD MLOAD DUP2 DUP5 ADD MSTORE PUSH1 0x20 DUP2 ADD SWAP1 POP PUSH2 0xFA6 JUMP JUMPDEST PUSH1 0x0 DUP5 DUP5 ADD MSTORE POP POP POP POP JUMP JUMPDEST PUSH1 0x0 PUSH2 0xFD8 DUP3 PUSH2 0xF87 JUMP JUMPDEST PUSH2 0xFE2 DUP2 DUP6 PUSH2 0xF92 JUMP JUMPDEST SWAP4 POP PUSH2 0xFF2 DUP2 DUP6 PUSH1 0x20 DUP7 ADD PUSH2 0xFA3 JUMP JUMPDEST PUSH2 0xFFB DUP2 PUSH2 0xBBA JUMP JUMPDEST DUP5 ADD SWAP2 POP POP SWAP3 SWAP2 POP POP JUMP JUMPDEST PUSH1 0x0 PUSH1 0x40 DUP3 ADD SWAP1 POP PUSH2 0x101B PUSH1 0x0 DUP4 ADD DUP6 PUSH2 0xF78 JUMP JUMPDEST DUP2 DUP2 SUB PUSH1 0x20 DUP4 ADD MSTORE PUSH2 0x102D DUP2 DUP5 PUSH2 0xFCD JUMP JUMPDEST SWAP1 POP SWAP4 SWAP3 POP POP POP JUMP JUMPDEST PUSH1 0x0 PUSH1 0x20 DUP3 DUP5 SUB SLT ISZERO PUSH2 0x104C JUMPI PUSH2 0x104B PUSH2 0xB7F JUMP JUMPDEST JUMPDEST PUSH1 0x0 PUSH2 0x105A DUP5 DUP3 DUP6 ADD PUSH2 0xBA0 JUMP JUMPDEST SWAP2 POP POP SWAP3 SWAP2 POP POP JUMP JUMPDEST PUSH1 0x0 PUSH1 0x40 DUP3 ADD SWAP1 POP PUSH2 0x1078 PUSH1 0x0 DUP4 ADD DUP6 PUSH2 0xE44 JUMP JUMPDEST PUSH2 0x1085 PUSH1 0x20 DUP4 ADD DUP5 PUSH2 0xE44 JUMP JUMPDEST SWAP4 SWAP3 POP POP POP JUMP JUMPDEST PUSH1 0x0 PUSH1 0x60 DUP3 ADD SWAP1 POP PUSH2 0x10A1 PUSH1 0x0 DUP4 ADD DUP7 PUSH2 0xAB9 JUMP JUMPDEST PUSH2 0x10AE PUSH1 0x20 DUP4 ADD DUP6 PUSH2 0xAB9 JUMP JUMPDEST PUSH2 0x10BB PUSH1 0x40 DUP4 ADD DUP5 PUSH2 0xAB9 JUMP JUMPDEST SWAP5 SWAP4 POP POP POP POP JUMP JUMPDEST PUSH1 0x0 DUP2 SWAP1 POP SWAP2 SWAP1 POP JUMP JUMPDEST PUSH2 0x10D6 DUP2 PUSH2 0x10C3 JUMP JUMPDEST DUP3 MSTORE POP POP JUMP JUMPDEST PUSH1 0x0 PUSH8 0xFFFFFFFFFFFFFFFF DUP3 AND SWAP1 POP SWAP2 SWAP1 POP JUMP JUMPDEST PUSH2 0x10F9 DUP2 PUSH2 0x10DC JUMP JUMPDEST DUP3 MSTORE POP POP JUMP JUMPDEST PUSH1 0x0 PUSH2 0xFFFF DUP3 AND SWAP1 POP SWAP2 SWAP1 POP JUMP JUMPDEST PUSH2 0x1116 DUP2 PUSH2 0x10FF JUMP JUMPDEST DUP3 MSTORE POP POP JUMP JUMPDEST PUSH1 0x0 PUSH4 0xFFFFFFFF DUP3 AND SWAP1 POP SWAP2 SWAP1 POP JUMP JUMPDEST PUSH2 0x1135 DUP2 PUSH2 0x111C JUMP JUMPDEST DUP3 MSTORE POP POP JUMP JUMPDEST PUSH1 0x0 PUSH1 0xA0 DUP3 ADD SWAP1 POP PUSH2 0x1150 PUSH1 0x0 DUP4 ADD DUP9 PUSH2 0x10CD JUMP JUMPDEST PUSH2 0x115D PUSH1 0x20 DUP4 ADD DUP8 PUSH2 0x10F0 JUMP JUMPDEST PUSH2 0x116A PUSH1 0x40 DUP4 ADD DUP7 PUSH2 0x110D JUMP JUMPDEST PUSH2 0x1177 PUSH1 0x60 DUP4 ADD DUP6 PUSH2 0x112C JUMP JUMPDEST PUSH2 0x1184 PUSH1 0x80 DUP4 ADD DUP5 PUSH2 0x112C JUMP JUMPDEST SWAP7 SWAP6 POP POP POP POP POP POP JUMP JUMPDEST PUSH1 0x0 DUP2 MLOAD SWAP1 POP PUSH2 0x119D DUP2 PUSH2 0xB89 JUMP JUMPDEST SWAP3 SWAP2 POP POP JUMP JUMPDEST PUSH1 0x0 PUSH1 0x20 DUP3 DUP5 SUB SLT ISZERO PUSH2 0x11B9 JUMPI PUSH2 0x11B8 PUSH2 0xB7F JUMP JUMPDEST JUMPDEST PUSH1 0x0 PUSH2 0x11C7 DUP5 DUP3 DUP6 ADD PUSH2 0x118E JUMP JUMPDEST SWAP2 POP POP SWAP3 SWAP2 POP POP JUMP JUMPDEST PUSH32 0x4E487B7100000000000000000000000000000000000000000000000000000000 PUSH1 0x0 MSTORE PUSH1 0x11 PUSH1 0x4 MSTORE PUSH1 0x24 PUSH1 0x0 REVERT JUMPDEST PUSH1 0x0 PUSH2 0x120A DUP3 PUSH2 0xAAF JUMP JUMPDEST SWAP2 POP PUSH2 0x1215 DUP4 PUSH2 0xAAF JUMP JUMPDEST SWAP3 POP DUP3 DUP3 SUB SWAP1 POP DUP2 DUP2 GT ISZERO PUSH2 0x122D JUMPI PUSH2 0x122C PUSH2 0x11D0 JUMP JUMPDEST JUMPDEST SWAP3 SWAP2 POP POP JUMP JUMPDEST PUSH32 0x4E487B7100000000000000000000000000000000000000000000000000000000 PUSH1 0x0 MSTORE PUSH1 0x32 PUSH1 0x4 MSTORE PUSH1 0x24 PUSH1 0x0 REVERT JUMPDEST PUSH32 0x4E487B7100000000000000000000000000000000000000000000000000000000 PUSH1 0x0 MSTORE PUSH1 0x12 PUSH1 0x4 MSTORE PUSH1 0x24 PUSH1 0x0 REVERT JUMPDEST PUSH1 0x0 PUSH2 0x129C DUP3 PUSH2 0xAAF JUMP JUMPDEST SWAP2 POP PUSH2 0x12A7 DUP4 PUSH2 0xAAF JUMP JUMPDEST SWAP3 POP DUP3 PUSH2 0x12B7 JUMPI PUSH2 0x12B6 PUSH2 0x1262 JUMP JUMPDEST JUMPDEST DUP3 DUP3 MOD SWAP1 POP SWAP3 SWAP2 POP POP JUMP JUMPDEST PUSH1 0x0 DUP2 SWAP1 POP SWAP3 SWAP2 POP POP JUMP JUMPDEST POP JUMP JUMPDEST PUSH1 0x0 PUSH2 0x12DD PUSH1 0x0 DUP4 PUSH2 0x12C2 JUMP JUMPDEST SWAP2 POP PUSH2 0x12E8 DUP3 PUSH2 0x12CD JUMP JUMPDEST PUSH1 0x0 DUP3 ADD SWAP1 POP SWAP2 SWAP1 POP JUMP JUMPDEST PUSH1 0x0 PUSH2 0x12FE DUP3 PUSH2 0x12D0 JUMP JUMPDEST SWAP2 POP DUP2 SWAP1 POP SWAP2 SWAP1 POP JUMP INVALID LOG2 PUSH5 0x6970667358 0x22 SLT KECCAK256 SHL 0xEC 0xDC XOR ADD 0xEF 0xEE DUP11 0xEA 0xD5 SWAP11 REVERT DUP16 DUP14 RETURNDATASIZE 0xCB SWAP7 DUP11 ADDRESS PUSH26 0x60B49F480D377F7CFF39621664736F6C63430008120033000000 "},"gasEstimates":{"creation":{"codeDepositCost":"985200","executionCost":"infinite","totalCost":"infinite"},"external":{"checkUpkeep(bytes)":"infinite","enterRaffle()":"infinite","getEntranceFee()":"infinite","getNumWords()":"infinite","getPlayer(uint256)":"5055","getRaffleState()":"2641","getRecentWinner()":"2544","performUpkeep(bytes)":"infinite","rawFulfillRandomWords(uint256,uint256[])":"infinite"},"internal":{"fulfillRandomWords(uint256,uint256[] memory)":"infinite"}},"methodIdentifiers":{"checkUpkeep(bytes)":"6e04ff0d","enterRaffle()":"2cfcc539","getEntranceFee()":"09bc33a7","getNumWords()":"53a2c19a","getPlayer(uint256)":"e55ae4e8","getRaffleState()":"115cbaf5","getRecentWinner()":"473f1ddc","performUpkeep(bytes)":"4585e33b","rawFulfillRandomWords(uint256,uint256[])":"1fe543e3"}},"storageLayout":{"storage":[{"astId":406,"contract":"contracts/Raffle.sol:Raffle","label":"s_players","offset":0,"slot":"0","type":"t_array(t_address_payable)dyn_storage"},{"astId":423,"contract":"contracts/Raffle.sol:Raffle","label":"s_recentWinner","offset":0,"slot":"1","type":"t_address"},{"astId":426,"contract":"contracts/Raffle.sol:Raffle","label":"s_raffleState","offset":20,"slot":"1","type":"t_enum(RaffleState)401"},{"astId":428,"contract":"contracts/Raffle.sol:Raffle","label":"s_lastTimeStamp","offset":0,"slot":"2","type":"t_uint256"}],"types":{"t_address":{"encoding":"inplace","label":"address","numberOfBytes":"20"},"t_address_payable":{"encoding":"inplace","label":"address payable","numberOfBytes":"20"},"t_array(t_address_payable)dyn_storage":{"base":"t_address_payable","encoding":"dynamic_array","label":"address payable[]","numberOfBytes":"32"},"t_enum(RaffleState)401":{"encoding":"inplace","label":"enum Raffle.RaffleState","numberOfBytes":"1"},"t_uint256":{"encoding":"inplace","label":"uint256","numberOfBytes":"32"}}},"userdoc":{"kind":"user","methods":{},"version":1}}}}