{
  "_format": "hh-sol-artifact-1",
  "contractName": "Raffle",
  "sourceName": "contracts/Raffle.sol",
  "abi": [
    {
      "inputs": [
        {
          "internalType": "address",
          "name": "vrfCoordinatorV2",
          "type": "address"
        },
        {
          "internalType": "uint256",
          "name": "entranceFee",
          "type": "uint256"
        },
        {
          "internalType": "bytes32",
          "name": "gasLane",
          "type": "bytes32"
        },
        {
          "internalType": "uint64",
          "name": "subscriptionId",
          "type": "uint64"
        },
        {
          "internalType": "uint32",
          "name": "callbackGasLimit",
          "type": "uint32"
        },
        {
          "internalType": "uint256",
          "name": "interval",
          "type": "uint256"
        }
      ],
      "stateMutability": "nonpayable",
      "type": "constructor"
    },
    {
      "inputs": [
        {
          "internalType": "address",
          "name": "have",
          "type": "address"
        },
        {
          "internalType": "address",
          "name": "want",
          "type": "address"
        }
      ],
      "name": "OnlyCoordinatorCanFulfill",
      "type": "error"
    },
    {
      "inputs": [],
      "name": "Raffle__NotEnoughETHEntered",
      "type": "error"
    },
    {
      "inputs": [],
      "name": "Raffle__NotOpen",
      "type": "error"
    },
    {
      "inputs": [],
      "name": "Raffle__TransferFailed",
      "type": "error"
    },
    {
      "inputs": [
        {
          "internalType": "uint256",
          "name": "currentBalance",
          "type": "uint256"
        },
        {
          "internalType": "uint256",
          "name": "numPlayers",
          "type": "uint256"
        },
        {
          "internalType": "uint256",
          "name": "raffleState",
          "type": "uint256"
        }
      ],
      "name": "Raffle__UpKeepNotNeeded",
      "type": "error"
    },
    {
      "anonymous": false,
      "inputs": [
        {
          "indexed": true,
          "internalType": "address",
          "name": "player",
          "type": "address"
        }
      ],
      "name": "RaffleEnter",
      "type": "event"
    },
    {
      "anonymous": false,
      "inputs": [
        {
          "indexed": true,
          "internalType": "uint256",
          "name": "requestId",
          "type": "uint256"
        }
      ],
      "name": "RequestedRaffleWinner",
      "type": "event"
    },
    {
      "anonymous": false,
      "inputs": [
        {
          "indexed": true,
          "internalType": "address",
          "name": "winner",
          "type": "address"
        }
      ],
      "name": "WinnerPicked",
      "type": "event"
    },
    {
      "inputs": [
        {
          "internalType": "bytes",
          "name": "",
          "type": "bytes"
        }
      ],
      "name": "checkUpkeep",
      "outputs": [
        {
          "internalType": "bool",
          "name": "upkeepNeeded",
          "type": "bool"
        },
        {
          "internalType": "bytes",
          "name": "",
          "type": "bytes"
        }
      ],
      "stateMutability": "nonpayable",
      "type": "function"
    },
    {
      "inputs": [],
      "name": "enterRaffle",
      "outputs": [],
      "stateMutability": "payable",
      "type": "function"
    },
    {
      "inputs": [],
      "name": "getEntranceFee",
      "outputs": [
        {
          "internalType": "uint256",
          "name": "",
          "type": "uint256"
        }
      ],
      "stateMutability": "view",
      "type": "function"
    },
    {
      "inputs": [],
      "name": "getLatestTimeStamp",
      "outputs": [
        {
          "internalType": "uint256",
          "name": "",
          "type": "uint256"
        }
      ],
      "stateMutability": "view",
      "type": "function"
    },
    {
      "inputs": [],
      "name": "getNumWords",
      "outputs": [
        {
          "internalType": "uint256",
          "name": "",
          "type": "uint256"
        }
      ],
      "stateMutability": "pure",
      "type": "function"
    },
    {
      "inputs": [],
      "name": "getNumberOfPlayers",
      "outputs": [
        {
          "internalType": "uint256",
          "name": "",
          "type": "uint256"
        }
      ],
      "stateMutability": "view",
      "type": "function"
    },
    {
      "inputs": [
        {
          "internalType": "uint256",
          "name": "index",
          "type": "uint256"
        }
      ],
      "name": "getPlayer",
      "outputs": [
        {
          "internalType": "address",
          "name": "",
          "type": "address"
        }
      ],
      "stateMutability": "view",
      "type": "function"
    },
    {
      "inputs": [],
      "name": "getRaffleState",
      "outputs": [
        {
          "internalType": "enum Raffle.RaffleState",
          "name": "",
          "type": "uint8"
        }
      ],
      "stateMutability": "view",
      "type": "function"
    },
    {
      "inputs": [],
      "name": "getRecentWinner",
      "outputs": [
        {
          "internalType": "address",
          "name": "",
          "type": "address"
        }
      ],
      "stateMutability": "view",
      "type": "function"
    },
    {
      "inputs": [],
      "name": "getRequestConfirmations",
      "outputs": [
        {
          "internalType": "uint256",
          "name": "",
          "type": "uint256"
        }
      ],
      "stateMutability": "pure",
      "type": "function"
    },
    {
      "inputs": [
        {
          "internalType": "bytes",
          "name": "",
          "type": "bytes"
        }
      ],
      "name": "performUpkeep",
      "outputs": [],
      "stateMutability": "nonpayable",
      "type": "function"
    },
    {
      "inputs": [
        {
          "internalType": "uint256",
          "name": "requestId",
          "type": "uint256"
        },
        {
          "internalType": "uint256[]",
          "name": "randomWords",
          "type": "uint256[]"
        }
      ],
      "name": "rawFulfillRandomWords",
      "outputs": [],
      "stateMutability": "nonpayable",
      "type": "function"
    }
  ],
  "bytecode": "0x610180604052600163ffffffff166101409063ffffffff168152503480156200002757600080fd5b50604051620017f2380380620017f283398181016040528101906200004d9190620002a9565b858073ffffffffffffffffffffffffffffffffffffffff1660808173ffffffffffffffffffffffffffffffffffffffff1681525050508460a081815250508573ffffffffffffffffffffffffffffffffffffffff1660c08173ffffffffffffffffffffffffffffffffffffffff16815250508360e081815250508267ffffffffffffffff166101008167ffffffffffffffff16815250508163ffffffff166101208163ffffffff16815250506000600160146101000a81548160ff0219169083600181111562000122576200012162000345565b5b02179055504260028190555080610160818152505050505050505062000374565b600080fd5b600073ffffffffffffffffffffffffffffffffffffffff82169050919050565b6000620001758262000148565b9050919050565b620001878162000168565b81146200019357600080fd5b50565b600081519050620001a7816200017c565b92915050565b6000819050919050565b620001c281620001ad565b8114620001ce57600080fd5b50565b600081519050620001e281620001b7565b92915050565b6000819050919050565b620001fd81620001e8565b81146200020957600080fd5b50565b6000815190506200021d81620001f2565b92915050565b600067ffffffffffffffff82169050919050565b620002428162000223565b81146200024e57600080fd5b50565b600081519050620002628162000237565b92915050565b600063ffffffff82169050919050565b620002838162000268565b81146200028f57600080fd5b50565b600081519050620002a38162000278565b92915050565b60008060008060008060c08789031215620002c957620002c862000143565b5b6000620002d989828a0162000196565b9650506020620002ec89828a01620001d1565b9550506040620002ff89828a016200020c565b94505060606200031289828a0162000251565b93505060806200032589828a0162000292565b92505060a06200033889828a01620001d1565b9150509295509295509295565b7f4e487b7100000000000000000000000000000000000000000000000000000000600052602160045260246000fd5b60805160a05160c05160e05161010051610120516101405161016051611403620003ef60003960006107df01526000818161068001526107650152600061065f0152600061063c0152600061061b015260006105df0152600081816102b401526103b10152600081816102f1015261034501526114036000f3fe6080604052600436106100a75760003560e01c8063473f1ddc11610064578063473f1ddc1461018957806353a2c19a146101b45780635f1b0fd8146101df5780636e04ff0d1461020a578063e55ae4e814610248578063fd6673f514610285576100a7565b806309bc33a7146100ac578063115cbaf5146100d75780631fe543e3146101025780632cfcc5391461012b578063320229eb146101355780634585e33b14610160575b600080fd5b3480156100b857600080fd5b506100c16102b0565b6040516100ce9190610b8d565b60405180910390f35b3480156100e357600080fd5b506100ec6102d8565b6040516100f99190610c1f565b60405180910390f35b34801561010e57600080fd5b5061012960048036038101906101249190610dd3565b6102ef565b005b6101336103af565b005b34801561014157600080fd5b5061014a61051e565b6040516101579190610b8d565b60405180910390f35b34801561016c57600080fd5b5061018760048036038101906101829190610e8a565b610528565b005b34801561019557600080fd5b5061019e610737565b6040516101ab9190610f18565b60405180910390f35b3480156101c057600080fd5b506101c9610761565b6040516101d69190610b8d565b60405180910390f35b3480156101eb57600080fd5b506101f461078f565b6040516102019190610b8d565b60405180910390f35b34801561021657600080fd5b50610231600480360381019061022c9190610fe8565b61079c565b60405161023f9291906110cb565b60405180910390f35b34801561025457600080fd5b5061026f600480360381019061026a91906110fb565b610849565b60405161027c9190610f18565b60405180910390f35b34801561029157600080fd5b5061029a610890565b6040516102a79190610b8d565b60405180910390f35b60007f0000000000000000000000000000000000000000000000000000000000000000905090565b6000600160149054906101000a900460ff16905090565b7f000000000000000000000000000000000000000000000000000000000000000073ffffffffffffffffffffffffffffffffffffffff163373ffffffffffffffffffffffffffffffffffffffff16146103a157337f00000000000000000000000000000000000000000000000000000000000000006040517f1cf993f4000000000000000000000000000000000000000000000000000000008152600401610398929190611128565b60405180910390fd5b6103ab828261089c565b5050565b7f0000000000000000000000000000000000000000000000000000000000000000341015610409576040517fbd4e069500000000000000000000000000000000000000000000000000000000815260040160405180910390fd5b6000600181111561041d5761041c610ba8565b5b600160149054906101000a900460ff16600181111561043f5761043e610ba8565b5b14610476576040517f1425571c00000000000000000000000000000000000000000000000000000000815260040160405180910390fd5b6000339080600181540180825580915050600190039060005260206000200160009091909190916101000a81548173ffffffffffffffffffffffffffffffffffffffff021916908373ffffffffffffffffffffffffffffffffffffffff1602179055503373ffffffffffffffffffffffffffffffffffffffff167f0805e1d667bddb8a95f0f09880cf94f403fb596ce79928d9f29b74203ba284d460405160405180910390a2565b6000600254905090565b60006105426040518060200160405280600081525061079c565b509050806105b15747600080549050600160149054906101000a900460ff16600181111561057357610572610ba8565b5b6040517f3a8d60860000000000000000000000000000000000000000000000000000000081526004016105a893929190611151565b60405180910390fd5b60018060146101000a81548160ff021916908360018111156105d6576105d5610ba8565b5b021790555060007f000000000000000000000000000000000000000000000000000000000000000073ffffffffffffffffffffffffffffffffffffffff16635d3b1d307f00000000000000000000000000000000000000000000000000000000000000007f000000000000000000000000000000000000000000000000000000000000000060037f00000000000000000000000000000000000000000000000000000000000000007f00000000000000000000000000000000000000000000000000000000000000006040518663ffffffff1660e01b81526004016106bf959493929190611200565b6020604051808303816000875af11580156106de573d6000803e3d6000fd5b505050506040513d601f19601f820116820180604052508101906107029190611268565b9050807fcd6e45c8998311cab7e9d4385596cac867e20a0587194b954fa3a731c93ce78b60405160405180910390a250505050565b6000600160009054906101000a900473ffffffffffffffffffffffffffffffffffffffff16905090565b60007f000000000000000000000000000000000000000000000000000000000000000063ffffffff16905090565b6000600361ffff16905090565b600060606000600160149054906101000a900460ff1660018111156107c4576107c3610ba8565b5b600060018111156107d8576107d7610ba8565b5b14905060007f00000000000000000000000000000000000000000000000000000000000000006002544261080c91906112c4565b1190506000806000805490501190506000804711905083801561082c5750825b80156108355750815b801561083e5750805b955050505050915091565b600080828154811061085e5761085d6112f8565b5b9060005260206000200160009054906101000a900473ffffffffffffffffffffffffffffffffffffffff169050919050565b60008080549050905090565b60008080549050826000815181106108b7576108b66112f8565b5b60200260200101516108c99190611356565b905060008082815481106108e0576108df6112f8565b5b9060005260206000200160009054906101000a900473ffffffffffffffffffffffffffffffffffffffff16905080600160006101000a81548173ffffffffffffffffffffffffffffffffffffffff021916908373ffffffffffffffffffffffffffffffffffffffff1602179055506000600160146101000a81548160ff0219169083600181111561097457610973610ba8565b5b0217905550600067ffffffffffffffff81111561099457610993610c90565b5b6040519080825280602002602001820160405280156109c25781602001602082028036833780820191505090505b50600090805190602001906109d8929190610acd565b504260028190555060008173ffffffffffffffffffffffffffffffffffffffff1647604051610a06906113b8565b60006040518083038185875af1925050503d8060008114610a43576040519150601f19603f3d011682016040523d82523d6000602084013e610a48565b606091505b5050905080610a83576040517fa1d04b3900000000000000000000000000000000000000000000000000000000815260040160405180910390fd5b8173ffffffffffffffffffffffffffffffffffffffff167f5b690ec4a06fe979403046eaeea5b3ce38524683c3001f662c8b5a829632f7df60405160405180910390a25050505050565b828054828255906000526020600020908101928215610b46579160200282015b82811115610b455782518260006101000a81548173ffffffffffffffffffffffffffffffffffffffff021916908373ffffffffffffffffffffffffffffffffffffffff16021790555091602001919060010190610aed565b5b509050610b539190610b57565b5090565b5b80821115610b70576000816000905550600101610b58565b5090565b6000819050919050565b610b8781610b74565b82525050565b6000602082019050610ba26000830184610b7e565b92915050565b7f4e487b7100000000000000000000000000000000000000000000000000000000600052602160045260246000fd5b60028110610be857610be7610ba8565b5b50565b6000819050610bf982610bd7565b919050565b6000610c0982610beb565b9050919050565b610c1981610bfe565b82525050565b6000602082019050610c346000830184610c10565b92915050565b6000604051905090565b600080fd5b600080fd5b610c5781610b74565b8114610c6257600080fd5b50565b600081359050610c7481610c4e565b92915050565b600080fd5b6000601f19601f8301169050919050565b7f4e487b7100000000000000000000000000000000000000000000000000000000600052604160045260246000fd5b610cc882610c7f565b810181811067ffffffffffffffff82111715610ce757610ce6610c90565b5b80604052505050565b6000610cfa610c3a565b9050610d068282610cbf565b919050565b600067ffffffffffffffff821115610d2657610d25610c90565b5b602082029050602081019050919050565b600080fd5b6000610d4f610d4a84610d0b565b610cf0565b90508083825260208201905060208402830185811115610d7257610d71610d37565b5b835b81811015610d9b5780610d878882610c65565b845260208401935050602081019050610d74565b5050509392505050565b600082601f830112610dba57610db9610c7a565b5b8135610dca848260208601610d3c565b91505092915050565b60008060408385031215610dea57610de9610c44565b5b6000610df885828601610c65565b925050602083013567ffffffffffffffff811115610e1957610e18610c49565b5b610e2585828601610da5565b9150509250929050565b600080fd5b60008083601f840112610e4a57610e49610c7a565b5b8235905067ffffffffffffffff811115610e6757610e66610e2f565b5b602083019150836001820283011115610e8357610e82610d37565b5b9250929050565b60008060208385031215610ea157610ea0610c44565b5b600083013567ffffffffffffffff811115610ebf57610ebe610c49565b5b610ecb85828601610e34565b92509250509250929050565b600073ffffffffffffffffffffffffffffffffffffffff82169050919050565b6000610f0282610ed7565b9050919050565b610f1281610ef7565b82525050565b6000602082019050610f2d6000830184610f09565b92915050565b600080fd5b600067ffffffffffffffff821115610f5357610f52610c90565b5b610f5c82610c7f565b9050602081019050919050565b82818337600083830152505050565b6000610f8b610f8684610f38565b610cf0565b905082815260208101848484011115610fa757610fa6610f33565b5b610fb2848285610f69565b509392505050565b600082601f830112610fcf57610fce610c7a565b5b8135610fdf848260208601610f78565b91505092915050565b600060208284031215610ffe57610ffd610c44565b5b600082013567ffffffffffffffff81111561101c5761101b610c49565b5b61102884828501610fba565b91505092915050565b60008115159050919050565b61104681611031565b82525050565b600081519050919050565b600082825260208201905092915050565b60005b8381101561108657808201518184015260208101905061106b565b60008484015250505050565b600061109d8261104c565b6110a78185611057565b93506110b7818560208601611068565b6110c081610c7f565b840191505092915050565b60006040820190506110e0600083018561103d565b81810360208301526110f28184611092565b90509392505050565b60006020828403121561111157611110610c44565b5b600061111f84828501610c65565b91505092915050565b600060408201905061113d6000830185610f09565b61114a6020830184610f09565b9392505050565b60006060820190506111666000830186610b7e565b6111736020830185610b7e565b6111806040830184610b7e565b949350505050565b6000819050919050565b61119b81611188565b82525050565b600067ffffffffffffffff82169050919050565b6111be816111a1565b82525050565b600061ffff82169050919050565b6111db816111c4565b82525050565b600063ffffffff82169050919050565b6111fa816111e1565b82525050565b600060a0820190506112156000830188611192565b61122260208301876111b5565b61122f60408301866111d2565b61123c60608301856111f1565b61124960808301846111f1565b9695505050505050565b60008151905061126281610c4e565b92915050565b60006020828403121561127e5761127d610c44565b5b600061128c84828501611253565b91505092915050565b7f4e487b7100000000000000000000000000000000000000000000000000000000600052601160045260246000fd5b60006112cf82610b74565b91506112da83610b74565b92508282039050818111156112f2576112f1611295565b5b92915050565b7f4e487b7100000000000000000000000000000000000000000000000000000000600052603260045260246000fd5b7f4e487b7100000000000000000000000000000000000000000000000000000000600052601260045260246000fd5b600061136182610b74565b915061136c83610b74565b92508261137c5761137b611327565b5b828206905092915050565b600081905092915050565b50565b60006113a2600083611387565b91506113ad82611392565b600082019050919050565b60006113c382611395565b915081905091905056fea26469706673582212208e4e1232350eefc74976818b4bc2ceec5c2e9b4276b675ddce9934dce3dfe48764736f6c63430008120033",
  "linkReferences": {},
  "deployedLinkReferences": {}
}