{
  "abi": [
    {
      "inputs": [
        {
          "internalType": "string",
          "name": "sadSvgImageUri",
          "type": "string"
        },
        {
          "internalType": "string",
          "name": "happySvgImageUri",
          "type": "string"
        }
      ],
      "stateMutability": "nonpayable",
      "type": "constructor"
    },
    {
      "inputs": [],
      "name": "MoodNft__CantFlipMoodIfNotOwner",
      "type": "error"
    },
    {
      "anonymous": false,
      "inputs": [
        {
          "indexed": true,
          "internalType": "address",
          "name": "owner",
          "type": "address"
        },
        {
          "indexed": true,
          "internalType": "address",
          "name": "approved",
          "type": "address"
        },
        {
          "indexed": true,
          "internalType": "uint256",
          "name": "tokenId",
          "type": "uint256"
        }
      ],
      "name": "Approval",
      "type": "event"
    },
    {
      "anonymous": false,
      "inputs": [
        {
          "indexed": true,
          "internalType": "address",
          "name": "owner",
          "type": "address"
        },
        {
          "indexed": true,
          "internalType": "address",
          "name": "operator",
          "type": "address"
        },
        {
          "indexed": false,
          "internalType": "bool",
          "name": "approved",
          "type": "bool"
        }
      ],
      "name": "ApprovalForAll",
      "type": "event"
    },
    {
      "anonymous": false,
      "inputs": [
        {
          "indexed": true,
          "internalType": "address",
          "name": "from",
          "type": "address"
        },
        {
          "indexed": true,
          "internalType": "address",
          "name": "to",
          "type": "address"
        },
        {
          "indexed": true,
          "internalType": "uint256",
          "name": "tokenId",
          "type": "uint256"
        }
      ],
      "name": "Transfer",
      "type": "event"
    },
    {
      "inputs": [
        {
          "internalType": "address",
          "name": "to",
          "type": "address"
        },
        {
          "internalType": "uint256",
          "name": "tokenId",
          "type": "uint256"
        }
      ],
      "name": "approve",
      "outputs": [],
      "stateMutability": "nonpayable",
      "type": "function"
    },
    {
      "inputs": [
        {
          "internalType": "address",
          "name": "owner",
          "type": "address"
        }
      ],
      "name": "balanceOf",
      "outputs": [
        {
          "internalType": "uint256",
          "name": "",
          "type": "uint256"
        }
      ],
      "stateMutability": "view",
      "type": "function"
    },
    {
      "inputs": [
        {
          "internalType": "uint256",
          "name": "tokenId",
          "type": "uint256"
        }
      ],
      "name": "flipMood",
      "outputs": [],
      "stateMutability": "nonpayable",
      "type": "function"
    },
    {
      "inputs": [
        {
          "internalType": "uint256",
          "name": "tokenId",
          "type": "uint256"
        }
      ],
      "name": "getApproved",
      "outputs": [
        {
          "internalType": "address",
          "name": "",
          "type": "address"
        }
      ],
      "stateMutability": "view",
      "type": "function"
    },
    {
      "inputs": [
        {
          "internalType": "address",
          "name": "owner",
          "type": "address"
        },
        {
          "internalType": "address",
          "name": "operator",
          "type": "address"
        }
      ],
      "name": "isApprovedForAll",
      "outputs": [
        {
          "internalType": "bool",
          "name": "",
          "type": "bool"
        }
      ],
      "stateMutability": "view",
      "type": "function"
    },
    {
      "inputs": [],
      "name": "mintNft",
      "outputs": [],
      "stateMutability": "nonpayable",
      "type": "function"
    },
    {
      "inputs": [],
      "name": "name",
      "outputs": [
        {
          "internalType": "string",
          "name": "",
          "type": "string"
        }
      ],
      "stateMutability": "view",
      "type": "function"
    },
    {
      "inputs": [
        {
          "internalType": "uint256",
          "name": "tokenId",
          "type": "uint256"
        }
      ],
      "name": "ownerOf",
      "outputs": [
        {
          "internalType": "address",
          "name": "",
          "type": "address"
        }
      ],
      "stateMutability": "view",
      "type": "function"
    },
    {
      "inputs": [
        {
          "internalType": "address",
          "name": "from",
          "type": "address"
        },
        {
          "internalType": "address",
          "name": "to",
          "type": "address"
        },
        {
          "internalType": "uint256",
          "name": "tokenId",
          "type": "uint256"
        }
      ],
      "name": "safeTransferFrom",
      "outputs": [],
      "stateMutability": "nonpayable",
      "type": "function"
    },
    {
      "inputs": [
        {
          "internalType": "address",
          "name": "from",
          "type": "address"
        },
        {
          "internalType": "address",
          "name": "to",
          "type": "address"
        },
        {
          "internalType": "uint256",
          "name": "tokenId",
          "type": "uint256"
        },
        {
          "internalType": "bytes",
          "name": "data",
          "type": "bytes"
        }
      ],
      "name": "safeTransferFrom",
      "outputs": [],
      "stateMutability": "nonpayable",
      "type": "function"
    },
    {
      "inputs": [
        {
          "internalType": "address",
          "name": "operator",
          "type": "address"
        },
        {
          "internalType": "bool",
          "name": "approved",
          "type": "bool"
        }
      ],
      "name": "setApprovalForAll",
      "outputs": [],
      "stateMutability": "nonpayable",
      "type": "function"
    },
    {
      "inputs": [
        {
          "internalType": "bytes4",
          "name": "interfaceId",
          "type": "bytes4"
        }
      ],
      "name": "supportsInterface",
      "outputs": [
        {
          "internalType": "bool",
          "name": "",
          "type": "bool"
        }
      ],
      "stateMutability": "view",
      "type": "function"
    },
    {
      "inputs": [],
      "name": "symbol",
      "outputs": [
        {
          "internalType": "string",
          "name": "",
          "type": "string"
        }
      ],
      "stateMutability": "view",
      "type": "function"
    },
    {
      "inputs": [
        {
          "internalType": "uint256",
          "name": "tokenId",
          "type": "uint256"
        }
      ],
      "name": "tokenURI",
      "outputs": [
        {
          "internalType": "string",
          "name": "",
          "type": "string"
        }
      ],
      "stateMutability": "view",
      "type": "function"
    },
    {
      "inputs": [
        {
          "internalType": "address",
          "name": "from",
          "type": "address"
        },
        {
          "internalType": "address",
          "name": "to",
          "type": "address"
        },
        {
          "internalType": "uint256",
          "name": "tokenId",
          "type": "uint256"
        }
      ],
      "name": "transferFrom",
      "outputs": [],
      "stateMutability": "nonpayable",
      "type": "function"
    }
  ],
  "bytecode": {
    "object": "0x60806040523480156200001157600080fd5b5060405162001a2638038062001a26833981016040819052620000349162000183565b60405180604001604052806008815260200167135bdbd90813999d60c21b8152506040518060400160405280600281526020016126a760f11b81525081600090816200008191906200027c565b5060016200009082826200027c565b50506000600655506007620000a683826200027c565b506008620000b582826200027c565b50505062000348565b634e487b7160e01b600052604160045260246000fd5b600082601f830112620000e657600080fd5b81516001600160401b0380821115620001035762000103620000be565b604051601f8301601f19908116603f011681019082821181831017156200012e576200012e620000be565b816040528381526020925086838588010111156200014b57600080fd5b600091505b838210156200016f578582018301518183018401529082019062000150565b600093810190920192909252949350505050565b600080604083850312156200019757600080fd5b82516001600160401b0380821115620001af57600080fd5b620001bd86838701620000d4565b93506020850151915080821115620001d457600080fd5b50620001e385828601620000d4565b9150509250929050565b600181811c908216806200020257607f821691505b6020821081036200022357634e487b7160e01b600052602260045260246000fd5b50919050565b601f8211156200027757600081815260208120601f850160051c81016020861015620002525750805b601f850160051c820191505b8181101562000273578281556001016200025e565b5050505b505050565b81516001600160401b03811115620002985762000298620000be565b620002b081620002a98454620001ed565b8462000229565b602080601f831160018114620002e85760008415620002cf5750858301515b600019600386901b1c1916600185901b17855562000273565b600085815260208120601f198616915b828110156200031957888601518255948401946001909101908401620002f8565b5085821015620003385787850151600019600388901b60f8161c191681555b5050505050600190811b01905550565b6116ce80620003586000396000f3fe608060405234801561001057600080fd5b50600436106100f55760003560e01c806370a0823111610097578063c1a147a011610066578063c1a147a0146101ff578063c2229fea14610212578063c87b56dd1461021a578063e985e9c51461022d57600080fd5b806370a08231146101b057806395d89b41146101d1578063a22cb465146101d9578063b88d4fde146101ec57600080fd5b8063095ea7b3116100d3578063095ea7b31461016257806323b872dd1461017757806342842e0e1461018a5780636352211e1461019d57600080fd5b806301ffc9a7146100fa57806306fdde0314610122578063081812fc14610137575b600080fd5b61010d61010836600461109b565b610240565b60405190151581526020015b60405180910390f35b61012a610292565b604051610119919061110f565b61014a610145366004611122565b610324565b6040516001600160a01b039091168152602001610119565b610175610170366004611157565b61034b565b005b610175610185366004611181565b610465565b610175610198366004611181565b610496565b61014a6101ab366004611122565b6104b1565b6101c36101be3660046111bd565b610511565b604051908152602001610119565b61012a610597565b6101756101e73660046111d8565b6105a6565b6101756101fa36600461122a565b6105b5565b61017561020d366004611122565b6105ed565b610175610687565b61012a610228366004611122565b6106c1565b61010d61023b366004611306565b61089a565b60006001600160e01b031982166380ac58cd60e01b148061027157506001600160e01b03198216635b5e139f60e01b145b8061028c57506301ffc9a760e01b6001600160e01b03198316145b92915050565b6060600080546102a190611339565b80601f01602080910402602001604051908101604052809291908181526020018280546102cd90611339565b801561031a5780601f106102ef5761010080835404028352916020019161031a565b820191906000526020600020905b8154815290600101906020018083116102fd57829003601f168201915b5050505050905090565b600061032f826108c8565b506000908152600460205260409020546001600160a01b031690565b6000610356826104b1565b9050806001600160a01b0316836001600160a01b0316036103c85760405162461bcd60e51b815260206004820152602160248201527f4552433732313a20617070726f76616c20746f2063757272656e74206f776e656044820152603960f91b60648201526084015b60405180910390fd5b336001600160a01b03821614806103e457506103e4813361089a565b6104565760405162461bcd60e51b815260206004820152603d60248201527f4552433732313a20617070726f76652063616c6c6572206973206e6f7420746f60448201527f6b656e206f776e6572206f7220617070726f76656420666f7220616c6c00000060648201526084016103bf565b6104608383610927565b505050565b61046f3382610995565b61048b5760405162461bcd60e51b81526004016103bf90611373565b6104608383836109f4565b610460838383604051806020016040528060008152506105b5565b6000818152600260205260408120546001600160a01b03168061028c5760405162461bcd60e51b8152602060048201526018602482015277115490cdcc8c4e881a5b9d985b1a59081d1bdad95b88125160421b60448201526064016103bf565b60006001600160a01b03821661057b5760405162461bcd60e51b815260206004820152602960248201527f4552433732313a2061646472657373207a65726f206973206e6f7420612076616044820152683634b21037bbb732b960b91b60648201526084016103bf565b506001600160a01b031660009081526003602052604090205490565b6060600180546102a190611339565b6105b1338383610b58565b5050565b6105bf3383610995565b6105db5760405162461bcd60e51b81526004016103bf90611373565b6105e784848484610c26565b50505050565b6105f73382610995565b610614576040516385046ca760e01b815260040160405180910390fd5b60008181526009602052604081205460ff166001811115610637576106376113c0565b0361066157600160008281526009602052604090205460ff166001811115610460576104606113c0565b60008181526009602052604081205460ff166001811115610460576104606113c0565b50565b61069333600654610c59565b600680546000908152600960205260408120805460ff19169055815491906106ba836113ec565b9190505550565b6060806000808481526009602052604090205460ff1660018111156106e8576106e86113c0565b0361077f57600880546106fa90611339565b80601f016020809104026020016040519081016040528092919081815260200182805461072690611339565b80156107735780601f1061074857610100808354040283529160200191610773565b820191906000526020600020905b81548152906001019060200180831161075657829003601f168201915b5050505050905061080d565b6007805461078c90611339565b80601f01602080910402602001604051908101604052809291908181526020018280546107b890611339565b80156108055780601f106107da57610100808354040283529160200191610805565b820191906000526020600020905b8154815290600101906020018083116107e857829003601f168201915b505050505090505b60408051808201909152601d81527f646174613a6170706c69636174696f6e2f6a736f6e3b6261736536342c000000602082015261087261084c610292565b8360405160200161085e929190611405565b604051602081830303815290604052610c73565b6040516020016108839291906114ec565b604051602081830303815290604052915050919050565b6001600160a01b03918216600090815260056020908152604080832093909416825291909152205460ff1690565b6000818152600260205260409020546001600160a01b03166106845760405162461bcd60e51b8152602060048201526018602482015277115490cdcc8c4e881a5b9d985b1a59081d1bdad95b88125160421b60448201526064016103bf565b600081815260046020526040902080546001600160a01b0319166001600160a01b038416908117909155819061095c826104b1565b6001600160a01b03167f8c5be1e5ebec7d5bd14f71427d1e84f3dd0314c0f7b2291e5b200ac8c7c3b92560405160405180910390a45050565b6000806109a1836104b1565b9050806001600160a01b0316846001600160a01b031614806109c857506109c8818561089a565b806109ec5750836001600160a01b03166109e184610324565b6001600160a01b0316145b949350505050565b826001600160a01b0316610a07826104b1565b6001600160a01b031614610a2d5760405162461bcd60e51b81526004016103bf9061151b565b6001600160a01b038216610a8f5760405162461bcd60e51b8152602060048201526024808201527f4552433732313a207472616e7366657220746f20746865207a65726f206164646044820152637265737360e01b60648201526084016103bf565b826001600160a01b0316610aa2826104b1565b6001600160a01b031614610ac85760405162461bcd60e51b81526004016103bf9061151b565b600081815260046020908152604080832080546001600160a01b03199081169091556001600160a01b0387811680865260038552838620805460001901905590871680865283862080546001019055868652600290945282852080549092168417909155905184937fddf252ad1be2c89b69c2b068fc378daa952ba7f163c4a11628f55a4df523b3ef91a4505050565b816001600160a01b0316836001600160a01b031603610bb95760405162461bcd60e51b815260206004820152601960248201527f4552433732313a20617070726f766520746f2063616c6c65720000000000000060448201526064016103bf565b6001600160a01b03838116600081815260056020908152604080832094871680845294825291829020805460ff191686151590811790915591519182527f17307eab39ab6107e8899845ad3d59bd9653f200f220920489ca2b5937696c31910160405180910390a3505050565b610c318484846109f4565b610c3d84848484610dc6565b6105e75760405162461bcd60e51b81526004016103bf90611560565b6105b1828260405180602001604052806000815250610ec7565b60608151600003610c9257505060408051602081019091526000815290565b60006040518060600160405280604081526020016116596040913990506000600384516002610cc191906115b2565b610ccb91906115c5565b610cd69060046115e7565b67ffffffffffffffff811115610cee57610cee611214565b6040519080825280601f01601f191660200182016040528015610d18576020820181803683370190505b509050600182016020820185865187015b80821015610d84576003820191508151603f8160121c168501518453600184019350603f81600c1c168501518453600184019350603f8160061c168501518453600184019350603f8116850151845350600183019250610d29565b5050600386510660018114610da05760028114610db357610dbb565b603d6001830353603d6002830353610dbb565b603d60018303535b509195945050505050565b60006001600160a01b0384163b15610ebc57604051630a85bd0160e11b81526001600160a01b0385169063150b7a0290610e0a9033908990889088906004016115fe565b6020604051808303816000875af1925050508015610e45575060408051601f3d908101601f19168201909252610e429181019061163b565b60015b610ea2573d808015610e73576040519150601f19603f3d011682016040523d82523d6000602084013e610e78565b606091505b508051600003610e9a5760405162461bcd60e51b81526004016103bf90611560565b805181602001fd5b6001600160e01b031916630a85bd0160e11b1490506109ec565b506001949350505050565b610ed18383610efa565b610ede6000848484610dc6565b6104605760405162461bcd60e51b81526004016103bf90611560565b6001600160a01b038216610f505760405162461bcd60e51b815260206004820181905260248201527f4552433732313a206d696e7420746f20746865207a65726f206164647265737360448201526064016103bf565b6000818152600260205260409020546001600160a01b031615610fb55760405162461bcd60e51b815260206004820152601c60248201527f4552433732313a20746f6b656e20616c7265616479206d696e7465640000000060448201526064016103bf565b6000818152600260205260409020546001600160a01b03161561101a5760405162461bcd60e51b815260206004820152601c60248201527f4552433732313a20746f6b656e20616c7265616479206d696e7465640000000060448201526064016103bf565b6001600160a01b038216600081815260036020908152604080832080546001019055848352600290915280822080546001600160a01b0319168417905551839291907fddf252ad1be2c89b69c2b068fc378daa952ba7f163c4a11628f55a4df523b3ef908290a45050565b6001600160e01b03198116811461068457600080fd5b6000602082840312156110ad57600080fd5b81356110b881611085565b9392505050565b60005b838110156110da5781810151838201526020016110c2565b50506000910152565b600081518084526110fb8160208601602086016110bf565b601f01601f19169290920160200192915050565b6020815260006110b860208301846110e3565b60006020828403121561113457600080fd5b5035919050565b80356001600160a01b038116811461115257600080fd5b919050565b6000806040838503121561116a57600080fd5b6111738361113b565b946020939093013593505050565b60008060006060848603121561119657600080fd5b61119f8461113b565b92506111ad6020850161113b565b9150604084013590509250925092565b6000602082840312156111cf57600080fd5b6110b88261113b565b600080604083850312156111eb57600080fd5b6111f48361113b565b91506020830135801515811461120957600080fd5b809150509250929050565b634e487b7160e01b600052604160045260246000fd5b6000806000806080858703121561124057600080fd5b6112498561113b565b93506112576020860161113b565b925060408501359150606085013567ffffffffffffffff8082111561127b57600080fd5b818701915087601f83011261128f57600080fd5b8135818111156112a1576112a1611214565b604051601f8201601f19908116603f011681019083821181831017156112c9576112c9611214565b816040528281528a60208487010111156112e257600080fd5b82602086016020830137600060208483010152809550505050505092959194509250565b6000806040838503121561131957600080fd5b6113228361113b565b91506113306020840161113b565b90509250929050565b600181811c9082168061134d57607f821691505b60208210810361136d57634e487b7160e01b600052602260045260246000fd5b50919050565b6020808252602d908201527f4552433732313a2063616c6c6572206973206e6f7420746f6b656e206f776e6560408201526c1c881bdc88185c1c1c9bdd9959609a1b606082015260800190565b634e487b7160e01b600052602160045260246000fd5b634e487b7160e01b600052601160045260246000fd5b6000600182016113fe576113fe6113d6565b5060010190565b683d913730b6b29d101160b91b8152825160009061142a8160098501602088016110bf565b7f222c20226465736372697074696f6e223a20224e46542074686174207265666c6009918401918201527f65637473206f776e657273206d6f6f642e222c2022617474726962757465732260298201527f3a5b7b2274726169745f74797065223a226d6f6f64696e657373222c20227661604982015274363ab2911d1898183eae961134b6b0b3b2911d101160591b606982015283516114d181607e8401602088016110bf565b61227d60f01b607e9290910191820152608001949350505050565b600083516114fe8184602088016110bf565b8351908301906115128183602088016110bf565b01949350505050565b60208082526025908201527f4552433732313a207472616e736665722066726f6d20696e636f72726563742060408201526437bbb732b960d91b606082015260800190565b60208082526032908201527f4552433732313a207472616e7366657220746f206e6f6e20455243373231526560408201527131b2b4bb32b91034b6b83632b6b2b73a32b960711b606082015260800190565b8082018082111561028c5761028c6113d6565b6000826115e257634e487b7160e01b600052601260045260246000fd5b500490565b808202811582820484141761028c5761028c6113d6565b6001600160a01b0385811682528416602082015260408101839052608060608201819052600090611631908301846110e3565b9695505050505050565b60006020828403121561164d57600080fd5b81516110b88161108556fe4142434445464748494a4b4c4d4e4f505152535455565758595a6162636465666768696a6b6c6d6e6f707172737475767778797a303132333435363738392b2fa2646970667358221220d0ecd66d42bfb72ceb083e3e2ea86bea2a8aff1054cea67fe9821e136ddbd1ac64736f6c63430008130033",
    "linkReferences": {}
  },
  "methodIdentifiers": {
    "approve(address,uint256)": "095ea7b3",
    "balanceOf(address)": "70a08231",
    "flipMood(uint256)": "c1a147a0",
    "getApproved(uint256)": "081812fc",
    "isApprovedForAll(address,address)": "e985e9c5",
    "mintNft()": "c2229fea",
    "name()": "06fdde03",
    "ownerOf(uint256)": "6352211e",
    "safeTransferFrom(address,address,uint256)": "42842e0e",
    "safeTransferFrom(address,address,uint256,bytes)": "b88d4fde",
    "setApprovalForAll(address,bool)": "a22cb465",
    "supportsInterface(bytes4)": "01ffc9a7",
    "symbol()": "95d89b41",
    "tokenURI(uint256)": "c87b56dd",
    "transferFrom(address,address,uint256)": "23b872dd"
  },
  "id": 35
}