{
  "abi": [
    {
      "inputs": [
        {
          "internalType": "address[]",
          "name": "tokenAddresses",
          "type": "address[]"
        },
        {
          "internalType": "address[]",
          "name": "priceFeedAddresses",
          "type": "address[]"
        },
        {
          "internalType": "address",
          "name": "dscAddress",
          "type": "address"
        }
      ],
      "stateMutability": "nonpayable",
      "type": "constructor"
    },
    {
      "inputs": [
        {
          "internalType": "uint256",
          "name": "healthFactorValue",
          "type": "uint256"
        }
      ],
      "name": "DSCEngine__BreaksHealthFactor",
      "type": "error"
    },
    {
      "inputs": [],
      "name": "DSCEngine__HealthFactorNotImproved",
      "type": "error"
    },
    {
      "inputs": [],
      "name": "DSCEngine__HealthFactorOk",
      "type": "error"
    },
    {
      "inputs": [],
      "name": "DSCEngine__MintFailed",
      "type": "error"
    },
    {
      "inputs": [],
      "name": "DSCEngine__NeedsMoreThanZero",
      "type": "error"
    },
    {
      "inputs": [],
      "name": "DSCEngine__TokenAddressesAndPriceFeedAddressesMustBeSameLength",
      "type": "error"
    },
    {
      "inputs": [
        {
          "internalType": "address",
          "name": "token",
          "type": "address"
        }
      ],
      "name": "DSCEngine__TokenNotAllowed",
      "type": "error"
    },
    {
      "inputs": [],
      "name": "DSCEngine__TransferFailed",
      "type": "error"
    },
    {
      "inputs": [],
      "name": "ReentrancyGuardReentrantCall",
      "type": "error"
    },
    {
      "anonymous": false,
      "inputs": [
        {
          "indexed": true,
          "internalType": "address",
          "name": "user",
          "type": "address"
        },
        {
          "indexed": true,
          "internalType": "address",
          "name": "token",
          "type": "address"
        },
        {
          "indexed": true,
          "internalType": "uint256",
          "name": "amount",
          "type": "uint256"
        }
      ],
      "name": "CollateralDeposited",
      "type": "event"
    },
    {
      "anonymous": false,
      "inputs": [
        {
          "indexed": true,
          "internalType": "address",
          "name": "redeemedFrom",
          "type": "address"
        },
        {
          "indexed": true,
          "internalType": "address",
          "name": "redeemedTo",
          "type": "address"
        },
        {
          "indexed": true,
          "internalType": "address",
          "name": "token",
          "type": "address"
        },
        {
          "indexed": false,
          "internalType": "uint256",
          "name": "amount",
          "type": "uint256"
        }
      ],
      "name": "CollateralRedeemed",
      "type": "event"
    },
    {
      "inputs": [
        {
          "internalType": "uint256",
          "name": "amount",
          "type": "uint256"
        }
      ],
      "name": "burnDsc",
      "outputs": [],
      "stateMutability": "nonpayable",
      "type": "function"
    },
    {
      "inputs": [
        {
          "internalType": "uint256",
          "name": "totalDscMinted",
          "type": "uint256"
        },
        {
          "internalType": "uint256",
          "name": "collateralValueInUsd",
          "type": "uint256"
        }
      ],
      "name": "calculateHealthFactor",
      "outputs": [
        {
          "internalType": "uint256",
          "name": "",
          "type": "uint256"
        }
      ],
      "stateMutability": "pure",
      "type": "function"
    },
    {
      "inputs": [
        {
          "internalType": "address",
          "name": "tokenCollateralAddress",
          "type": "address"
        },
        {
          "internalType": "uint256",
          "name": "amountCollateral",
          "type": "uint256"
        }
      ],
      "name": "depositCollateral",
      "outputs": [],
      "stateMutability": "nonpayable",
      "type": "function"
    },
    {
      "inputs": [
        {
          "internalType": "address",
          "name": "tokenCollateralAddress",
          "type": "address"
        },
        {
          "internalType": "uint256",
          "name": "amountCollateral",
          "type": "uint256"
        },
        {
          "internalType": "uint256",
          "name": "amountDscToMint",
          "type": "uint256"
        }
      ],
      "name": "depositCollateralAndMintDsc",
      "outputs": [],
      "stateMutability": "nonpayable",
      "type": "function"
    },
    {
      "inputs": [
        {
          "internalType": "address",
          "name": "user",
          "type": "address"
        }
      ],
      "name": "getAccountCollateralValue",
      "outputs": [
        {
          "internalType": "uint256",
          "name": "totalCollateralValueInUsd",
          "type": "uint256"
        }
      ],
      "stateMutability": "view",
      "type": "function"
    },
    {
      "inputs": [
        {
          "internalType": "address",
          "name": "user",
          "type": "address"
        }
      ],
      "name": "getAccountInformation",
      "outputs": [
        {
          "internalType": "uint256",
          "name": "totalDscMinted",
          "type": "uint256"
        },
        {
          "internalType": "uint256",
          "name": "collateralValueInUsd",
          "type": "uint256"
        }
      ],
      "stateMutability": "view",
      "type": "function"
    },
    {
      "inputs": [],
      "name": "getAdditionalFeedPrecision",
      "outputs": [
        {
          "internalType": "uint256",
          "name": "",
          "type": "uint256"
        }
      ],
      "stateMutability": "pure",
      "type": "function"
    },
    {
      "inputs": [
        {
          "internalType": "address",
          "name": "user",
          "type": "address"
        },
        {
          "internalType": "address",
          "name": "token",
          "type": "address"
        }
      ],
      "name": "getCollateralBalanceOfUser",
      "outputs": [
        {
          "internalType": "uint256",
          "name": "",
          "type": "uint256"
        }
      ],
      "stateMutability": "view",
      "type": "function"
    },
    {
      "inputs": [
        {
          "internalType": "address",
          "name": "token",
          "type": "address"
        }
      ],
      "name": "getCollateralTokenPriceFeed",
      "outputs": [
        {
          "internalType": "address",
          "name": "",
          "type": "address"
        }
      ],
      "stateMutability": "view",
      "type": "function"
    },
    {
      "inputs": [],
      "name": "getCollateralTokens",
      "outputs": [
        {
          "internalType": "address[]",
          "name": "",
          "type": "address[]"
        }
      ],
      "stateMutability": "view",
      "type": "function"
    },
    {
      "inputs": [],
      "name": "getDsc",
      "outputs": [
        {
          "internalType": "address",
          "name": "",
          "type": "address"
        }
      ],
      "stateMutability": "view",
      "type": "function"
    },
    {
      "inputs": [
        {
          "internalType": "address",
          "name": "user",
          "type": "address"
        }
      ],
      "name": "getHealthFactor",
      "outputs": [
        {
          "internalType": "uint256",
          "name": "",
          "type": "uint256"
        }
      ],
      "stateMutability": "view",
      "type": "function"
    },
    {
      "inputs": [],
      "name": "getLiquidationBonus",
      "outputs": [
        {
          "internalType": "uint256",
          "name": "",
          "type": "uint256"
        }
      ],
      "stateMutability": "pure",
      "type": "function"
    },
    {
      "inputs": [],
      "name": "getLiquidationThreshold",
      "outputs": [
        {
          "internalType": "uint256",
          "name": "",
          "type": "uint256"
        }
      ],
      "stateMutability": "pure",
      "type": "function"
    },
    {
      "inputs": [],
      "name": "getMinHealthFactor",
      "outputs": [
        {
          "internalType": "uint256",
          "name": "",
          "type": "uint256"
        }
      ],
      "stateMutability": "pure",
      "type": "function"
    },
    {
      "inputs": [],
      "name": "getPrecision",
      "outputs": [
        {
          "internalType": "uint256",
          "name": "",
          "type": "uint256"
        }
      ],
      "stateMutability": "pure",
      "type": "function"
    },
    {
      "inputs": [
        {
          "internalType": "address",
          "name": "token",
          "type": "address"
        },
        {
          "internalType": "uint256",
          "name": "usdAmountInWei",
          "type": "uint256"
        }
      ],
      "name": "getTokenAmountFromUsd",
      "outputs": [
        {
          "internalType": "uint256",
          "name": "",
          "type": "uint256"
        }
      ],
      "stateMutability": "view",
      "type": "function"
    },
    {
      "inputs": [
        {
          "internalType": "address",
          "name": "token",
          "type": "address"
        },
        {
          "internalType": "uint256",
          "name": "amount",
          "type": "uint256"
        }
      ],
      "name": "getUsdValue",
      "outputs": [
        {
          "internalType": "uint256",
          "name": "",
          "type": "uint256"
        }
      ],
      "stateMutability": "view",
      "type": "function"
    },
    {
      "inputs": [
        {
          "internalType": "address",
          "name": "collateral",
          "type": "address"
        },
        {
          "internalType": "address",
          "name": "user",
          "type": "address"
        },
        {
          "internalType": "uint256",
          "name": "debtToCover",
          "type": "uint256"
        }
      ],
      "name": "liquidate",
      "outputs": [],
      "stateMutability": "nonpayable",
      "type": "function"
    },
    {
      "inputs": [
        {
          "internalType": "uint256",
          "name": "amountDscToMint",
          "type": "uint256"
        }
      ],
      "name": "mintDsc",
      "outputs": [],
      "stateMutability": "nonpayable",
      "type": "function"
    },
    {
      "inputs": [
        {
          "internalType": "address",
          "name": "tokenCollateralAddress",
          "type": "address"
        },
        {
          "internalType": "uint256",
          "name": "amountCollateral",
          "type": "uint256"
        }
      ],
      "name": "redeemCollateral",
      "outputs": [],
      "stateMutability": "nonpayable",
      "type": "function"
    },
    {
      "inputs": [
        {
          "internalType": "address",
          "name": "tokenCollateralAddress",
          "type": "address"
        },
        {
          "internalType": "uint256",
          "name": "amountCollateral",
          "type": "uint256"
        },
        {
          "internalType": "uint256",
          "name": "amountDscToBurn",
          "type": "uint256"
        }
      ],
      "name": "redeemCollateralForDsc",
      "outputs": [],
      "stateMutability": "nonpayable",
      "type": "function"
    }
  ],
  "bytecode": {
    "object": "0x60a06040523480156200001157600080fd5b50604051620013fa380380620013fa833981016040819052620000349162000248565b600160005581518351146200005c57604051635ae2e09360e11b815260040160405180910390fd5b60005b835181101562000152578281815181106200007e576200007e620002c4565b6020026020010151600160008684815181106200009f576200009f620002c4565b60200260200101516001600160a01b03166001600160a01b0316815260200190815260200160002060006101000a8154816001600160a01b0302191690836001600160a01b031602179055506004848281518110620001025762000102620002c4565b60209081029190910181015182546001810184556000938452919092200180546001600160a01b0319166001600160a01b03909216919091179055806200014981620002da565b9150506200005f565b506001600160a01b031660805250620003029050565b634e487b7160e01b600052604160045260246000fd5b80516001600160a01b03811681146200019657600080fd5b919050565b600082601f830112620001ad57600080fd5b815160206001600160401b0380831115620001cc57620001cc62000168565b8260051b604051601f19603f83011681018181108482111715620001f457620001f462000168565b6040529384528581018301938381019250878511156200021357600080fd5b83870191505b848210156200023d576200022d826200017e565b8352918301919083019062000219565b979650505050505050565b6000806000606084860312156200025e57600080fd5b83516001600160401b03808211156200027657600080fd5b62000284878388016200019b565b945060208601519150808211156200029b57600080fd5b50620002aa868287016200019b565b925050620002bb604085016200017e565b90509250925092565b634e487b7160e01b600052603260045260246000fd5b600060018201620002fb57634e487b7160e01b600052601160045260246000fd5b5060010190565b6080516110c762000333600039600081816102d70152818161093301528181610c5d0152610d0201526110c76000f3fe608060405234801561001057600080fd5b50600436106101425760003560e01c80639acd81b3116100b8578063c9b7c3271161007c578063c9b7c327146102c2578063deb8e018146102d5578063e90db8a3146102fb578063f419ea9c1461030e578063f687660814610321578063fe6bcd7c1461033457600080fd5b80639acd81b314610261578063a5d5db0c14610274578063afea2e4814610287578063b58eb63f1461029a578063c660d112146102af57600080fd5b806359aa9e721161010a57806359aa9e72146102065780637be564fc1461020d5780637d1a4450146102355780638c1ae6c8146102485780638f63d667146102565780639670c0bc1461024857600080fd5b806301f72884146101475780631c08adda1461016d57806326c01303146101b157806331e92b83146101c65780634ae9b8bc146101ff575b600080fd5b61015a610155366004610dcf565b610347565b6040519081526020015b60405180910390f35b61019961017b366004610e0d565b6001600160a01b039081166000908152600160205260409020541690565b6040516001600160a01b039091168152602001610164565b6101c46101bf366004610e28565b61035c565b005b61015a6101d4366004610e64565b6001600160a01b03918216600090815260026020908152604080832093909416825291909152205490565b603261015a565b600a61015a565b61022061021b366004610e0d565b610456565b60408051928352602083019190915201610164565b61015a610243366004610e0d565b61046c565b670de0b6b3a764000061015a565b6402540be40061015a565b6101c461026f366004610e97565b6104f4565b6101c4610282366004610e97565b610542565b61015a610295366004610e97565b6106cb565b6102a261079b565b6040516101649190610ec1565b61015a6102bd366004610e97565b6107fd565b6101c46102d0366004610f0e565b6108bc565b7f0000000000000000000000000000000000000000000000000000000000000000610199565b6101c4610309366004610f27565b6109d7565b6101c461031c366004610f27565b6109ea565b6101c461032f366004610f0e565b6109fd565b61015a610342366004610e0d565b610a2a565b60006103538383610a35565b90505b92915050565b808060000361037e5760405163cb1d3f7d60e01b815260040160405180910390fd5b610386610a88565b600061039184610ab2565b9050670de0b6b3a764000081106103bb5760405163032c072f60e41b815260040160405180910390fd5b60006103c786856106cb565b9050600060646103d8600a84610f70565b6103e29190610f87565b905060006103f08284610fa9565b90506103fe88828933610ace565b610409868833610c01565b600061041488610ab2565b90506001811015610438576040516303e141b160e51b815260040160405180910390fd5b61044133610d6c565b50505050506104506001600055565b50505050565b60008061046283610da5565b9094909350915050565b6000805b6004548110156104ee5760006004828154811061048f5761048f610fbc565b60009182526020808320909101546001600160a01b038781168452600283526040808520919092168085529252909120549091506104cd82826107fd565b6104d79085610fa9565b9350505080806104e690610fd2565b915050610470565b50919050565b80806000036105165760405163cb1d3f7d60e01b815260040160405180910390fd5b61051e610a88565b61052a83833333610ace565b61053333610d6c565b61053d6001600055565b505050565b80806000036105645760405163cb1d3f7d60e01b815260040160405180910390fd5b6001600160a01b038084166000908152600160205260409020548491166105ae5760405163cf39359560e01b81526001600160a01b03821660048201526024015b60405180910390fd5b6105b6610a88565b3360009081526002602090815260408083206001600160a01b0388168452909152812080548592906105e9908490610fa9565b909155505060405183906001600160a01b0386169033907ff1c0dd7e9b98bbff859029005ef89b127af049cd18df1a8d79f0b7e019911e5690600090a46040516323b872dd60e01b8152336004820152306024820152604481018490526000906001600160a01b038616906323b872dd906064016020604051808303816000875af115801561067c573d6000803e3d6000fd5b505050506040513d601f19601f820116820180604052508101906106a09190610feb565b9050806106c057604051634dc34d1760e01b815260040160405180910390fd5b506104506001600055565b6001600160a01b038281166000908152600160205260408082205490516315d0e4b560e11b81529216600483018190529091829073__$1f06ac8d622ce42796cee98ba1044ce165$__90632ba1c96a9060240160a060405180830381865af415801561073b573d6000803e3d6000fd5b505050506040513d601f19601f8201168201806040525081019061075f919061102e565b5050509150506402540be400816107769190610f70565b610788670de0b6b3a764000086610f70565b6107929190610f87565b95945050505050565b606060048054806020026020016040519081016040528092919081815260200182805480156107f357602002820191906000526020600020905b81546001600160a01b031681526001909101906020018083116107d5575b5050505050905090565b6001600160a01b038281166000908152600160205260408082205490516315d0e4b560e11b81529216600483018190529091829073__$1f06ac8d622ce42796cee98ba1044ce165$__90632ba1c96a9060240160a060405180830381865af415801561086d573d6000803e3d6000fd5b505050506040513d601f19601f82011682018060405250810190610891919061102e565b505050915050670de0b6b3a7640000846402540be400836108b29190610f70565b6107889190610f70565b80806000036108de5760405163cb1d3f7d60e01b815260040160405180910390fd5b6108e6610a88565b3360009081526003602052604081208054849290610905908490610fa9565b90915550610914905033610d6c565b6040516340c10f1960e01b8152336004820152602481018390526000907f00000000000000000000000000000000000000000000000000000000000000006001600160a01b0316906340c10f19906044016020604051808303816000875af1158015610984573d6000803e3d6000fd5b505050506040513d601f19601f820116820180604052508101906109a89190610feb565b9050806109c8576040516330eb0fc960e01b815260040160405180910390fd5b506109d36001600055565b5050565b6109e18383610542565b61053d816108bc565b6109f3816109fd565b61053d83836104f4565b8080600003610a1f5760405163cb1d3f7d60e01b815260040160405180910390fd5b6109d3823333610c01565b600061035682610ab2565b600082600003610a485750600019610356565b60006064610a57603285610f70565b610a619190610f87565b905083610a76670de0b6b3a764000083610f70565b610a809190610f87565b949350505050565b600260005403610aab57604051633ee5aeb560e01b815260040160405180910390fd5b6002600055565b6000806000610ac084610da5565b91509150610a808282610a35565b6001600160a01b03808316600090815260026020908152604080832093881683529290529081208054859290610b0590849061107e565b92505081905550836001600160a01b0316816001600160a01b0316836001600160a01b03167fb292db12b8dfa23b760ee5e3bd1d3be184cd8f0eeeacd27ce120d4de4e4721f686604051610b5b91815260200190565b60405180910390a460405163a9059cbb60e01b81526001600160a01b038281166004830152602482018590526000919086169063a9059cbb906044016020604051808303816000875af1158015610bb6573d6000803e3d6000fd5b505050506040513d601f19601f82011682018060405250810190610bda9190610feb565b905080610bfa57604051634dc34d1760e01b815260040160405180910390fd5b5050505050565b6001600160a01b03821660009081526003602052604081208054859290610c2990849061107e565b90915550506040516323b872dd60e01b81526001600160a01b038281166004830152306024830152604482018590526000917f0000000000000000000000000000000000000000000000000000000000000000909116906323b872dd906064016020604051808303816000875af1158015610ca8573d6000803e3d6000fd5b505050506040513d601f19601f82011682018060405250810190610ccc9190610feb565b905080610cec57604051634dc34d1760e01b815260040160405180910390fd5b604051630852cd8d60e31b8152600481018590527f00000000000000000000000000000000000000000000000000000000000000006001600160a01b0316906342966c6890602401600060405180830381600087803b158015610d4e57600080fd5b505af1158015610d62573d6000803e3d6000fd5b5050505050505050565b6000610d7782610ab2565b9050670de0b6b3a76400008110156109d35760405163e580cc6160e01b8152600481018290526024016105a5565b6001600160a01b03811660009081526003602052604081205490610dc88361046c565b9050915091565b60008060408385031215610de257600080fd5b50508035926020909101359150565b80356001600160a01b0381168114610e0857600080fd5b919050565b600060208284031215610e1f57600080fd5b61035382610df1565b600080600060608486031215610e3d57600080fd5b610e4684610df1565b9250610e5460208501610df1565b9150604084013590509250925092565b60008060408385031215610e7757600080fd5b610e8083610df1565b9150610e8e60208401610df1565b90509250929050565b60008060408385031215610eaa57600080fd5b610eb383610df1565b946020939093013593505050565b6020808252825182820181905260009190848201906040850190845b81811015610f025783516001600160a01b031683529284019291840191600101610edd565b50909695505050505050565b600060208284031215610f2057600080fd5b5035919050565b600080600060608486031215610f3c57600080fd5b610f4584610df1565b95602085013595506040909401359392505050565b634e487b7160e01b600052601160045260246000fd5b808202811582820484141761035657610356610f5a565b600082610fa457634e487b7160e01b600052601260045260246000fd5b500490565b8082018082111561035657610356610f5a565b634e487b7160e01b600052603260045260246000fd5b600060018201610fe457610fe4610f5a565b5060010190565b600060208284031215610ffd57600080fd5b8151801515811461100d57600080fd5b9392505050565b805169ffffffffffffffffffff81168114610e0857600080fd5b600080600080600060a0868803121561104657600080fd5b61104f86611014565b945060208601519350604086015192506060860151915061107260808701611014565b90509295509295909350565b8181038181111561035657610356610f5a56fea2646970667358221220fd0b5ba7fa6bb683a1f1e6bab01e91852c327d060523a76bbc620691310e2e9564736f6c63430008130033",
    "linkReferences": {
      "src/libraries/OracleLib.sol": {
        "OracleLib": [
          {
            "start": 2612,
            "length": 20
          },
          {
            "start": 2918,
            "length": 20
          }
        ]
      }
    }
  },
  "methodIdentifiers": {
    "burnDsc(uint256)": "f6876608",
    "calculateHealthFactor(uint256,uint256)": "01f72884",
    "depositCollateral(address,uint256)": "a5d5db0c",
    "depositCollateralAndMintDsc(address,uint256,uint256)": "e90db8a3",
    "getAccountCollateralValue(address)": "7d1a4450",
    "getAccountInformation(address)": "7be564fc",
    "getAdditionalFeedPrecision()": "8f63d667",
    "getCollateralBalanceOfUser(address,address)": "31e92b83",
    "getCollateralTokenPriceFeed(address)": "1c08adda",
    "getCollateralTokens()": "b58eb63f",
    "getDsc()": "deb8e018",
    "getHealthFactor(address)": "fe6bcd7c",
    "getLiquidationBonus()": "59aa9e72",
    "getLiquidationThreshold()": "4ae9b8bc",
    "getMinHealthFactor()": "8c1ae6c8",
    "getPrecision()": "9670c0bc",
    "getTokenAmountFromUsd(address,uint256)": "afea2e48",
    "getUsdValue(address,uint256)": "c660d112",
    "liquidate(address,address,uint256)": "26c01303",
    "mintDsc(uint256)": "c9b7c327",
    "redeemCollateral(address,uint256)": "9acd81b3",
    "redeemCollateralForDsc(address,uint256,uint256)": "f419ea9c"
  },
  "id": 30
}