{
  "abi": [
    {
      "inputs": [
        {
          "internalType": "address[]",
          "name": "tokenAddresses",
          "type": "address[]"
        },
        {
          "internalType": "address[]",
          "name": "priceFeedAddresses",
          "type": "address[]"
        },
        {
          "internalType": "address",
          "name": "dscAddress",
          "type": "address"
        }
      ],
      "stateMutability": "nonpayable",
      "type": "constructor"
    },
    {
      "inputs": [
        {
          "internalType": "uint256",
          "name": "healthFactorValue",
          "type": "uint256"
        }
      ],
      "name": "DSCEngine__BreaksHealthFactor",
      "type": "error"
    },
    {
      "inputs": [],
      "name": "DSCEngine__HealthFactorNotImproved",
      "type": "error"
    },
    {
      "inputs": [],
      "name": "DSCEngine__HealthFactorOk",
      "type": "error"
    },
    {
      "inputs": [],
      "name": "DSCEngine__MintFailed",
      "type": "error"
    },
    {
      "inputs": [],
      "name": "DSCEngine__NeedsMoreThanZero",
      "type": "error"
    },
    {
      "inputs": [],
      "name": "DSCEngine__TokenAddressesAndPriceFeedAddressesMustBeSameLength",
      "type": "error"
    },
    {
      "inputs": [
        {
          "internalType": "address",
          "name": "token",
          "type": "address"
        }
      ],
      "name": "DSCEngine__TokenNotAllowed",
      "type": "error"
    },
    {
      "inputs": [],
      "name": "DSCEngine__TransferFailed",
      "type": "error"
    },
    {
      "inputs": [],
      "name": "ReentrancyGuardReentrantCall",
      "type": "error"
    },
    {
      "anonymous": false,
      "inputs": [
        {
          "indexed": true,
          "internalType": "address",
          "name": "user",
          "type": "address"
        },
        {
          "indexed": true,
          "internalType": "address",
          "name": "token",
          "type": "address"
        },
        {
          "indexed": true,
          "internalType": "uint256",
          "name": "amount",
          "type": "uint256"
        }
      ],
      "name": "CollateralDeposited",
      "type": "event"
    },
    {
      "anonymous": false,
      "inputs": [
        {
          "indexed": true,
          "internalType": "address",
          "name": "redeemedFrom",
          "type": "address"
        },
        {
          "indexed": true,
          "internalType": "address",
          "name": "redeemedTo",
          "type": "address"
        },
        {
          "indexed": true,
          "internalType": "address",
          "name": "token",
          "type": "address"
        },
        {
          "indexed": false,
          "internalType": "uint256",
          "name": "amount",
          "type": "uint256"
        }
      ],
      "name": "CollateralRedeemed",
      "type": "event"
    },
    {
      "inputs": [
        {
          "internalType": "uint256",
          "name": "amount",
          "type": "uint256"
        }
      ],
      "name": "burnDsc",
      "outputs": [],
      "stateMutability": "nonpayable",
      "type": "function"
    },
    {
      "inputs": [
        {
          "internalType": "uint256",
          "name": "totalDscMinted",
          "type": "uint256"
        },
        {
          "internalType": "uint256",
          "name": "collateralValueInUsd",
          "type": "uint256"
        }
      ],
      "name": "calculateHealthFactor",
      "outputs": [
        {
          "internalType": "uint256",
          "name": "",
          "type": "uint256"
        }
      ],
      "stateMutability": "pure",
      "type": "function"
    },
    {
      "inputs": [
        {
          "internalType": "address",
          "name": "tokenCollateralAddress",
          "type": "address"
        },
        {
          "internalType": "uint256",
          "name": "amountCollateral",
          "type": "uint256"
        }
      ],
      "name": "depositCollateral",
      "outputs": [],
      "stateMutability": "nonpayable",
      "type": "function"
    },
    {
      "inputs": [
        {
          "internalType": "address",
          "name": "tokenCollateralAddress",
          "type": "address"
        },
        {
          "internalType": "uint256",
          "name": "amountCollateral",
          "type": "uint256"
        },
        {
          "internalType": "uint256",
          "name": "amountDscToMint",
          "type": "uint256"
        }
      ],
      "name": "depositCollateralAndMintDsc",
      "outputs": [],
      "stateMutability": "nonpayable",
      "type": "function"
    },
    {
      "inputs": [
        {
          "internalType": "address",
          "name": "user",
          "type": "address"
        }
      ],
      "name": "getAccountCollateralValue",
      "outputs": [
        {
          "internalType": "uint256",
          "name": "totalCollateralValueInUsd",
          "type": "uint256"
        }
      ],
      "stateMutability": "view",
      "type": "function"
    },
    {
      "inputs": [
        {
          "internalType": "address",
          "name": "user",
          "type": "address"
        }
      ],
      "name": "getAccountInformation",
      "outputs": [
        {
          "internalType": "uint256",
          "name": "totalDscMinted",
          "type": "uint256"
        },
        {
          "internalType": "uint256",
          "name": "collateralValueInUsd",
          "type": "uint256"
        }
      ],
      "stateMutability": "view",
      "type": "function"
    },
    {
      "inputs": [],
      "name": "getAdditionalFeedPrecision",
      "outputs": [
        {
          "internalType": "uint256",
          "name": "",
          "type": "uint256"
        }
      ],
      "stateMutability": "pure",
      "type": "function"
    },
    {
      "inputs": [
        {
          "internalType": "address",
          "name": "user",
          "type": "address"
        },
        {
          "internalType": "address",
          "name": "token",
          "type": "address"
        }
      ],
      "name": "getCollateralBalanceOfUser",
      "outputs": [
        {
          "internalType": "uint256",
          "name": "",
          "type": "uint256"
        }
      ],
      "stateMutability": "view",
      "type": "function"
    },
    {
      "inputs": [
        {
          "internalType": "address",
          "name": "token",
          "type": "address"
        }
      ],
      "name": "getCollateralTokenPriceFeed",
      "outputs": [
        {
          "internalType": "address",
          "name": "",
          "type": "address"
        }
      ],
      "stateMutability": "view",
      "type": "function"
    },
    {
      "inputs": [],
      "name": "getCollateralTokens",
      "outputs": [
        {
          "internalType": "address[]",
          "name": "",
          "type": "address[]"
        }
      ],
      "stateMutability": "view",
      "type": "function"
    },
    {
      "inputs": [],
      "name": "getDsc",
      "outputs": [
        {
          "internalType": "address",
          "name": "",
          "type": "address"
        }
      ],
      "stateMutability": "view",
      "type": "function"
    },
    {
      "inputs": [
        {
          "internalType": "address",
          "name": "user",
          "type": "address"
        }
      ],
      "name": "getHealthFactor",
      "outputs": [
        {
          "internalType": "uint256",
          "name": "",
          "type": "uint256"
        }
      ],
      "stateMutability": "view",
      "type": "function"
    },
    {
      "inputs": [],
      "name": "getLiquidationBonus",
      "outputs": [
        {
          "internalType": "uint256",
          "name": "",
          "type": "uint256"
        }
      ],
      "stateMutability": "pure",
      "type": "function"
    },
    {
      "inputs": [],
      "name": "getLiquidationThreshold",
      "outputs": [
        {
          "internalType": "uint256",
          "name": "",
          "type": "uint256"
        }
      ],
      "stateMutability": "pure",
      "type": "function"
    },
    {
      "inputs": [],
      "name": "getMinHealthFactor",
      "outputs": [
        {
          "internalType": "uint256",
          "name": "",
          "type": "uint256"
        }
      ],
      "stateMutability": "pure",
      "type": "function"
    },
    {
      "inputs": [],
      "name": "getPrecision",
      "outputs": [
        {
          "internalType": "uint256",
          "name": "",
          "type": "uint256"
        }
      ],
      "stateMutability": "pure",
      "type": "function"
    },
    {
      "inputs": [
        {
          "internalType": "address",
          "name": "token",
          "type": "address"
        },
        {
          "internalType": "uint256",
          "name": "usdAmountInWei",
          "type": "uint256"
        }
      ],
      "name": "getTokenAmountFromUsd",
      "outputs": [
        {
          "internalType": "uint256",
          "name": "",
          "type": "uint256"
        }
      ],
      "stateMutability": "view",
      "type": "function"
    },
    {
      "inputs": [
        {
          "internalType": "address",
          "name": "token",
          "type": "address"
        },
        {
          "internalType": "uint256",
          "name": "amount",
          "type": "uint256"
        }
      ],
      "name": "getUsdValue",
      "outputs": [
        {
          "internalType": "uint256",
          "name": "",
          "type": "uint256"
        }
      ],
      "stateMutability": "view",
      "type": "function"
    },
    {
      "inputs": [
        {
          "internalType": "address",
          "name": "collateral",
          "type": "address"
        },
        {
          "internalType": "address",
          "name": "user",
          "type": "address"
        },
        {
          "internalType": "uint256",
          "name": "debtToCover",
          "type": "uint256"
        }
      ],
      "name": "liquidate",
      "outputs": [],
      "stateMutability": "nonpayable",
      "type": "function"
    },
    {
      "inputs": [
        {
          "internalType": "uint256",
          "name": "amountDscToMint",
          "type": "uint256"
        }
      ],
      "name": "mintDsc",
      "outputs": [],
      "stateMutability": "nonpayable",
      "type": "function"
    },
    {
      "inputs": [
        {
          "internalType": "address",
          "name": "tokenCollateralAddress",
          "type": "address"
        },
        {
          "internalType": "uint256",
          "name": "amountCollateral",
          "type": "uint256"
        }
      ],
      "name": "redeemCollateral",
      "outputs": [],
      "stateMutability": "nonpayable",
      "type": "function"
    },
    {
      "inputs": [
        {
          "internalType": "address",
          "name": "tokenCollateralAddress",
          "type": "address"
        },
        {
          "internalType": "uint256",
          "name": "amountCollateral",
          "type": "uint256"
        },
        {
          "internalType": "uint256",
          "name": "amountDscToBurn",
          "type": "uint256"
        }
      ],
      "name": "redeemCollateralForDsc",
      "outputs": [],
      "stateMutability": "nonpayable",
      "type": "function"
    }
  ],
  "bytecode": {
    "object": "0x60a06040523480156200001157600080fd5b50604051620013d2380380620013d2833981016040819052620000349162000248565b600160005581518351146200005c57604051635ae2e09360e11b815260040160405180910390fd5b60005b835181101562000152578281815181106200007e576200007e620002c4565b6020026020010151600160008684815181106200009f576200009f620002c4565b60200260200101516001600160a01b03166001600160a01b0316815260200190815260200160002060006101000a8154816001600160a01b0302191690836001600160a01b031602179055506004848281518110620001025762000102620002c4565b60209081029190910181015182546001810184556000938452919092200180546001600160a01b0319166001600160a01b03909216919091179055806200014981620002da565b9150506200005f565b506001600160a01b031660805250620003029050565b634e487b7160e01b600052604160045260246000fd5b80516001600160a01b03811681146200019657600080fd5b919050565b600082601f830112620001ad57600080fd5b815160206001600160401b0380831115620001cc57620001cc62000168565b8260051b604051601f19603f83011681018181108482111715620001f457620001f462000168565b6040529384528581018301938381019250878511156200021357600080fd5b83870191505b848210156200023d576200022d826200017e565b8352918301919083019062000219565b979650505050505050565b6000806000606084860312156200025e57600080fd5b83516001600160401b03808211156200027657600080fd5b62000284878388016200019b565b945060208601519150808211156200029b57600080fd5b50620002aa868287016200019b565b925050620002bb604085016200017e565b90509250925092565b634e487b7160e01b600052603260045260246000fd5b600060018201620002fb57634e487b7160e01b600052601160045260246000fd5b5060010190565b60805161109f62000333600039600081816102d70152818161090b01528181610c350152610cda015261109f6000f3fe608060405234801561001057600080fd5b50600436106101425760003560e01c80639acd81b3116100b8578063c9b7c3271161007c578063c9b7c327146102c2578063deb8e018146102d5578063e90db8a3146102fb578063f419ea9c1461030e578063f687660814610321578063fe6bcd7c1461033457600080fd5b80639acd81b314610261578063a5d5db0c14610274578063afea2e4814610287578063b58eb63f1461029a578063c660d112146102af57600080fd5b806359aa9e721161010a57806359aa9e72146102065780637be564fc1461020d5780637d1a4450146102355780638c1ae6c8146102485780638f63d667146102565780639670c0bc1461024857600080fd5b806301f72884146101475780631c08adda1461016d57806326c01303146101b157806331e92b83146101c65780634ae9b8bc146101ff575b600080fd5b61015a610155366004610da7565b610347565b6040519081526020015b60405180910390f35b61019961017b366004610de5565b6001600160a01b039081166000908152600160205260409020541690565b6040516001600160a01b039091168152602001610164565b6101c46101bf366004610e00565b61035c565b005b61015a6101d4366004610e3c565b6001600160a01b03918216600090815260026020908152604080832093909416825291909152205490565b603261015a565b600a61015a565b61022061021b366004610de5565b610456565b60408051928352602083019190915201610164565b61015a610243366004610de5565b61046c565b670de0b6b3a764000061015a565b6402540be40061015a565b6101c461026f366004610e6f565b6104f4565b6101c4610282366004610e6f565b610542565b61015a610295366004610e6f565b6106cb565b6102a2610787565b6040516101649190610e99565b61015a6102bd366004610e6f565b6107e9565b6101c46102d0366004610ee6565b610894565b7f0000000000000000000000000000000000000000000000000000000000000000610199565b6101c4610309366004610eff565b6109af565b6101c461031c366004610eff565b6109c2565b6101c461032f366004610ee6565b6109d5565b61015a610342366004610de5565b610a02565b60006103538383610a0d565b90505b92915050565b808060000361037e5760405163cb1d3f7d60e01b815260040160405180910390fd5b610386610a60565b600061039184610a8a565b9050670de0b6b3a764000081106103bb5760405163032c072f60e41b815260040160405180910390fd5b60006103c786856106cb565b9050600060646103d8600a84610f48565b6103e29190610f5f565b905060006103f08284610f81565b90506103fe88828933610aa6565b610409868833610bd9565b600061041488610a8a565b90506001811015610438576040516303e141b160e51b815260040160405180910390fd5b61044133610d44565b50505050506104506001600055565b50505050565b60008061046283610d7d565b9094909350915050565b6000805b6004548110156104ee5760006004828154811061048f5761048f610f94565b60009182526020808320909101546001600160a01b038781168452600283526040808520919092168085529252909120549091506104cd82826107e9565b6104d79085610f81565b9350505080806104e690610faa565b915050610470565b50919050565b80806000036105165760405163cb1d3f7d60e01b815260040160405180910390fd5b61051e610a60565b61052a83833333610aa6565b61053333610d44565b61053d6001600055565b505050565b80806000036105645760405163cb1d3f7d60e01b815260040160405180910390fd5b6001600160a01b038084166000908152600160205260409020548491166105ae5760405163cf39359560e01b81526001600160a01b03821660048201526024015b60405180910390fd5b6105b6610a60565b3360009081526002602090815260408083206001600160a01b0388168452909152812080548592906105e9908490610f81565b909155505060405183906001600160a01b0386169033907ff1c0dd7e9b98bbff859029005ef89b127af049cd18df1a8d79f0b7e019911e5690600090a46040516323b872dd60e01b8152336004820152306024820152604481018490526000906001600160a01b038616906323b872dd906064016020604051808303816000875af115801561067c573d6000803e3d6000fd5b505050506040513d601f19601f820116820180604052508101906106a09190610fc3565b9050806106c057604051634dc34d1760e01b815260040160405180910390fd5b506104506001600055565b6001600160a01b03808316600090815260016020526040808220548151633fabe5a360e21b81529151929316918391839163feaf968c9160048082019260a0929091908290030181865afa158015610727573d6000803e3d6000fd5b505050506040513d601f19601f8201168201806040525081019061074b9190611006565b5050509150506402540be400816107629190610f48565b610774670de0b6b3a764000086610f48565b61077e9190610f5f565b95945050505050565b606060048054806020026020016040519081016040528092919081815260200182805480156107df57602002820191906000526020600020905b81546001600160a01b031681526001909101906020018083116107c1575b5050505050905090565b6001600160a01b03808316600090815260016020526040808220548151633fabe5a360e21b81529151929316918391839163feaf968c9160048082019260a0929091908290030181865afa158015610845573d6000803e3d6000fd5b505050506040513d601f19601f820116820180604052508101906108699190611006565b505050915050670de0b6b3a7640000846402540be4008361088a9190610f48565b6107749190610f48565b80806000036108b65760405163cb1d3f7d60e01b815260040160405180910390fd5b6108be610a60565b33600090815260036020526040812080548492906108dd908490610f81565b909155506108ec905033610d44565b6040516340c10f1960e01b8152336004820152602481018390526000907f00000000000000000000000000000000000000000000000000000000000000006001600160a01b0316906340c10f19906044016020604051808303816000875af115801561095c573d6000803e3d6000fd5b505050506040513d601f19601f820116820180604052508101906109809190610fc3565b9050806109a0576040516330eb0fc960e01b815260040160405180910390fd5b506109ab6001600055565b5050565b6109b98383610542565b61053d81610894565b6109cb816109d5565b61053d83836104f4565b80806000036109f75760405163cb1d3f7d60e01b815260040160405180910390fd5b6109ab823333610bd9565b600061035682610a8a565b600082600003610a205750600019610356565b60006064610a2f603285610f48565b610a399190610f5f565b905083610a4e670de0b6b3a764000083610f48565b610a589190610f5f565b949350505050565b600260005403610a8357604051633ee5aeb560e01b815260040160405180910390fd5b6002600055565b6000806000610a9884610d7d565b91509150610a588282610a0d565b6001600160a01b03808316600090815260026020908152604080832093881683529290529081208054859290610add908490611056565b92505081905550836001600160a01b0316816001600160a01b0316836001600160a01b03167fb292db12b8dfa23b760ee5e3bd1d3be184cd8f0eeeacd27ce120d4de4e4721f686604051610b3391815260200190565b60405180910390a460405163a9059cbb60e01b81526001600160a01b038281166004830152602482018590526000919086169063a9059cbb906044016020604051808303816000875af1158015610b8e573d6000803e3d6000fd5b505050506040513d601f19601f82011682018060405250810190610bb29190610fc3565b905080610bd257604051634dc34d1760e01b815260040160405180910390fd5b5050505050565b6001600160a01b03821660009081526003602052604081208054859290610c01908490611056565b90915550506040516323b872dd60e01b81526001600160a01b038281166004830152306024830152604482018590526000917f0000000000000000000000000000000000000000000000000000000000000000909116906323b872dd906064016020604051808303816000875af1158015610c80573d6000803e3d6000fd5b505050506040513d601f19601f82011682018060405250810190610ca49190610fc3565b905080610cc457604051634dc34d1760e01b815260040160405180910390fd5b604051630852cd8d60e31b8152600481018590527f00000000000000000000000000000000000000000000000000000000000000006001600160a01b0316906342966c6890602401600060405180830381600087803b158015610d2657600080fd5b505af1158015610d3a573d6000803e3d6000fd5b5050505050505050565b6000610d4f82610a8a565b9050670de0b6b3a76400008110156109ab5760405163e580cc6160e01b8152600481018290526024016105a5565b6001600160a01b03811660009081526003602052604081205490610da08361046c565b9050915091565b60008060408385031215610dba57600080fd5b50508035926020909101359150565b80356001600160a01b0381168114610de057600080fd5b919050565b600060208284031215610df757600080fd5b61035382610dc9565b600080600060608486031215610e1557600080fd5b610e1e84610dc9565b9250610e2c60208501610dc9565b9150604084013590509250925092565b60008060408385031215610e4f57600080fd5b610e5883610dc9565b9150610e6660208401610dc9565b90509250929050565b60008060408385031215610e8257600080fd5b610e8b83610dc9565b946020939093013593505050565b6020808252825182820181905260009190848201906040850190845b81811015610eda5783516001600160a01b031683529284019291840191600101610eb5565b50909695505050505050565b600060208284031215610ef857600080fd5b5035919050565b600080600060608486031215610f1457600080fd5b610f1d84610dc9565b95602085013595506040909401359392505050565b634e487b7160e01b600052601160045260246000fd5b808202811582820484141761035657610356610f32565b600082610f7c57634e487b7160e01b600052601260045260246000fd5b500490565b8082018082111561035657610356610f32565b634e487b7160e01b600052603260045260246000fd5b600060018201610fbc57610fbc610f32565b5060010190565b600060208284031215610fd557600080fd5b81518015158114610fe557600080fd5b9392505050565b805169ffffffffffffffffffff81168114610de057600080fd5b600080600080600060a0868803121561101e57600080fd5b61102786610fec565b945060208601519350604086015192506060860151915061104a60808701610fec565b90509295509295909350565b8181038181111561035657610356610f3256fea2646970667358221220f57d8b2dd49e987e19140409a53cb038383d5d9503839f403a0ffd1fae158fff64736f6c63430008130033",
    "linkReferences": {}
  },
  "methodIdentifiers": {
    "burnDsc(uint256)": "f6876608",
    "calculateHealthFactor(uint256,uint256)": "01f72884",
    "depositCollateral(address,uint256)": "a5d5db0c",
    "depositCollateralAndMintDsc(address,uint256,uint256)": "e90db8a3",
    "getAccountCollateralValue(address)": "7d1a4450",
    "getAccountInformation(address)": "7be564fc",
    "getAdditionalFeedPrecision()": "8f63d667",
    "getCollateralBalanceOfUser(address,address)": "31e92b83",
    "getCollateralTokenPriceFeed(address)": "1c08adda",
    "getCollateralTokens()": "b58eb63f",
    "getDsc()": "deb8e018",
    "getHealthFactor(address)": "fe6bcd7c",
    "getLiquidationBonus()": "59aa9e72",
    "getLiquidationThreshold()": "4ae9b8bc",
    "getMinHealthFactor()": "8c1ae6c8",
    "getPrecision()": "9670c0bc",
    "getTokenAmountFromUsd(address,uint256)": "afea2e48",
    "getUsdValue(address,uint256)": "c660d112",
    "liquidate(address,address,uint256)": "26c01303",
    "mintDsc(uint256)": "c9b7c327",
    "redeemCollateral(address,uint256)": "9acd81b3",
    "redeemCollateralForDsc(address,uint256,uint256)": "f419ea9c"
  },
  "id": 30
}