{
  "abi": [
    {
      "inputs": [
        {
          "internalType": "address[]",
          "name": "tokenAddresses",
          "type": "address[]"
        },
        {
          "internalType": "address[]",
          "name": "priceFeedAddresses",
          "type": "address[]"
        },
        {
          "internalType": "address",
          "name": "dscAddress",
          "type": "address"
        }
      ],
      "stateMutability": "nonpayable",
      "type": "constructor"
    },
    {
      "inputs": [
        {
          "internalType": "uint256",
          "name": "healthFactorValue",
          "type": "uint256"
        }
      ],
      "name": "DSCEngine__BreaksHealthFactor",
      "type": "error"
    },
    {
      "inputs": [],
      "name": "DSCEngine__HealthFactorNotImproved",
      "type": "error"
    },
    {
      "inputs": [],
      "name": "DSCEngine__HealthFactorOk",
      "type": "error"
    },
    {
      "inputs": [],
      "name": "DSCEngine__MintFailed",
      "type": "error"
    },
    {
      "inputs": [],
      "name": "DSCEngine__NeedsMoreThanZero",
      "type": "error"
    },
    {
      "inputs": [],
      "name": "DSCEngine__TokenAddressesAndPriceFeedAddressesMustBeSameLength",
      "type": "error"
    },
    {
      "inputs": [
        {
          "internalType": "address",
          "name": "token",
          "type": "address"
        }
      ],
      "name": "DSCEngine__TokenNotAllowed",
      "type": "error"
    },
    {
      "inputs": [],
      "name": "DSCEngine__TransferFailed",
      "type": "error"
    },
    {
      "inputs": [],
      "name": "ReentrancyGuardReentrantCall",
      "type": "error"
    },
    {
      "anonymous": false,
      "inputs": [
        {
          "indexed": true,
          "internalType": "address",
          "name": "user",
          "type": "address"
        },
        {
          "indexed": true,
          "internalType": "address",
          "name": "token",
          "type": "address"
        },
        {
          "indexed": true,
          "internalType": "uint256",
          "name": "amount",
          "type": "uint256"
        }
      ],
      "name": "CollateralDeposited",
      "type": "event"
    },
    {
      "inputs": [],
      "name": "burnDsc",
      "outputs": [],
      "stateMutability": "nonpayable",
      "type": "function"
    },
    {
      "inputs": [
        {
          "internalType": "address",
          "name": "tokenCollateralAddress",
          "type": "address"
        },
        {
          "internalType": "uint256",
          "name": "amountCollateral",
          "type": "uint256"
        }
      ],
      "name": "depositCollateral",
      "outputs": [],
      "stateMutability": "nonpayable",
      "type": "function"
    },
    {
      "inputs": [],
      "name": "depositCollateralAndMintDsc",
      "outputs": [],
      "stateMutability": "nonpayable",
      "type": "function"
    },
    {
      "inputs": [
        {
          "internalType": "address",
          "name": "user",
          "type": "address"
        }
      ],
      "name": "getAccountCollateralValue",
      "outputs": [
        {
          "internalType": "uint256",
          "name": "totalCollateralValueInUsd",
          "type": "uint256"
        }
      ],
      "stateMutability": "view",
      "type": "function"
    },
    {
      "inputs": [],
      "name": "getHealthFactor",
      "outputs": [],
      "stateMutability": "view",
      "type": "function"
    },
    {
      "inputs": [
        {
          "internalType": "address",
          "name": "token",
          "type": "address"
        },
        {
          "internalType": "uint256",
          "name": "amount",
          "type": "uint256"
        }
      ],
      "name": "getUsdValue",
      "outputs": [
        {
          "internalType": "uint256",
          "name": "",
          "type": "uint256"
        }
      ],
      "stateMutability": "view",
      "type": "function"
    },
    {
      "inputs": [],
      "name": "liquidate",
      "outputs": [],
      "stateMutability": "nonpayable",
      "type": "function"
    },
    {
      "inputs": [
        {
          "internalType": "uint256",
          "name": "amountDscToMint",
          "type": "uint256"
        }
      ],
      "name": "mintDsc",
      "outputs": [],
      "stateMutability": "nonpayable",
      "type": "function"
    },
    {
      "inputs": [],
      "name": "redeemCollateral",
      "outputs": [],
      "stateMutability": "nonpayable",
      "type": "function"
    },
    {
      "inputs": [],
      "name": "redeemCollateralForDsc",
      "outputs": [],
      "stateMutability": "nonpayable",
      "type": "function"
    }
  ],
  "bytecode": {
    "object": "0x60a06040523480156200001157600080fd5b5060405162000ac238038062000ac2833981016040819052620000349162000249565b600160005581518351146200005c57604051635ae2e09360e11b815260040160405180910390fd5b60005b83516001101562000153578281815181106200007f576200007f620002c5565b602002602001015160016000868481518110620000a057620000a0620002c5565b60200260200101516001600160a01b03166001600160a01b0316815260200190815260200160002060006101000a8154816001600160a01b0302191690836001600160a01b031602179055506004848281518110620001035762000103620002c5565b60209081029190910181015182546001810184556000938452919092200180546001600160a01b0319166001600160a01b03909216919091179055806200014a81620002db565b9150506200005f565b506001600160a01b031660805250620003039050565b634e487b7160e01b600052604160045260246000fd5b80516001600160a01b03811681146200019757600080fd5b919050565b600082601f830112620001ae57600080fd5b815160206001600160401b0380831115620001cd57620001cd62000169565b8260051b604051601f19603f83011681018181108482111715620001f557620001f562000169565b6040529384528581018301938381019250878511156200021457600080fd5b83870191505b848210156200023e576200022e826200017f565b835291830191908301906200021a565b979650505050505050565b6000806000606084860312156200025f57600080fd5b83516001600160401b03808211156200027757600080fd5b62000285878388016200019c565b945060208601519150808211156200029c57600080fd5b50620002ab868287016200019c565b925050620002bc604085016200017f565b90509250925092565b634e487b7160e01b600052603260045260246000fd5b600060018201620002fc57634e487b7160e01b600052601160045260246000fd5b5060010190565b6080516107a36200031f600039600061045101526107a36000f3fe608060405234801561001057600080fd5b506004361061009e5760003560e01c8063a5f352b711610066578063a5f352b7146100a3578063a6534470146100a3578063c660d112146100dd578063c9b7c327146100f0578063ffde1fba146100a357600080fd5b80631e2e15e4146100a357806328a07025146100a35780637d1a4450146100a55780639e297554146100a3578063a5d5db0c146100ca575b600080fd5b005b6100b86100b33660046105eb565b610103565b60405190815260200160405180910390f35b6100a36100d836600461060d565b61018b565b6100b86100eb36600461060d565b61031a565b6100a36100fe366004610637565b6103da565b6000805b6004548110156101855760006004828154811061012657610126610650565b60009182526020808320909101546001600160a01b03878116845260028352604080852091909216808552925290912054909150610164828261031a565b61016e908561067c565b93505050808061017d9061068f565b915050610107565b50919050565b80806000036101ad5760405163cb1d3f7d60e01b815260040160405180910390fd5b6001600160a01b038084166000908152600160205260409020548491166101f75760405163cf39359560e01b81526001600160a01b03821660048201526024015b60405180910390fd5b6101ff6104f5565b3360009081526002602090815260408083206001600160a01b03881684529091528120805485929061023290849061067c565b909155505060405183906001600160a01b0386169033907ff1c0dd7e9b98bbff859029005ef89b127af049cd18df1a8d79f0b7e019911e5690600090a46040516323b872dd60e01b8152336004820152306024820152604481018490526000906001600160a01b038616906323b872dd906064016020604051808303816000875af11580156102c5573d6000803e3d6000fd5b505050506040513d601f19601f820116820180604052508101906102e991906106a8565b90508061030957604051634dc34d1760e01b815260040160405180910390fd5b506103146001600055565b50505050565b6001600160a01b03808316600090815260016020526040808220548151633fabe5a360e21b81529151929316918391839163feaf968c9160048082019260a0929091908290030181865afa158015610376573d6000803e3d6000fd5b505050506040513d601f19601f8201168201806040525081019061039a91906106e4565b505050915050670de0b6b3a7640000846402540be400836103bb9190610734565b6103c59190610734565b6103cf919061074b565b925050505b92915050565b80806000036103fc5760405163cb1d3f7d60e01b815260040160405180910390fd5b6104046104f5565b336000908152600360205260408120805484929061042390849061067c565b9091555061043290503361051f565b6040516340c10f1960e01b8152336004820152602481018390526000907f00000000000000000000000000000000000000000000000000000000000000006001600160a01b0316906340c10f19906044016020604051808303816000875af11580156104a2573d6000803e3d6000fd5b505050506040513d601f19601f820116820180604052508101906104c691906106a8565b9050806104e6576040516330eb0fc960e01b815260040160405180910390fd5b506104f16001600055565b5050565b60026000540361051857604051633ee5aeb560e01b815260040160405180910390fd5b6002600055565b600061052a82610551565b905060018110156104f15760405163e580cc6160e01b8152600481018290526024016101ee565b600080600061055f846105a5565b909250905060006064610573603284610734565b61057d919061074b565b905082610592670de0b6b3a764000083610734565b61059c919061074b565b95945050505050565b6001600160a01b038116600090815260036020526040812054906105c883610103565b9050915091565b80356001600160a01b03811681146105e657600080fd5b919050565b6000602082840312156105fd57600080fd5b610606826105cf565b9392505050565b6000806040838503121561062057600080fd5b610629836105cf565b946020939093013593505050565b60006020828403121561064957600080fd5b5035919050565b634e487b7160e01b600052603260045260246000fd5b634e487b7160e01b600052601160045260246000fd5b808201808211156103d4576103d4610666565b6000600182016106a1576106a1610666565b5060010190565b6000602082840312156106ba57600080fd5b8151801515811461060657600080fd5b805169ffffffffffffffffffff811681146105e657600080fd5b600080600080600060a086880312156106fc57600080fd5b610705866106ca565b9450602086015193506040860151925060608601519150610728608087016106ca565b90509295509295909350565b80820281158282048414176103d4576103d4610666565b60008261076857634e487b7160e01b600052601260045260246000fd5b50049056fea264697066735822122092e80e5874d4b797dfbdd9f30a56da14956f6e19166b6ced934cfae9941e961e64736f6c63430008130033",
    "linkReferences": {}
  },
  "methodIdentifiers": {
    "burnDsc()": "ffde1fba",
    "depositCollateral(address,uint256)": "a5d5db0c",
    "depositCollateralAndMintDsc()": "1e2e15e4",
    "getAccountCollateralValue(address)": "7d1a4450",
    "getHealthFactor()": "a5f352b7",
    "getUsdValue(address,uint256)": "c660d112",
    "liquidate()": "28a07025",
    "mintDsc(uint256)": "c9b7c327",
    "redeemCollateral()": "a6534470",
    "redeemCollateralForDsc()": "9e297554"
  },
  "id": 30
}