{
  "abi": [
    {
      "inputs": [
        {
          "internalType": "address[]",
          "name": "tokenAddresses",
          "type": "address[]"
        },
        {
          "internalType": "address[]",
          "name": "priceFeedAddresses",
          "type": "address[]"
        },
        {
          "internalType": "address",
          "name": "dscAddress",
          "type": "address"
        }
      ],
      "stateMutability": "nonpayable",
      "type": "constructor"
    },
    {
      "inputs": [
        {
          "internalType": "uint256",
          "name": "healthFactorValue",
          "type": "uint256"
        }
      ],
      "name": "DSCEngine__BreaksHealthFactor",
      "type": "error"
    },
    {
      "inputs": [],
      "name": "DSCEngine__HealthFactorNotImproved",
      "type": "error"
    },
    {
      "inputs": [],
      "name": "DSCEngine__HealthFactorOk",
      "type": "error"
    },
    {
      "inputs": [],
      "name": "DSCEngine__MintFailed",
      "type": "error"
    },
    {
      "inputs": [],
      "name": "DSCEngine__NeedsMoreThanZero",
      "type": "error"
    },
    {
      "inputs": [],
      "name": "DSCEngine__TokenAddressesAndPriceFeedAddressesMustBeSameLength",
      "type": "error"
    },
    {
      "inputs": [
        {
          "internalType": "address",
          "name": "token",
          "type": "address"
        }
      ],
      "name": "DSCEngine__TokenNotAllowed",
      "type": "error"
    },
    {
      "inputs": [],
      "name": "DSCEngine__TransferFailed",
      "type": "error"
    },
    {
      "inputs": [],
      "name": "ReentrancyGuardReentrantCall",
      "type": "error"
    },
    {
      "anonymous": false,
      "inputs": [
        {
          "indexed": true,
          "internalType": "address",
          "name": "user",
          "type": "address"
        },
        {
          "indexed": true,
          "internalType": "address",
          "name": "token",
          "type": "address"
        },
        {
          "indexed": true,
          "internalType": "uint256",
          "name": "amount",
          "type": "uint256"
        }
      ],
      "name": "CollateralDeposited",
      "type": "event"
    },
    {
      "anonymous": false,
      "inputs": [
        {
          "indexed": true,
          "internalType": "address",
          "name": "redeemedFrom",
          "type": "address"
        },
        {
          "indexed": true,
          "internalType": "address",
          "name": "redeemedTo",
          "type": "address"
        },
        {
          "indexed": true,
          "internalType": "address",
          "name": "token",
          "type": "address"
        },
        {
          "indexed": false,
          "internalType": "uint256",
          "name": "amount",
          "type": "uint256"
        }
      ],
      "name": "CollateralRedeemed",
      "type": "event"
    },
    {
      "inputs": [
        {
          "internalType": "uint256",
          "name": "amount",
          "type": "uint256"
        }
      ],
      "name": "burnDsc",
      "outputs": [],
      "stateMutability": "nonpayable",
      "type": "function"
    },
    {
      "inputs": [
        {
          "internalType": "address",
          "name": "tokenCollateralAddress",
          "type": "address"
        },
        {
          "internalType": "uint256",
          "name": "amountCollateral",
          "type": "uint256"
        }
      ],
      "name": "depositCollateral",
      "outputs": [],
      "stateMutability": "nonpayable",
      "type": "function"
    },
    {
      "inputs": [
        {
          "internalType": "address",
          "name": "tokenCollateralAddress",
          "type": "address"
        },
        {
          "internalType": "uint256",
          "name": "amountCollateral",
          "type": "uint256"
        },
        {
          "internalType": "uint256",
          "name": "amountDscToMint",
          "type": "uint256"
        }
      ],
      "name": "depositCollateralAndMintDsc",
      "outputs": [],
      "stateMutability": "nonpayable",
      "type": "function"
    },
    {
      "inputs": [
        {
          "internalType": "address",
          "name": "user",
          "type": "address"
        }
      ],
      "name": "getAccountCollateralValue",
      "outputs": [
        {
          "internalType": "uint256",
          "name": "totalCollateralValueInUsd",
          "type": "uint256"
        }
      ],
      "stateMutability": "view",
      "type": "function"
    },
    {
      "inputs": [],
      "name": "getHealthFactor",
      "outputs": [],
      "stateMutability": "view",
      "type": "function"
    },
    {
      "inputs": [
        {
          "internalType": "address",
          "name": "token",
          "type": "address"
        },
        {
          "internalType": "uint256",
          "name": "usdAmountInWei",
          "type": "uint256"
        }
      ],
      "name": "getTokenAmountFromUsd",
      "outputs": [
        {
          "internalType": "uint256",
          "name": "",
          "type": "uint256"
        }
      ],
      "stateMutability": "view",
      "type": "function"
    },
    {
      "inputs": [
        {
          "internalType": "address",
          "name": "token",
          "type": "address"
        },
        {
          "internalType": "uint256",
          "name": "amount",
          "type": "uint256"
        }
      ],
      "name": "getUsdValue",
      "outputs": [
        {
          "internalType": "uint256",
          "name": "",
          "type": "uint256"
        }
      ],
      "stateMutability": "view",
      "type": "function"
    },
    {
      "inputs": [
        {
          "internalType": "address",
          "name": "collateral",
          "type": "address"
        },
        {
          "internalType": "address",
          "name": "user",
          "type": "address"
        },
        {
          "internalType": "uint256",
          "name": "debtToCover",
          "type": "uint256"
        }
      ],
      "name": "liquidate",
      "outputs": [],
      "stateMutability": "nonpayable",
      "type": "function"
    },
    {
      "inputs": [
        {
          "internalType": "uint256",
          "name": "amountDscToMint",
          "type": "uint256"
        }
      ],
      "name": "mintDsc",
      "outputs": [],
      "stateMutability": "nonpayable",
      "type": "function"
    },
    {
      "inputs": [
        {
          "internalType": "address",
          "name": "tokenCollateralAddress",
          "type": "address"
        },
        {
          "internalType": "uint256",
          "name": "amountCollateral",
          "type": "uint256"
        }
      ],
      "name": "redeemCollateral",
      "outputs": [],
      "stateMutability": "nonpayable",
      "type": "function"
    },
    {
      "inputs": [
        {
          "internalType": "address",
          "name": "tokenCollateralAddress",
          "type": "address"
        },
        {
          "internalType": "uint256",
          "name": "amountCollateral",
          "type": "uint256"
        },
        {
          "internalType": "uint256",
          "name": "amountDscToBurn",
          "type": "uint256"
        }
      ],
      "name": "redeemCollateralForDsc",
      "outputs": [],
      "stateMutability": "nonpayable",
      "type": "function"
    }
  ],
  "bytecode": {
    "object": "0x60a06040523480156200001157600080fd5b50604051620010b1380380620010b1833981016040819052620000349162000248565b600160005581518351146200005c57604051635ae2e09360e11b815260040160405180910390fd5b60005b835181101562000152578281815181106200007e576200007e620002c4565b6020026020010151600160008684815181106200009f576200009f620002c4565b60200260200101516001600160a01b03166001600160a01b0316815260200190815260200160002060006101000a8154816001600160a01b0302191690836001600160a01b031602179055506004848281518110620001025762000102620002c4565b60209081029190910181015182546001810184556000938452919092200180546001600160a01b0319166001600160a01b03909216919091179055806200014981620002da565b9150506200005f565b506001600160a01b031660805250620003029050565b634e487b7160e01b600052604160045260246000fd5b80516001600160a01b03811681146200019657600080fd5b919050565b600082601f830112620001ad57600080fd5b815160206001600160401b0380831115620001cc57620001cc62000168565b8260051b604051601f19603f83011681018181108482111715620001f457620001f462000168565b6040529384528581018301938381019250878511156200021357600080fd5b83870191505b848210156200023d576200022d826200017e565b8352918301919083019062000219565b979650505050505050565b6000806000606084860312156200025e57600080fd5b83516001600160401b03808211156200027657600080fd5b62000284878388016200019b565b945060208601519150808211156200029b57600080fd5b50620002aa868287016200019b565b925050620002bb604085016200017e565b90509250925092565b634e487b7160e01b600052603260045260246000fd5b600060018201620002fb57634e487b7160e01b600052601160045260246000fd5b5060010190565b608051610d856200032c600039600081816106b9015281816109bd0152610a620152610d856000f3fe608060405234801561001057600080fd5b50600436106100a95760003560e01c8063afea2e4811610071578063afea2e481461010e578063c660d11214610121578063c9b7c32714610134578063e90db8a314610147578063f419ea9c1461015a578063f68766081461016d57600080fd5b806326c01303146100ae5780637d1a4450146100c35780639acd81b3146100e8578063a5d5db0c146100fb578063a5f352b7146100c1575b600080fd5b6100c16100bc366004610b4b565b610180565b005b6100d66100d1366004610b87565b61027a565b60405190815260200160405180910390f35b6100c16100f6366004610ba9565b610302565b6100c1610109366004610ba9565b610350565b6100d661011c366004610ba9565b6104d9565b6100d661012f366004610ba9565b610597565b6100c1610142366004610bd3565b610642565b6100c1610155366004610bec565b61075d565b6100c1610168366004610bec565b610770565b6100c161017b366004610bd3565b610783565b80806000036101a25760405163cb1d3f7d60e01b815260040160405180910390fd5b6101aa6107b0565b60006101b5846107da565b9050670de0b6b3a764000081106101df5760405163032c072f60e41b815260040160405180910390fd5b60006101eb86856104d9565b9050600060646101fc600a84610c35565b6102069190610c4c565b905060006102148284610c6e565b90506102228882893361082e565b61022d868833610961565b6000610238886107da565b9050600181101561025c576040516303e141b160e51b815260040160405180910390fd5b61026533610acc565b50505050506102746001600055565b50505050565b6000805b6004548110156102fc5760006004828154811061029d5761029d610c81565b60009182526020808320909101546001600160a01b038781168452600283526040808520919092168085529252909120549091506102db8282610597565b6102e59085610c6e565b9350505080806102f490610c97565b91505061027e565b50919050565b80806000036103245760405163cb1d3f7d60e01b815260040160405180910390fd5b61032c6107b0565b6103388383333361082e565b61034133610acc565b61034b6001600055565b505050565b80806000036103725760405163cb1d3f7d60e01b815260040160405180910390fd5b6001600160a01b038084166000908152600160205260409020548491166103bc5760405163cf39359560e01b81526001600160a01b03821660048201526024015b60405180910390fd5b6103c46107b0565b3360009081526002602090815260408083206001600160a01b0388168452909152812080548592906103f7908490610c6e565b909155505060405183906001600160a01b0386169033907ff1c0dd7e9b98bbff859029005ef89b127af049cd18df1a8d79f0b7e019911e5690600090a46040516323b872dd60e01b8152336004820152306024820152604481018490526000906001600160a01b038616906323b872dd906064016020604051808303816000875af115801561048a573d6000803e3d6000fd5b505050506040513d601f19601f820116820180604052508101906104ae9190610cb0565b9050806104ce57604051634dc34d1760e01b815260040160405180910390fd5b506102746001600055565b6001600160a01b03808316600090815260016020526040808220548151633fabe5a360e21b81529151929316918391839163feaf968c9160048082019260a0929091908290030181865afa158015610535573d6000803e3d6000fd5b505050506040513d601f19601f820116820180604052508101906105599190610cec565b5050509150506402540be400816105709190610c35565b610582670de0b6b3a764000086610c35565b61058c9190610c4c565b925050505b92915050565b6001600160a01b03808316600090815260016020526040808220548151633fabe5a360e21b81529151929316918391839163feaf968c9160048082019260a0929091908290030181865afa1580156105f3573d6000803e3d6000fd5b505050506040513d601f19601f820116820180604052508101906106179190610cec565b505050915050670de0b6b3a7640000846402540be400836106389190610c35565b6105829190610c35565b80806000036106645760405163cb1d3f7d60e01b815260040160405180910390fd5b61066c6107b0565b336000908152600360205260408120805484929061068b908490610c6e565b9091555061069a905033610acc565b6040516340c10f1960e01b8152336004820152602481018390526000907f00000000000000000000000000000000000000000000000000000000000000006001600160a01b0316906340c10f19906044016020604051808303816000875af115801561070a573d6000803e3d6000fd5b505050506040513d601f19601f8201168201806040525081019061072e9190610cb0565b90508061074e576040516330eb0fc960e01b815260040160405180910390fd5b506107596001600055565b5050565b6107678383610350565b61034b81610642565b61077981610783565b61034b8383610302565b80806000036107a55760405163cb1d3f7d60e01b815260040160405180910390fd5b610759823333610961565b6002600054036107d357604051633ee5aeb560e01b815260040160405180910390fd5b6002600055565b60008060006107e884610b05565b9092509050600060646107fc603284610c35565b6108069190610c4c565b90508261081b670de0b6b3a764000083610c35565b6108259190610c4c565b95945050505050565b6001600160a01b03808316600090815260026020908152604080832093881683529290529081208054859290610865908490610d3c565b92505081905550836001600160a01b0316816001600160a01b0316836001600160a01b03167fb292db12b8dfa23b760ee5e3bd1d3be184cd8f0eeeacd27ce120d4de4e4721f6866040516108bb91815260200190565b60405180910390a460405163a9059cbb60e01b81526001600160a01b038281166004830152602482018590526000919086169063a9059cbb906044016020604051808303816000875af1158015610916573d6000803e3d6000fd5b505050506040513d601f19601f8201168201806040525081019061093a9190610cb0565b90508061095a57604051634dc34d1760e01b815260040160405180910390fd5b5050505050565b6001600160a01b03821660009081526003602052604081208054859290610989908490610d3c565b90915550506040516323b872dd60e01b81526001600160a01b038281166004830152306024830152604482018590526000917f0000000000000000000000000000000000000000000000000000000000000000909116906323b872dd906064016020604051808303816000875af1158015610a08573d6000803e3d6000fd5b505050506040513d601f19601f82011682018060405250810190610a2c9190610cb0565b905080610a4c57604051634dc34d1760e01b815260040160405180910390fd5b604051630852cd8d60e31b8152600481018590527f00000000000000000000000000000000000000000000000000000000000000006001600160a01b0316906342966c6890602401600060405180830381600087803b158015610aae57600080fd5b505af1158015610ac2573d6000803e3d6000fd5b5050505050505050565b6000610ad7826107da565b9050670de0b6b3a76400008110156107595760405163e580cc6160e01b8152600481018290526024016103b3565b6001600160a01b03811660009081526003602052604081205490610b288361027a565b9050915091565b80356001600160a01b0381168114610b4657600080fd5b919050565b600080600060608486031215610b6057600080fd5b610b6984610b2f565b9250610b7760208501610b2f565b9150604084013590509250925092565b600060208284031215610b9957600080fd5b610ba282610b2f565b9392505050565b60008060408385031215610bbc57600080fd5b610bc583610b2f565b946020939093013593505050565b600060208284031215610be557600080fd5b5035919050565b600080600060608486031215610c0157600080fd5b610c0a84610b2f565b95602085013595506040909401359392505050565b634e487b7160e01b600052601160045260246000fd5b808202811582820484141761059157610591610c1f565b600082610c6957634e487b7160e01b600052601260045260246000fd5b500490565b8082018082111561059157610591610c1f565b634e487b7160e01b600052603260045260246000fd5b600060018201610ca957610ca9610c1f565b5060010190565b600060208284031215610cc257600080fd5b81518015158114610ba257600080fd5b805169ffffffffffffffffffff81168114610b4657600080fd5b600080600080600060a08688031215610d0457600080fd5b610d0d86610cd2565b9450602086015193506040860151925060608601519150610d3060808701610cd2565b90509295509295909350565b8181038181111561059157610591610c1f56fea2646970667358221220d790d3307aee48b5fa30e7994e8be412de907ade77dea5be0f84ca1c53b8820064736f6c63430008130033",
    "linkReferences": {}
  },
  "methodIdentifiers": {
    "burnDsc(uint256)": "f6876608",
    "depositCollateral(address,uint256)": "a5d5db0c",
    "depositCollateralAndMintDsc(address,uint256,uint256)": "e90db8a3",
    "getAccountCollateralValue(address)": "7d1a4450",
    "getHealthFactor()": "a5f352b7",
    "getTokenAmountFromUsd(address,uint256)": "afea2e48",
    "getUsdValue(address,uint256)": "c660d112",
    "liquidate(address,address,uint256)": "26c01303",
    "mintDsc(uint256)": "c9b7c327",
    "redeemCollateral(address,uint256)": "9acd81b3",
    "redeemCollateralForDsc(address,uint256,uint256)": "f419ea9c"
  },
  "id": 30
}