{
  "abi": [
    {
      "inputs": [
        {
          "internalType": "address[]",
          "name": "tokenAddresses",
          "type": "address[]"
        },
        {
          "internalType": "address[]",
          "name": "priceFeedAddresses",
          "type": "address[]"
        },
        {
          "internalType": "address",
          "name": "dscAddress",
          "type": "address"
        }
      ],
      "stateMutability": "nonpayable",
      "type": "constructor"
    },
    {
      "inputs": [
        {
          "internalType": "uint256",
          "name": "healthFactorValue",
          "type": "uint256"
        }
      ],
      "name": "DSCEngine__BreaksHealthFactor",
      "type": "error"
    },
    {
      "inputs": [],
      "name": "DSCEngine__HealthFactorNotImproved",
      "type": "error"
    },
    {
      "inputs": [],
      "name": "DSCEngine__HealthFactorOk",
      "type": "error"
    },
    {
      "inputs": [],
      "name": "DSCEngine__MintFailed",
      "type": "error"
    },
    {
      "inputs": [],
      "name": "DSCEngine__NeedsMoreThanZero",
      "type": "error"
    },
    {
      "inputs": [],
      "name": "DSCEngine__TokenAddressesAndPriceFeedAddressesMustBeSameLength",
      "type": "error"
    },
    {
      "inputs": [
        {
          "internalType": "address",
          "name": "token",
          "type": "address"
        }
      ],
      "name": "DSCEngine__TokenNotAllowed",
      "type": "error"
    },
    {
      "inputs": [],
      "name": "DSCEngine__TransferFailed",
      "type": "error"
    },
    {
      "inputs": [],
      "name": "ReentrancyGuardReentrantCall",
      "type": "error"
    },
    {
      "anonymous": false,
      "inputs": [
        {
          "indexed": true,
          "internalType": "address",
          "name": "user",
          "type": "address"
        },
        {
          "indexed": true,
          "internalType": "address",
          "name": "token",
          "type": "address"
        },
        {
          "indexed": true,
          "internalType": "uint256",
          "name": "amount",
          "type": "uint256"
        }
      ],
      "name": "CollateralDeposited",
      "type": "event"
    },
    {
      "anonymous": false,
      "inputs": [
        {
          "indexed": true,
          "internalType": "address",
          "name": "redeemedFrom",
          "type": "address"
        },
        {
          "indexed": true,
          "internalType": "address",
          "name": "redeemedTo",
          "type": "address"
        },
        {
          "indexed": true,
          "internalType": "address",
          "name": "token",
          "type": "address"
        },
        {
          "indexed": false,
          "internalType": "uint256",
          "name": "amount",
          "type": "uint256"
        }
      ],
      "name": "CollateralRedeemed",
      "type": "event"
    },
    {
      "inputs": [
        {
          "internalType": "uint256",
          "name": "amount",
          "type": "uint256"
        }
      ],
      "name": "burnDsc",
      "outputs": [],
      "stateMutability": "nonpayable",
      "type": "function"
    },
    {
      "inputs": [
        {
          "internalType": "uint256",
          "name": "totalDscMinted",
          "type": "uint256"
        },
        {
          "internalType": "uint256",
          "name": "collateralValueInUsd",
          "type": "uint256"
        }
      ],
      "name": "calculateHealthFactor",
      "outputs": [
        {
          "internalType": "uint256",
          "name": "",
          "type": "uint256"
        }
      ],
      "stateMutability": "pure",
      "type": "function"
    },
    {
      "inputs": [
        {
          "internalType": "address",
          "name": "tokenCollateralAddress",
          "type": "address"
        },
        {
          "internalType": "uint256",
          "name": "amountCollateral",
          "type": "uint256"
        }
      ],
      "name": "depositCollateral",
      "outputs": [],
      "stateMutability": "nonpayable",
      "type": "function"
    },
    {
      "inputs": [
        {
          "internalType": "address",
          "name": "tokenCollateralAddress",
          "type": "address"
        },
        {
          "internalType": "uint256",
          "name": "amountCollateral",
          "type": "uint256"
        },
        {
          "internalType": "uint256",
          "name": "amountDscToMint",
          "type": "uint256"
        }
      ],
      "name": "depositCollateralAndMintDsc",
      "outputs": [],
      "stateMutability": "nonpayable",
      "type": "function"
    },
    {
      "inputs": [
        {
          "internalType": "address",
          "name": "user",
          "type": "address"
        }
      ],
      "name": "getAccountCollateralValue",
      "outputs": [
        {
          "internalType": "uint256",
          "name": "totalCollateralValueInUsd",
          "type": "uint256"
        }
      ],
      "stateMutability": "view",
      "type": "function"
    },
    {
      "inputs": [
        {
          "internalType": "address",
          "name": "user",
          "type": "address"
        }
      ],
      "name": "getAccountInformation",
      "outputs": [
        {
          "internalType": "uint256",
          "name": "totalDscMinted",
          "type": "uint256"
        },
        {
          "internalType": "uint256",
          "name": "collateralValueInUsd",
          "type": "uint256"
        }
      ],
      "stateMutability": "view",
      "type": "function"
    },
    {
      "inputs": [],
      "name": "getAdditionalFeedPrecision",
      "outputs": [
        {
          "internalType": "uint256",
          "name": "",
          "type": "uint256"
        }
      ],
      "stateMutability": "pure",
      "type": "function"
    },
    {
      "inputs": [],
      "name": "getHealthFactor",
      "outputs": [],
      "stateMutability": "view",
      "type": "function"
    },
    {
      "inputs": [],
      "name": "getPrecision",
      "outputs": [
        {
          "internalType": "uint256",
          "name": "",
          "type": "uint256"
        }
      ],
      "stateMutability": "pure",
      "type": "function"
    },
    {
      "inputs": [
        {
          "internalType": "address",
          "name": "token",
          "type": "address"
        },
        {
          "internalType": "uint256",
          "name": "usdAmountInWei",
          "type": "uint256"
        }
      ],
      "name": "getTokenAmountFromUsd",
      "outputs": [
        {
          "internalType": "uint256",
          "name": "",
          "type": "uint256"
        }
      ],
      "stateMutability": "view",
      "type": "function"
    },
    {
      "inputs": [
        {
          "internalType": "address",
          "name": "token",
          "type": "address"
        },
        {
          "internalType": "uint256",
          "name": "amount",
          "type": "uint256"
        }
      ],
      "name": "getUsdValue",
      "outputs": [
        {
          "internalType": "uint256",
          "name": "",
          "type": "uint256"
        }
      ],
      "stateMutability": "view",
      "type": "function"
    },
    {
      "inputs": [
        {
          "internalType": "address",
          "name": "collateral",
          "type": "address"
        },
        {
          "internalType": "address",
          "name": "user",
          "type": "address"
        },
        {
          "internalType": "uint256",
          "name": "debtToCover",
          "type": "uint256"
        }
      ],
      "name": "liquidate",
      "outputs": [],
      "stateMutability": "nonpayable",
      "type": "function"
    },
    {
      "inputs": [
        {
          "internalType": "uint256",
          "name": "amountDscToMint",
          "type": "uint256"
        }
      ],
      "name": "mintDsc",
      "outputs": [],
      "stateMutability": "nonpayable",
      "type": "function"
    },
    {
      "inputs": [
        {
          "internalType": "address",
          "name": "tokenCollateralAddress",
          "type": "address"
        },
        {
          "internalType": "uint256",
          "name": "amountCollateral",
          "type": "uint256"
        }
      ],
      "name": "redeemCollateral",
      "outputs": [],
      "stateMutability": "nonpayable",
      "type": "function"
    },
    {
      "inputs": [
        {
          "internalType": "address",
          "name": "tokenCollateralAddress",
          "type": "address"
        },
        {
          "internalType": "uint256",
          "name": "amountCollateral",
          "type": "uint256"
        },
        {
          "internalType": "uint256",
          "name": "amountDscToBurn",
          "type": "uint256"
        }
      ],
      "name": "redeemCollateralForDsc",
      "outputs": [],
      "stateMutability": "nonpayable",
      "type": "function"
    }
  ],
  "bytecode": {
    "object": "0x60a06040523480156200001157600080fd5b50604051620011b8380380620011b8833981016040819052620000349162000248565b600160005581518351146200005c57604051635ae2e09360e11b815260040160405180910390fd5b60005b835181101562000152578281815181106200007e576200007e620002c4565b6020026020010151600160008684815181106200009f576200009f620002c4565b60200260200101516001600160a01b03166001600160a01b0316815260200190815260200160002060006101000a8154816001600160a01b0302191690836001600160a01b031602179055506004848281518110620001025762000102620002c4565b60209081029190910181015182546001810184556000938452919092200180546001600160a01b0319166001600160a01b03909216919091179055806200014981620002da565b9150506200005f565b506001600160a01b031660805250620003029050565b634e487b7160e01b600052604160045260246000fd5b80516001600160a01b03811681146200019657600080fd5b919050565b600082601f830112620001ad57600080fd5b815160206001600160401b0380831115620001cc57620001cc62000168565b8260051b604051601f19603f83011681018181108482111715620001f457620001f462000168565b6040529384528581018301938381019250878511156200021357600080fd5b83870191505b848210156200023d576200022d826200017e565b8352918301919083019062000219565b979650505050505050565b6000806000606084860312156200025e57600080fd5b83516001600160401b03808211156200027657600080fd5b62000284878388016200019b565b945060208601519150808211156200029b57600080fd5b50620002aa868287016200019b565b925050620002bb604085016200017e565b90509250925092565b634e487b7160e01b600052603260045260246000fd5b600060018201620002fb57634e487b7160e01b600052601160045260246000fd5b5060010190565b608051610e8c6200032c6000396000818161078301528181610aa20152610b470152610e8c6000f3fe608060405234801561001057600080fd5b50600436106100f55760003560e01c8063a5d5db0c11610097578063c9b7c32711610066578063c9b7c327146101d5578063e90db8a3146101e8578063f419ea9c146101fb578063f68766081461020e57600080fd5b8063a5d5db0c1461019c578063a5f352b714610133578063afea2e48146101af578063c660d112146101c257600080fd5b80637d1a4450116100d35780637d1a44501461015d5780638f63d667146101705780639670c0bc1461017b5780639acd81b31461018957600080fd5b806301f72884146100fa57806326c01303146101205780637be564fc14610135575b600080fd5b61010d610108366004610c14565b610221565b6040519081526020015b60405180910390f35b61013361012e366004610c52565b610236565b005b610148610143366004610c8e565b610330565b60408051928352602083019190915201610117565b61010d61016b366004610c8e565b610346565b6402540be40061010d565b670de0b6b3a764000061010d565b610133610197366004610ca9565b6103ce565b6101336101aa366004610ca9565b61041c565b61010d6101bd366004610ca9565b6105a5565b61010d6101d0366004610ca9565b610661565b6101336101e3366004610cd3565b61070c565b6101336101f6366004610cec565b610827565b610133610209366004610cec565b61083a565b61013361021c366004610cd3565b61084d565b600061022d838361087a565b90505b92915050565b80806000036102585760405163cb1d3f7d60e01b815260040160405180910390fd5b6102606108cd565b600061026b846108f7565b9050670de0b6b3a764000081106102955760405163032c072f60e41b815260040160405180910390fd5b60006102a186856105a5565b9050600060646102b2600a84610d35565b6102bc9190610d4c565b905060006102ca8284610d6e565b90506102d888828933610913565b6102e3868833610a46565b60006102ee886108f7565b90506001811015610312576040516303e141b160e51b815260040160405180910390fd5b61031b33610bb1565b505050505061032a6001600055565b50505050565b60008061033c83610bea565b9094909350915050565b6000805b6004548110156103c85760006004828154811061036957610369610d81565b60009182526020808320909101546001600160a01b038781168452600283526040808520919092168085529252909120549091506103a78282610661565b6103b19085610d6e565b9350505080806103c090610d97565b91505061034a565b50919050565b80806000036103f05760405163cb1d3f7d60e01b815260040160405180910390fd5b6103f86108cd565b61040483833333610913565b61040d33610bb1565b6104176001600055565b505050565b808060000361043e5760405163cb1d3f7d60e01b815260040160405180910390fd5b6001600160a01b038084166000908152600160205260409020548491166104885760405163cf39359560e01b81526001600160a01b03821660048201526024015b60405180910390fd5b6104906108cd565b3360009081526002602090815260408083206001600160a01b0388168452909152812080548592906104c3908490610d6e565b909155505060405183906001600160a01b0386169033907ff1c0dd7e9b98bbff859029005ef89b127af049cd18df1a8d79f0b7e019911e5690600090a46040516323b872dd60e01b8152336004820152306024820152604481018490526000906001600160a01b038616906323b872dd906064016020604051808303816000875af1158015610556573d6000803e3d6000fd5b505050506040513d601f19601f8201168201806040525081019061057a9190610db0565b90508061059a57604051634dc34d1760e01b815260040160405180910390fd5b5061032a6001600055565b6001600160a01b03808316600090815260016020526040808220548151633fabe5a360e21b81529151929316918391839163feaf968c9160048082019260a0929091908290030181865afa158015610601573d6000803e3d6000fd5b505050506040513d601f19601f820116820180604052508101906106259190610df3565b5050509150506402540be4008161063c9190610d35565b61064e670de0b6b3a764000086610d35565b6106589190610d4c565b95945050505050565b6001600160a01b03808316600090815260016020526040808220548151633fabe5a360e21b81529151929316918391839163feaf968c9160048082019260a0929091908290030181865afa1580156106bd573d6000803e3d6000fd5b505050506040513d601f19601f820116820180604052508101906106e19190610df3565b505050915050670de0b6b3a7640000846402540be400836107029190610d35565b61064e9190610d35565b808060000361072e5760405163cb1d3f7d60e01b815260040160405180910390fd5b6107366108cd565b3360009081526003602052604081208054849290610755908490610d6e565b90915550610764905033610bb1565b6040516340c10f1960e01b8152336004820152602481018390526000907f00000000000000000000000000000000000000000000000000000000000000006001600160a01b0316906340c10f19906044016020604051808303816000875af11580156107d4573d6000803e3d6000fd5b505050506040513d601f19601f820116820180604052508101906107f89190610db0565b905080610818576040516330eb0fc960e01b815260040160405180910390fd5b506108236001600055565b5050565b610831838361041c565b6104178161070c565b6108438161084d565b61041783836103ce565b808060000361086f5760405163cb1d3f7d60e01b815260040160405180910390fd5b610823823333610a46565b60008260000361088d5750600019610230565b6000606461089c603285610d35565b6108a69190610d4c565b9050836108bb670de0b6b3a764000083610d35565b6108c59190610d4c565b949350505050565b6002600054036108f057604051633ee5aeb560e01b815260040160405180910390fd5b6002600055565b600080600061090584610bea565b915091506108c5828261087a565b6001600160a01b0380831660009081526002602090815260408083209388168352929052908120805485929061094a908490610e43565b92505081905550836001600160a01b0316816001600160a01b0316836001600160a01b03167fb292db12b8dfa23b760ee5e3bd1d3be184cd8f0eeeacd27ce120d4de4e4721f6866040516109a091815260200190565b60405180910390a460405163a9059cbb60e01b81526001600160a01b038281166004830152602482018590526000919086169063a9059cbb906044016020604051808303816000875af11580156109fb573d6000803e3d6000fd5b505050506040513d601f19601f82011682018060405250810190610a1f9190610db0565b905080610a3f57604051634dc34d1760e01b815260040160405180910390fd5b5050505050565b6001600160a01b03821660009081526003602052604081208054859290610a6e908490610e43565b90915550506040516323b872dd60e01b81526001600160a01b038281166004830152306024830152604482018590526000917f0000000000000000000000000000000000000000000000000000000000000000909116906323b872dd906064016020604051808303816000875af1158015610aed573d6000803e3d6000fd5b505050506040513d601f19601f82011682018060405250810190610b119190610db0565b905080610b3157604051634dc34d1760e01b815260040160405180910390fd5b604051630852cd8d60e31b8152600481018590527f00000000000000000000000000000000000000000000000000000000000000006001600160a01b0316906342966c6890602401600060405180830381600087803b158015610b9357600080fd5b505af1158015610ba7573d6000803e3d6000fd5b5050505050505050565b6000610bbc826108f7565b9050670de0b6b3a76400008110156108235760405163e580cc6160e01b81526004810182905260240161047f565b6001600160a01b03811660009081526003602052604081205490610c0d83610346565b9050915091565b60008060408385031215610c2757600080fd5b50508035926020909101359150565b80356001600160a01b0381168114610c4d57600080fd5b919050565b600080600060608486031215610c6757600080fd5b610c7084610c36565b9250610c7e60208501610c36565b9150604084013590509250925092565b600060208284031215610ca057600080fd5b61022d82610c36565b60008060408385031215610cbc57600080fd5b610cc583610c36565b946020939093013593505050565b600060208284031215610ce557600080fd5b5035919050565b600080600060608486031215610d0157600080fd5b610d0a84610c36565b95602085013595506040909401359392505050565b634e487b7160e01b600052601160045260246000fd5b808202811582820484141761023057610230610d1f565b600082610d6957634e487b7160e01b600052601260045260246000fd5b500490565b8082018082111561023057610230610d1f565b634e487b7160e01b600052603260045260246000fd5b600060018201610da957610da9610d1f565b5060010190565b600060208284031215610dc257600080fd5b81518015158114610dd257600080fd5b9392505050565b805169ffffffffffffffffffff81168114610c4d57600080fd5b600080600080600060a08688031215610e0b57600080fd5b610e1486610dd9565b9450602086015193506040860151925060608601519150610e3760808701610dd9565b90509295509295909350565b8181038181111561023057610230610d1f56fea26469706673582212203658a75d1441e16f9e5e15f0c0c2bf7df90d2ec484ca106536aaf9a248b3ced364736f6c63430008130033",
    "linkReferences": {}
  },
  "methodIdentifiers": {
    "burnDsc(uint256)": "f6876608",
    "calculateHealthFactor(uint256,uint256)": "01f72884",
    "depositCollateral(address,uint256)": "a5d5db0c",
    "depositCollateralAndMintDsc(address,uint256,uint256)": "e90db8a3",
    "getAccountCollateralValue(address)": "7d1a4450",
    "getAccountInformation(address)": "7be564fc",
    "getAdditionalFeedPrecision()": "8f63d667",
    "getHealthFactor()": "a5f352b7",
    "getPrecision()": "9670c0bc",
    "getTokenAmountFromUsd(address,uint256)": "afea2e48",
    "getUsdValue(address,uint256)": "c660d112",
    "liquidate(address,address,uint256)": "26c01303",
    "mintDsc(uint256)": "c9b7c327",
    "redeemCollateral(address,uint256)": "9acd81b3",
    "redeemCollateralForDsc(address,uint256,uint256)": "f419ea9c"
  },
  "id": 30
}